:100000008AC00000A4C00000A2C00000A0C0000080
:100010009EC000009CC000009AC0000098C0000074
:1000200096C0000094C0000092C00000F0C2000022
:100030008EC000008BC700008AC000000C944F08DF
:1000400086C0000084C0000082C0000080C00000A4
:100050007EC000003FC700007AC0000078C00000EA
:1000600076C0000074C0000072C0000070C00000C4
:100070006EC00000069CFF0901A1010902750895E8
:10008000401580257F8102090375089540150025DC
:10009000FF9102C01201100100000008501D2260F3
:1000A00001000102DC010902220001010000FA093D
:1000B00004000001030000000921110100012220B9
:1000C00000070581034000010403090432036C00AA
:1000D00069006700680074007000610063006B00D5
:1000E0002E0067006F006F0067006C006500630002
:1000F0006F00640065002E0063006F006D0000005B
:1001000014034C006900670068007400700061000F
:1001100063006B00000011241FBECFEFD2E0DEBFF2
:10012000CDBF11E0A0E0B1E0E0EDF7E102C0059045
:100130000D92AC31B107D9F712E0ACE1B1E001C0EA
:100140001D92AC32B107E1F724D70C94E60B58CFDF
:100150009C014091E9015091EA014617570718F4B4
:10016000F90190E03DC06115710511F0AB01F8CFC8
:100170008091E8008E778093E80040E050E0F0CF77
:100180008091E2018823F1F18530F1F18091E8005E
:1001900083FF02C081E008958091E80082FD2CC0B9
:1001A0008091E80080FF1CC08091F200282F30E091
:1001B00007C081918093F100415050402F5F3F4F25
:1001C0004115510519F02830310598F390E0283099
:1001D000310509F491E08091E8008E778093E80082
:1001E0004115510569F6992359F606C08091E2013F
:1001F000882341F0853041F08091E80082FFF6CFFE
:1002000080E0089582E0089583E008959C016115DF
:10021000710529F48091E8008B778093E800F9015B
:1002200020C08091E201882361F1853061F18091E5
:10023000E80083FF02C081E008958091E80082FF1A
:10024000F0CF06C08091F10081936150704021F0A1
:100250008091F2008823B1F78091E8008B7780933A
:10026000E80061157105E9F606C08091E201882376
:1002700041F0853041F08091E80080FFF6CF80E0CA
:10028000089582E0089583E008959C014091E9017A
:100290005091EA014617570718F4F90190E040C061
:1002A0006115710511F0AB01F8CF8091E8008E77F0
:1002B0008093E80040E050E0F0CF8091E201882395
:1002C00009F440C0853009F43FC08091E80083FF05
:1002D00002C081E008958091E80082FD2DC08091E8
:1002E000E80080FF1DC08091F200282F30E008C098
:1002F00084918093F1003196415050402F5F3F4FE1
:100300004115510519F02830310590F390E028305F
:10031000310509F491E08091E8008E778093E80040
:100320004115510551F6992341F606C08091E2012D
:10033000882341F0853041F08091E80082FFF6CFBC
:1003400080E0089582E0089583E00895BF92CF92FF
:10035000DF92EF92FF920F931F93CF93DF93182FAB
:10036000092F7B016A01D9D0B82E8823B1F5812FDE
:10037000902F9C01E901C114D10439F0F60180816C
:100380009181E81AF90AC80FD91F00E010E022C0D5
:100390008091E80085FD16C08091E8008E778093FB
:1003A000E80040D3C114D10449F0F6018081918165
:1003B000800F911F9183808385E010C0AED0882389
:1003C00049F00CC089918093F1000894E108F1088C
:1003D0000F5F1F4FE114F104D9F68B2DDF91CF9100
:1003E0001F910F91FF90EF90DF90CF90BF900895F5
:1003F000382F282F2EC0822F8F708093E90023176B
:1004000021F4762F942F50E006C07091EC0090916B
:10041000ED005091F00091FF1BC08091EB008E7FAA
:100420008093EB008091ED008D7F8093ED008091B3
:10043000EB0081608093EB007093EC009093ED00F3
:100440005093F0008091EE0087FD02C080E0089597
:100450002F5F253080F23F703093E90081E00895EE
:100460000F931F93CF93DF93062FEC0110E02AC068
:100470009881992329F16B81E981FA812C81892F57
:100480008F70853018F5223010F452E001C056E02C
:1004900040E028E030E003C04F5F220F331F2E17EB
:1004A0003F07D0F36295660F660F607C991F99270E
:1004B000991F692B4295407F452B9ADF882331F0A5
:1004C0001F5F25961017A0F281E001C080E0DF9148
:1004D000CF911F910F9108958091E30188239CF49F
:1004E00004C08091E2018823B9F08091E80082FF86
:1004F000F8CF8091E8008B778093E8000895809191
:10050000E201882349F08091E80080FFF8CF8091D4
:10051000E8008E778093E80008954091E4005091C0
:10052000E50024E68091EC0080FF24C08091E80083
:1005300080FD1EC08091E201882311F482E00895BD
:10054000853011F483E008958091EB0085FF02C0AF
:1005500081E008958091E4009091E500841795076B
:1005600009F3222311F484E008952150AC01DACF7D
:1005700080E008958091E80082FFDCCFF9CF41D080
:1005800043D08091D8008F778093D8008091D80095
:1005900080688093D8008091D8008F7D8093D800A8
:1005A00084E089BD86E089BD09B400FEFDCF1092CC
:1005B000E2011092DE011092E0011092DF0180E072
:1005C00060E042E015DF8091E1008E7F8093E100E2
:1005D0008091E20081608093E2008091E200886077
:1005E0008093E2008091E0008E7F8093E000089588
:1005F000E3E6F0E080818E7F808381E08093E101FB
:10060000BECF1092E20008951092E10008951F926B
:100610000F920FB60F9211242F933F934F935F9336
:100620006F937F938F939F93AF93BF93EF93FF93BA
:100630008091E10082FF0AC08091E20082FF06C043
:100640008091E1008B7F8093E10030D78091E100C1
:1006500080FF17C08091E20080FF13C08091E2000C
:100660008E7F8093E2008091E20080618093E200BF
:100670008091D80080628093D80019BC1092E2016A
:1006800014D78091E10084FF2DC08091E20084FFA7
:1006900029C084E089BD86E089BD09B400FEFDCF94
:1006A0008091D8008F7D8093D8008091E1008F7E6B
:1006B0008093E1008091E2008F7E8093E200809140
:1006C000E20081608093E2008091DE01882331F4B2
:1006D0008091E30087FD02C081E001C084E0809347
:1006E000E201E2D68091E10083FF22C08091E20026
:1006F00083FF1EC08091E100877F8093E10082E04C
:100700008093E2011092DE018091E1008E7F809360
:10071000E1008091E2008E7F8093E2008091E20010
:1007200080618093E20080E060E042E061DE79D1A8
:10073000FF91EF91BF91AF919F918F917F916F91B9
:100740005F914F913F912F910F900FBE0F901F908F
:1007500018951F93DF93CF93CDB7DEB7AC970FB645
:10076000F894DEBF0FBECDBFE3EEF1E08091F10063
:10077000819321E0EB3EF207C9F7C0D78091E800F2
:1007800083FF37C18091E3013091E401353009F4F2
:1007900087C0363040F43130C9F1313070F0333039
:1007A00009F027C133C0383009F4F5C0393009F4F5
:1007B00004C1363009F01DC196C0803821F082385E
:1007C00009F017C108C09091DF018091E0018823F2
:1007D00099F0926011C08091E7018F708093E900D9
:1007E0008091EB0090E025E0969587952A95E1F7BA
:1007F000982F91701092E9008091E800877F809394
:10080000E8009093F1001092F100D0C0882319F015
:10081000823009F0EEC090E08F719070009721F067
:10082000029709F0E6C00CC08091E501813009F023
:10083000E0C01092E001333069F58093E0012AC0F6
:100840008091E501882331F52091E7012F7009F4AB
:10085000D0C02093E9008091EB0080FF1BC03330B3
:1008600021F48091EB00806213C08091EB008061E5
:100870008093EB0081E090E002C0880F991F2A95D9
:10088000E2F78093EA001092EA008091EB00886022
:100890008093EB001092E9008091E800877F89C087
:1008A000882309F0A6C01091E5011F778091E3002D
:1008B0008078812B8093E3008091E800877F80938C
:1008C000E8000ADE8091E80080FFFCCF8091E30021
:1008D00080688093E300112311F482E001C083E07B
:1008E0008093E20186C08058823008F082C08091F7
:1008F000E5019091E60123E08C3D920709F033C0B9
:1009000083E08C838AE28B837FB7F894DE011596AF
:100910006EE040E050E011E2E62FF0E01093570067
:10092000849140FF03C082958F706F5F8F70282F76
:1009300030E08A3018F0C901C79602C0C901C096DC
:100940008D939D934F5F5F4F4431510529F77FBFD2
:100950008091E800877F8093E800CE0103966AE2E9
:1009600070E0F6DB12C06091E701AE014F5F5F4FB0
:10097000BBD3BC01009709F43CC08091E800877F9D
:100980008093E80089819A8180DC8091E8008B77F0
:100990008093E8002EC0803861F58091E800877F61
:1009A0008093E8008091DE018093F1008091E8005F
:1009B0008E778093E80090DD1CC08823D1F490915D
:1009C000E5019230B0F48091E800877F8093E800E1
:1009D0009093DE0181DD8091DE01882331F48091E6
:1009E000E30087FD02C081E001C084E08093E20162
:1009F00088D68091E80083FF0AC08091E800877F55
:100A00008093E8008091EB0080628093EB00AC96CD
:100A10000FB6F894DEBF0FBECDBFCF91DF911F910F
:100A2000089508951F938091E201882371F0109139
:100A3000E9008091EC001092E9008091E80083FFCA
:100A400001C087DE1F701093E9001F9108954F9237
:100A50005F926F927F928F929F92AF92BF92CF924E
:100A6000DF92EF92FF920F931F93DF93CF9300D00B
:100A70000F92CDB7DEB77C016DB67EB68091E201F4
:100A8000843009F099C02091E4003091E500F7012D
:100A9000828593858217930709F48EC081818F70B8
:100AA0008093E9008091E80085FF86C05DB64EB670
:100AB000408550E08DB79EB7841B950B0FB6F89418
:100AC0009EBF0FBE8DBF0DB71EB70F5F1F4F1982A0
:100AD0001B821A82C02E912EC80160E070E050E0A7
:100AE0006ED6C701BE016F5F7F4F40E098018E0157
:100AF0000E5F1F4FE7D4882EF70184859585892BDB
:100B000019F4AA24BB240BC020E0F7018685978541
:100B1000892B09F021E081E02827A22EBB24F701D0
:100B2000068117810115110511F4DD2412C04A81D7
:100B30005B818C2D992DB8012CD6DD24009711F006
:100B4000DD24D394F7014085C8016C2D792D50E048
:100B50002DD68A819B81892B01F1882021F4DD200B
:100B600011F4AB28D1F0F7018485958597878687A6
:100B700081818F708093E9008981882311F08093AF
:100B8000F1006A817B818C2D992D40E050E0DEDB05
:100B90008091E8008E778093E8008091E400909146
:100BA000E500F70193878287252D342DC9010FB603
:100BB000F8949EBF0FBE8DBF0FB6F8947EBE0FBED9
:100BC0006DBE0F900F900F90CF91DF911F910F91FD
:100BD000FF90EF90DF90CF90BF90AF909F908F905D
:100BE0007F906F905F904F900895CF93DF93DC01DB
:100BF0000996FC0187E0EF0119928A95E9F781E0F7
:100C000019968C93199784EF91E01D969C938E937F
:100C10001C9783E014968C931497CD01019661E0A4
:100C20001FDC811181E0DF91CF9108956F927F9257
:100C30008F929F92AF92BF92CF92DF92EF92FF92EC
:100C40000F931F93DF93CF9300D00F92CDB7DEB7F2
:100C50006C016DB67EB68091E80083FF13C1F6018A
:100C6000808190E02091E7013091E8012817390751
:100C700009F008C18091E401833009F4ABC08430ED
:100C800030F4813071F0823009F0FCC0DFC08A306E
:100C900009F4C4C08B3009F4AEC0893009F0F2C049
:100CA00056C08091E301813A09F0ECC09DB68EB642
:100CB0001B821A828091E5011091E6018983F60179
:100CC000408550E08DB79EB7841B950B0FB6F89406
:100CD0009EBF0FBE8DBFEDB6FEB60894E11CF11CA1
:100CE000BE2CAF2CC70160E070E050E068D5115019
:100CF000C601BE016F5F7F4F412F97018E010E5FCE
:100D00001F4FE0D3F601268137812115310529F0E7
:100D10004085C901B70150E049D51092E9008091A2
:100D2000E800877F8093E8006A817B818B2D9A2D74
:100D30000FDA8091E8008B778093E800292D382D19
:100D4000C9010FB6F8949EBF0FBE8DBF9BC08091A6
:100D5000E301813209F096C09DB68EB60091E9019B
:100D60001091EA01A090E501B090E6018DB79EB721
:100D7000801B910B0FB6F8949EBF0FBE8DBFEDB6D2
:100D8000FEB60894E11CF11C8091E800877F8093F7
:100D9000E800C701B8013ADA8091E8008E778093C5
:100DA000E80080E090E0AA2011F081E090E0BA94A1
:100DB000E80EF91E081B190BC6016A2D4B2D970171
:100DC00091D3892D982D9C010FB6F8943EBF0FBE8C
:100DD0002DBF58C08091E301813A09F053C0809142
:100DE000E800877F8093E8008091E80080FFFCCFD7
:100DF000F60181853FC08091E301813209F042C054
:100E00008091E800877F8093E80066DB90E0809126
:100E1000E501811191E0F601918734C08091E301F1
:100E2000813281F58091E800877F8093E80054DB70
:100E30008091E5019091E601807036E09695879566
:100E40003A95E1F7F601958784871CC08091E3010C
:100E5000813AC1F48091E800877F8093E800809117
:100E6000E80080FFFCCFF6018485958596958795EF
:100E7000969587958093F1008091E8008E77809316
:100E8000E8002ADB0FB6F8947EBE0FBE6DBE0F9051
:100E90000F900F90CF91DF911F910F91FF90EF90E6
:100EA000DF90CF90BF90AF909F908F907F906F908A
:100EB00008959FB7F89440911C019FBF3FB7F894E5
:100EC00020911C01982F9095922390931C013FBF75
:100ED000842308951F920F920FB60F9211242F931F
:100EE0003F938F939F9380911D018F5F80931D018E
:100EF00020911E0130911F012F5F3F4F30931F0142
:100F000020931E01863019F410921D01459A28582D
:100F1000334139F481E08093000110921F01109257
:100F20001E018091000190911D01882319F09230DB
:100F300021F402C0913009F445989F918F913F911F
:100F40002F910F900FBE0F901F9018951F920F9228
:100F50000FB60F9211242F933F934F935F938F936C
:100F60009F9330E040EA5FE0459A20E0CA01019794
:100F7000F1F72F5F2832D1F7459820E0CA01019799
:100F8000F1F72F5F2832D1F73F5F333069F7459A89
:100F9000FFCF2CE088E190E00FB6F894A8958093FD
:100FA00060000FBE20936000809160008064809399
:100FB000600080E090E020E80FB6F8942093610094
:100FC000809361000FBE15B814B818B817B81BB8D5
:100FD0001AB83D9A459A1FD130E040E450E068ECE1
:100FE00070E0459A20E004C0CB010197F1F72F5F34
:100FF0002317D0F3459820E004C0CB010197F1F707
:101000002F5F822F90E084179507BCF33F5F41501C
:101010005040303431F7459A10928000109282008F
:101020001092810014BC15BC80910A0190910B01B3
:10103000909389008093880092E090936F0081E004
:1010400080936E008093810095BD10928500109270
:10105000840016BCCDDA7894A8955CD382E029DFB1
:10106000882321F080E060E040E0DCD084E021DFF4
:10107000882391F380916F008D7F80936F00809122
:101080000A0190910B01909389008093880010923F
:1010900085001092840082E080936F00DDCF1F9264
:1010A0000F920FB60F9211242F933F934F935F939C
:1010B0006F937F938F939F93AF93BF93EF93FF9320
:1010C000E8D182E086BBFF91EF91BF91AF919F91F4
:1010D0008F917F916F915F914F913F912F910F90E1
:1010E0000FBE0F901F901895DA019330B1F0943035
:1010F00028F4913041F0923079F50AC0913211F123
:10110000923251F524C0E4E9F0E022E130E028C059
:10111000E6EAF0E022E230E023C0813049F081309D
:1011200018F08230C9F40AC0E8ECF0E0849103C002
:10113000ECECF0E08491282F30E012C0E0E0F1E028
:101140008491F9CFE8EBF0E029E030E009C0E4E772
:10115000F0E020E230E004C0E0E0F0E020E030E049
:10116000ED93FC93C9010895BC012A9840E058E032
:1011700020E030E0CA0186239723892B11F02A9AB8
:1011800001C02A98299A2998569547952F5F3F4F75
:101190002C30310579F70895EF92FF921F93CF938A
:1011A000DF937C0180E090E0DFDFE7016E9615E0E1
:1011B0008C819D81D9DF8A819B81D6DF888199814D
:1011C000D3DF1F5F26961A3099F780E090E0CCDFDE
:1011D000E70110E08C819D81C7DF8A819B81C4DF9C
:1011E00088819981C1DF1F5F2696153099F7289A6B
:1011F0002898DF91CF911F91FF90EF9008951F9352
:1012000010E080E090E0B0DF1F5F1031D1F7289A46
:1012100028981F910895219A229A209A289829980F
:101220002A98EDCFCF93DF93E0E2F1E0EF01EC9667
:10123000A8E9B1E08083118262831382448315821E
:10124000888319826A831B824C831D828C9311963A
:101250001C92119712966C93129713961C921397E7
:1012600014964C93149715961C92159736962696BD
:10127000169691E0EC35F907E9F6DF91CF910895E4
:101280002F923F924F925F926F92AF92BF92CF9206
:10129000DF92EF92FF920F931F93DF93CF93CDB71F
:1012A000DEB763970FB6F894DEBF0FBECDBF2091B7
:1012B00007012D87822F90E0A0E0B0E089879A8710
:1012C000AB87BC87A4EDB1E0BC83AB83DC97BA836A
:1012D000A983E0E2F1E0FB8BEA8B4CE3442E512C36
:1012E0004E0E5F1EAB81BC816C90E981FA8120803B
:1012F0003180828193819F878E87A481B581B98B4C
:10130000A88BBD856B16B8F0EA89FB8931822082F3
:10131000D20111963C922E929383828313969C93D2
:101320008E931297888999899583848315969C93C7
:101330008E9314977FC0662D70E080E090E0CB0123
:101340007727662729853A854B855C8500D2590128
:101350006A0180E090E0A1E0B0E08A199B09AC0945
:10136000BD098D839E83AF83B887AA89BB892D91E0
:101370003C9140E050E06D817E818F819885CED197
:101380007B018C01910140E050E0C601B501C6D15E
:10139000E60EF71E081F191F780100271127F2011A
:1013A000F182E082AA89BB8912962D913C91139714
:1013B00040E050E06D817E818F819885AFD17B01C7
:1013C0008C01EE85FF859F0140E050E0C601B5012C
:1013D000A5D1E60EF71E081F191F78010027112757
:1013E000D2011396FC92EE921297EA89FB8924812E
:1013F000358140E050E06D817E818F8198858ED16E
:101400007B018C01888999899C0140E050E0C601EC
:10141000B50184D1E60EF71E081F191F78010027B9
:101420001127D2011596FC92EE9214976394EB81EA
:10143000FC8160828B819C8101969C838B83A98136
:10144000BA811696BA83A983EA89FB893696FB8B03
:10145000EA8B86E090E0480E591EAB81BC81AE5D00
:10146000B14009F03FCF63960FB6F894DEBF0FBED0
:10147000CDBFCF91DF911F910F91FF90EF90DF9043
:10148000CF90BF90AF906F905F904F903F902F9014
:101490000895F6DE80910601882319F08CE591E02D
:1014A00002C088E991E078CE0895089580911A01EC
:1014B00090911B01009729F0019790931B01809355
:1014C0001A0108950F931F93D801F90186E08183D3
:1014D00082E0828380E490E08D939C9381E01F9171
:1014E0000F9108954F925F926F927F928F929F9289
:1014F000AF92BF92CF92DF92EF92FF920F931F9322
:10150000CF93DF93A9018091000190E0882309F433
:1015100091E090930001FA018081833009F4BFC00B
:10152000843030F4813071F0823009F0D6C0AEC022
:10153000853009F4C8C0853008F4C1C0863009F090
:10154000CCC0C8C09FB7F89480911C01886080937C
:101550001C019FBFA0E2B1E04D01EA0178E9A72E8E
:1015600071E0B72E6AE9C62E61E0D62E5CE9E52E61
:1015700051E0F52E00E010E0DC968D919C91DD9716
:10158000F40191838083DE968D919C91DF97139671
:101590009C938E931297A05CBF4F6D907C90119797
:1015A000A054B04015967C926E921497898190E079
:1015B00044E0880F991F4A95E1F7F50191838083F4
:1015C0004A8150E034E0440F551F3A95E1F7F601A7
:1015D000518340836B8170E024E0660F771F2A956A
:1015E000E1F7F701718360832C8130E02F70307058
:1015F000282B392BF501318320838D81482E5524EA
:10160000FFE04F225524442A552AF6015182408298
:101610008E81482F50E04F705070462B572BF701AA
:1016200051834083F401808191818217930751F4A3
:1016300012968D919C9113978415950519F4641653
:10164000750621F0F801EC52FE4F10820F5F1F4F1C
:10165000169686E090E0880E991E2696A80EB91E72
:10166000C80ED91EE80EF91E0A30110509F084CF04
:101670009FB7F89480911C01877F80931C019FBFC6
:101680009FB7F89480911C01816005C09FB7F894C2
:1016900080911C01826080931C019FBF1EC09281BB
:1016A00080E0218130E0822B932B90930B0180937B
:1016B0000A019FB7F89480911C018460ECCF81816E
:1016C000809309010AC08181809306018181809302
:1016D000070103C0818180930801DF91CF911F91A1
:1016E0000F91FF90EF90DF90CF90BF90AF909F90C1
:1016F0008F907F906F905F904F9008958CE091E075
:1017000095CA8CE091E071DAE2EEF0E080818460CD
:10171000808308958CE091E09AD984C9FF27EE2751
:10172000BB27AA2760FF04C0A20FB31FE41FF51F49
:10173000220F331F441F551F969587957795679500
:1017400089F70097760771F7CF01BD010895A1E2EF
:101750001A2EAA1BBB1BFD010DC0AA1FBB1FEE1F2B
:10176000FF1FA217B307E407F50720F0A21BB30B76
:10177000E40BF50B661F771F881F991F1A9469F7F2
:1017800060957095809590959B01AC01BD01CF014E
:101790000895FB01DC0104C08D910190801921F4B2
:1017A00041505040C8F7881B990B0895FB01DC019C
:1017B00002C001900D9241505040D8F70895DC01CD
:1017C00001C06D9341505040E0F70895F894FFCF69
:1017D00001060201881301643280640000014000A8
:0C17E0000001EC014000000000000000CF
:00000001FF
