:100000008AC00000A4C00000A2C00000A0C0000080
:100010009EC000009CC000009AC0000098C0000074
:1000200096C0000094C0000092C000003FC10000D4
:100030008EC000009BC600008AC0000041C70000BF
:1000400086C0000084C0000082C0000080C00000A4
:100050007EC0000075C600007AC0000078C00000B5
:1000600076C0000074C0000072C0000070C00000C4
:100070006EC00000069CFF0901A1010902750895E8
:10008000401580257F8102090375089540150025DC
:10009000FF9102C01201100100000008EB034F2085
:1000A00001000102000109022200010100C0FA0959
:1000B00004000001030000000921110100012220B9
:1000C00000070581034000010403090432036C00AA
:1000D00069006700680074007000610063006B00D5
:1000E0002E0067006F006F0067006C006500630002
:1000F0006F00640065002E0063006F006D0000005B
:1001000014034C006900670068007400700061000F
:1001100063006B00000011241FBECFEFD2E0DEBFF2
:10012000CDBF11E0A0E0B1E0E6EFF3E102C0059041
:100130000D92A431B107D9F711E0A4E1B1E001C0FB
:100140001D92A93CB107E1F734D60C94F90958CFB8
:100150008093E9008091EB0081608093EB00109226
:10016000ED006093EC004093ED008091EE00881F5D
:100170008827881F08958091800188239CF404C0FB
:1001800080917F018823B9F08091E80082FFF8CF49
:100190008091E8008B778093E800089580917F013B
:1001A000882349F08091E80080FFF8CF8091E80033
:1001B0008E778093E80008954091E4005091E50027
:1001C00024E68091EC0080FF05C08091E80080FF6C
:1001D00005C022C08091E80082FD1EC080917F0191
:1001E000882311F482E00895853011F483E00895A6
:1001F0008091EB0085FF02C081E008958091E400CA
:100200009091E50084179507E1F2222311F484E030
:1002100008952150AC01D5CF80E0089541D043D05E
:100220008091D800982F9F779093D8008068809312
:10023000D80084E089BD89B5826089BD09B400FE1B
:10024000FDCF8091D8008F7D8093D80010927F01E0
:1002500010927D0110927C0110927B0180E060E0A1
:1002600042E076DF8091E1008E7F8093E100809113
:10027000E20081608093E2008091E20088608093D8
:10028000E2008091E0008E7F8093E0000895E3E635
:10029000F0E080818E7F808381E080937E01BECFFD
:1002A0001092E20008951092E10008951F920F92BB
:1002B0000FB60F9211242F933F934F935F936F9339
:1002C0007F938F939F93AF93BF93EF93FF9380910F
:1002D000E10080FF1CC08091E20080FF18C0809187
:1002E000E1008E7F8093E1008091E2008E7F809319
:1002F000E2008091E20080618093E2008091D8006A
:1003000080628093D80019BC10927F0178D78091C9
:10031000E10084FF2EC08091E20084FF2AC084E0C7
:1003200089BD89B5826089BD09B400FEFDCF809189
:10033000D8008F7D8093D8008091E1008F7E8093DC
:10034000E1008091E2008F7E8093E2008091E200E4
:1003500081608093E20080917D01882331F4809157
:10036000E30087FD02C081E001C084E080937F014B
:1003700045D78091E10083FF22C08091E20083FF96
:100380001EC08091E100877F8093E10082E080932E
:100390007F0110927D018091E1008E7F8093E100CA
:1003A0008091E2008E7F8093E2008091E200806184
:1003B0008093E20080E060E042E0CADE4BD18091B1
:1003C000E10082FF0AC08091E20082FF06C08091B6
:1003D000E1008B7F8093E10013D7FF91EF91BF91F4
:1003E000AF919F918F917F916F915F914F913F91CD
:1003F0002F910F900FBE0F901F9018950F931F9382
:10040000DF93CF9300D0CDB7DEB7E0E8F1E0809185
:10041000F100819381E0E838F807C9F797D7809118
:10042000E80083FF02C18091800130918101353065
:1004300009F487C0363040F43130C9F1313070F002
:10044000333009F0F2C033C0383009F4C0C039305D
:1004500009F4CFC0363009F0E8C099C0803821F0E7
:10046000823809F0E2C008C090917B0180917C0144
:10047000882399F0926011C08091840187708093E5
:10048000E9008091EB0090E025E0969587952A950C
:10049000E1F7982F91701092E9008091E800877F32
:1004A0008093E8009093F1001092F1009BC08823A4
:1004B00019F0823009F0B9C090E08F719070009708
:1004C00021F0029709F0B1C00CC080918201813007
:1004D00009F0ABC010927C01333069F580937C0148
:1004E0002AC080918201882331F5209184012770F0
:1004F00009F49BC02093E9008091EB0080FF1BC0B2
:10050000333021F48091EB00806213C08091EB00C6
:1005100080618093EB0081E090E002C0880F991F1A
:100520002A95E2F78093EA001092EA008091EB00AE
:1005300088608093EB001092E9008091E800877F4B
:1005400054C0882309F071C0109182011F770FB742
:10055000F8948091E800877F8093E8000CDE80911A
:10056000E80080FFFCCF112311F482E001C083E09A
:1005700080937F018091E3008078182B1093E30033
:100580008091E30080688093E3000FBF4EC08058E5
:10059000823008F04AC0809182019091830160917D
:1005A0008401AE014F5F5F4FB0D4BC01009709F4E6
:1005B0003CC08091E800877F8093E80089819A8120
:1005C000A8D08091E8008B778093E8002EC0803817
:1005D00061F58091E800877F8093E80080917D013C
:1005E0008093F1008091E8008E778093E800C3DD6E
:1005F0001CC08823D1F4909182019230B0F4809194
:10060000E800877F8093E80090937D01B4DD8091BE
:100610007D01882331F48091E30087FD02C081E0F1
:1006200001C084E080937F0194D68091E80083FF2D
:100630000AC08091EB0080628093EB008091E8001B
:10064000877F8093E8000F900F90CF91DF911F91EB
:100650000F91089508959C01409186015091870162
:100660004617570718F4F90190E03DC06115710570
:1006700011F0AB01F8CF8091E8008E778093E8000D
:1006800040E050E0F0CF80917F018823F1F1853088
:10069000F1F18091E80083FF02C081E0089580912C
:1006A000E80082FD2CC08091E80080FF1CC0809192
:1006B000F200282F30E007C081918093F100415073
:1006C00050402F5F3F4F4115510519F0283031053B
:1006D00098F390E02830310509F491E08091E8002A
:1006E0008E778093E8004115510569F6992359F6F4
:1006F00006C080917F01882341F0853041F08091D0
:10070000E80082FFF6CF80E0089582E0089583E05C
:1007100008959C0140918601509187014617570723
:1007200010F460E03FC06115710511F0AB01F9CF25
:100730008091E8008E778093E80040E050E0F1CFB0
:1007400080917F01882309F43FC0853009F43EC0C1
:100750008091E80083FF02C081E008958091E80065
:1007600082FD2CC08091E80080FF1CC08091F200C7
:1007700090E009C0F9012F5F3F4FE491E093F10051
:100780004150504001964115510519F088309105AE
:1007900088F360E0089709F461E08091E8008E77C3
:1007A0008093E8004115510559F6662349F606C0C5
:1007B00080917F01882341F0853041F08091E800ED
:1007C00082FFF6CF80E0089582E0089583E00895E7
:1007D0009C016115710529F48091E8008B77809365
:1007E000E800F90120C080917F01882361F1853004
:1007F00061F18091E80083FF02C081E0089580915B
:10080000E80082FFF0CF06C08091F1008193615033
:10081000704021F08091F2008823B1F78091E800C8
:100820008B778093E80061157105E9F606C0809129
:100830007F01882341F0853041F08091E80080FFFE
:10084000F6CF80E0089582E0089583E00895DF9276
:10085000EF92FF920F931F93CF93DF93182F092FDF
:10086000EB017A01A9DCD82E882319F5812F902F6E
:100870009C0189011CC08091E80085FD12C0809117
:10088000E8008E778093E800E114F10431F0F7017D
:100890000995813011F485E00DC08EDC882339F094
:1008A00009C0F80181918F018093F1002197209771
:1008B00011F78D2DDF91CF911F910F91FF90EF9048
:1008C000DF9008951F9380917F01882361F010913C
:1008D000E9001092E9008091E80083FF01C08EDDFD
:1008E00017701093E9001F9108954F925F926F92D5
:1008F0007F928F929F92AF92BF92CF92DF92EF92B0
:10090000FF920F931F93DF93CF9300D00F92CDB739
:10091000DEB77C016DB67EB680917F01843009F030
:1009200085C0F70181818093E9008091E80085FF0F
:100930007DC05DB64EB647818DB79EB7841B9109C9
:100940000FB6F8949EBF0FBE8DBF0DB71EB70F5FD9
:100950001F4F19821B821A82C02E912EC80160E09F
:1009600070E050E03FD5C701BE016F5F7F4F40E0B0
:1009700098018E010E5F1F4F4FD4882EF70181859D
:100980009285892B19F4AA24BB240BC020E0F7011F
:1009900083859485892B09F021E081E02827A22E08
:1009A000BB24F701058116810115110511F4DD2421
:1009B00012C04A815B818C2D992DB801FDD4DD24B4
:1009C000009711F0DD24D394F7014781C8016C2D05
:1009D000792D50E0FED48A819B81892BF9F0882003
:1009E00021F4DD2011F4AB28C9F0F701818592854F
:1009F0009487838781818093E9008981882311F01E
:100A00008093F1006A817B818C2D992D40E050E02C
:100A10001EDF8091E8008E778093E800852D942D6D
:100A20009C010FB6F8943EBF0FBE2DBF0FB6F894D1
:100A30007EBE0FBE6DBE0F900F900F90CF91DF91D5
:100A40001F910F91FF90EF90DF90CF90BF90AF90EC
:100A50009F908F907F906F905F904F900895CF936D
:100A6000DF93DC010896FC0185E0EF0119928A957D
:100A7000E9F781E018968C93189784EF91E01A9625
:100A80009C938E93199711963C91119712966D91A4
:100A90007C91139714968C91882311F440E001C047
:100AA00044E020E088E090E003C02F5F880F991FAA
:100AB00086179707D0F342602295207F422B832F21
:100AC00061EC46DB811181E0DF91CF9108956F9257
:100AD0007F928F929F92AF92BF92CF92DF92EF92CE
:100AE000FF920F931F93DF93CF9300D00F92CDB758
:100AF000DEB74C016DB67EB68091E80083FFF8C08A
:100B0000F401808190E020918401309185012817C3
:100B1000390709F0EDC080918101833009F498C054
:100B2000843030F4813071F0823009F0E1C0C8C007
:100B30008A3009F4ADC08B3009F497C0893009F0D0
:100B4000D7C04FC080918001813A09F0D1C0ADB6C5
:100B5000FEB61B821A8280918201109183018983E3
:100B6000F40147818DB79EB7841B91090FB6F894A5
:100B70009EBF0FBE8DBFCDB6DEB60894C11CD11C82
:100B8000EC2CBD2CC60160E070E050E02BD411507D
:100B9000C401BE016F5F7F4F412F96018E010E5F32
:100BA0001F4F3AD3F401258136812115310529F0F3
:100BB0004781C901B60150E00CD41092E900809140
:100BC000E800877F8093E8006A817B818E2D9B2DD2
:100BD00042DD8091E8008B778093E8002A2D3F2D3D
:100BE00031C080918001813209F082C0AEB600919F
:100BF000860110918701C0908201D09083018DB74A
:100C00009EB7801B910B0FB6F8949EBF0FBE8DBF91
:100C1000EDB6FEB60894E11CF11C8091E800877FD8
:100C20008093E800C701B801D3DD8091E8008E779A
:100C30008093E800DA94C4016C2D4D2D9701FCD20D
:100C4000262D3A2D0FB6F8943EBF0FBE2DBF50C0D3
:100C500080918001813A09F04BC08091E800877F44
:100C60008093E800F40180853BC08091800181324F
:100C700009F03EC08091E800877F8093E8007BDA2E
:100C800090E080918201811191E0F401908730C061
:100C900080918001813261F58091E800877F8093A7
:100CA000E80069DA8091820190918301807076E09A
:100CB000969587957A95E1F7F4019287818718C018
:100CC00080918001813AA1F48091E800877F809330
:100CD000E800F4018185928596958795969587958C
:100CE0008093F1008091E8008E778093E80043DAEA
:100CF0000FB6F8947EBE0FBE6DBE0F900F900F9092
:100D0000CF91DF911F910F91FF90EF90DF90CF90E7
:100D1000BF90AF909F908F907F906F9008959FB7F6
:100D2000F894409114019FBF3FB7F89420911401AB
:100D3000982F90959223909314013FBF8423089598
:100D40001F920F920FB60F9211248F93809115016D
:100D50008F5F809315018F3118F010921501459A1D
:100D60008F910F900FBE0F901F9018951F920F92AA
:100D70000FB60F9211242F933F934F935F938F934E
:100D80009F9330E040EA5FE0459A20E0CA01019776
:100D9000F1F72F5F2832D1F7459820E0CA0101977B
:100DA000F1F72F5F2832D1F73F5F333069F7459A6B
:100DB000FFCF2CE088E190E00FB6F894A8958093DF
:100DC00060000FBE2093600080916000806480937B
:100DD000600080E090E020E80FB6F8942093610076
:100DE000809361000FBE15B814B818B817B81BB8B7
:100DF0001AB83D9A459A30D130E040E450E068ECB2
:100E000070E0459A20E004C0CB010197F1F72F5F15
:100E10002317D0F3459820E004C0CB010197F1F7E8
:100E20002F5F822F90E084179507BCF33F5F4150FE
:100E30005040303431F7459A109280001092820071
:100E40001092810014BC15BC80910501909106019F
:100E5000909389008093880082E080936F0081E006
:100E600080936E008093810084E085BD10928500A0
:100E70001092840016BC0BDA7894A89573D282E0A5
:100E80004EDF882321F080E060E040E0EED084E097
:100E900046DF882391F380916F008D7F80936F00F0
:100EA00080910501909106019093890080938800BC
:100EB000109285001092840082E080936F00DDCF55
:100EC0001F920F920FB60F9211242F933F934F93BF
:100ED0005F936F937F938F939F93AF93BF93EF93A2
:100EE000FF9350D182E086BBFF91EF91BF91AF910C
:100EF0009F918F917F916F915F914F913F912F9132
:100F00000F900FBE0F901F901895DA019330B1F03B
:100F1000943028F4913041F0923079F50AC0913242
:100F200011F1923251F524C0E4E9F0E022E130E021
:100F300028C0E6EAF0E022E230E023C0813049F048
:100F4000813018F08230C9F40AC0E8ECF0E08491F6
:100F500003C0ECECF0E08491282F30E012C0E0E018
:100F6000F1E08491F9CFE8EBF0E029E030E009C04E
:100F7000E4E7F0E020E230E004C0E0E0F0E020E070
:100F800030E0ED93FC93C90108950F931F93CF9325
:100F9000DF93062FEA01122F482FE0E0F0E021E076
:100FA00030E023C0842F90E063E070E0DFD1DE0109
:100FB000A80FB91F8C91181710F4E22BF32BB9016D
:100FC000660F771F11968C911197181710F4E62B66
:100FD000F72B660F771F12968C91181710F4E62BDB
:100FE000F72B9B01220F331F4F5F4017D8F2FEBD36
:100FF0000DB407FEFDCFEEBD0DB407FEFDCFDF91B2
:10100000CF911F910F910895FF920F931F938C0121
:10101000F62E85E06AE0A8012F2DB7DF80E065E0BD
:10102000A8012F2DB2DF289A28981F910F91FF90C9
:1010300008951EBC0DB407FEFDCF1EBC0DB407FE07
:10104000FDCF1EBC0DB407FEFDCF1EBC0DB407FEC8
:10105000FDCF289A28980895219A229A209A2898B4
:1010600081E08DBD80E58CBDE4CFE6E1F1E0DF01FC
:101070005E968083618342838C93678F40A35E96E4
:101080008C935E975F966C935F9790964C93909736
:101090003396139691E0E433F90759F708958F9248
:1010A0009F92AF92BF92CF92DF92EF92FF920F93F7
:1010B0001F93CF93DF93A090020100E711E092EE1F
:1010C000E92E9FEFF92EE00EF11EC6E1D1E0812C52
:1010D00081E0982EF801D080F7014081C180B28074
:1010E000DA1438F048834E8FC982CF8EBA82B8A204
:1010F00030C080E09D2D6A2D70E04AD1FB01D40103
:10110000A61BB70B6881CD0170E030D19C01CF01E7
:10111000642F70E02BD1280F391F3E8F6981CD01DC
:1011200070E024D19C01CF016C2D70E01FD1280FFD
:10113000391F3F8F6A81CD0170E018D19C01CF012A
:101140006B2D70E013D1280F391F38A3D394F80109
:10115000D0820F5F1F4F83E090E0E80EF91E2396C8
:1011600091E00A37190709F0B5CFDF91CF911F91B0
:101170000F91FF90EF90DF90CF90BF90AF909F9036
:101180008F90089590917A0180910401981701F54C
:1011900010927A0110928500109284004ADF8091AB
:1011A0000101882309F07BDF8091030190E0A0E03A
:1011B000B0E02227382F492F5A2F80918400909138
:1011C0008500A0E0B0E082179307A407B507A8F355
:1011D00080910101882319F084E391E002C082E547
:1011E00091E060917A0110DF80917A018F5F8093A6
:1011F0007A01109285001092840008950895089550
:101200008091120190911301009729F0019790931A
:1012100013018093120108950F931F93D801F901D0
:1012200085E0818382E0828380E490E08D939C93CB
:1012300081E01F910F9108950F931F93CF93DF9338
:10124000359AF9018081833009F45DC0843030F42F
:10125000813071F0823009F074C04CC0853009F4DF
:1012600066C0853008F45FC0863009F06AC066C089
:101270009FB7F894809114018860809314019FBFF8
:10128000E6E1F1E0E9018F01045C1F4F20E731E066
:10129000868D8083878D818360A162839981D80147
:1012A0009C935A8111965C9311974B8112964C93A3
:1012B0008081891729F48181851711F4641711F051
:1012C000D9011C92339626960D5F1F4F2F5F3F4F1B
:1012D000B1E0E433FB07E1F69FB7F8948091140185
:1012E000877F809314019FBF9FB7F894809114016A
:1012F000816005C09FB7F89480911401826080934B
:1013000014019FBF1EC0928180E0218130E0822BBA
:10131000932B90930601809305019FB7F8948091D9
:1013200014018460ECCF8181809304010AC0818123
:101330008093010181818093020103C081818093A8
:101340000301DF91CF911F910F91089587E091E004
:10135000BECB87E091E083DBE2EEF0E08081846049
:101360008083089587E091E0C0DAACCA5527002455
:1013700080FF02C0060E571F660F771F61157105AB
:1013800021F096958795009799F7952F802D0895D0
:10139000AA1BBB1B51E107C0AA1FBB1FA617B7079B
:1013A00010F0A61BB70B881F991F5A95A9F78095B7
:1013B0009095BC01CD010895FB01DC0104C08D9125
:1013C0000190801921F441505040C8F7881B990BB7
:1013D0000895FB01DC0102C001900D924150504084
:1013E000D8F70895DC0101C06D9341505040E0F7FB
:0613F0000895F894FFCF00
:1013F6001E01643280640000014000008901400043
:0414060000000000E2
:00000001FF
