:1000000083C000009DC000009BC0000099C000009C
:1000100097C0000095C0000093C0000091C0000090
:100020008FC000008DC000008BC0000063C40000C2
:1000300087C0000085C0000083C00000CDC1000063
:100040007FC000007DC000007BC0000079C00000C0
:1000500077C0000075C0000073C0000071C00000D0
:100060006FC000006DC000006BC0000069C00000E0
:1000700067C00000069CFF0901A1010902750895EF
:10008000401580257F8102090375089540150025DC
:10009000FF9102C01201100100000008EB034F2085
:1000A00001000102000109022200010100C0FA0959
:1000B00004000001030000000921110100012220B9
:1000C00000070581034000010403090426036200C0
:1000D000720075006E0071006C002E0067006900F0
:1000E00074006800750062002E0063006F006D00F0
:1000F000000014034C006900670068007400700081
:10010000610063006B00000011241FBECFEFD2E03E
:10011000DEBFCDBF11E0A0E0B1E0E0EEF3E102C050
:1001200005900D92AE30B107D9F711E0AEE0B1E025
:1001300001C01D92A83AB107E1F7C2D20C94EE09B2
:100140005FCFFF920F931F93CF93DF9310920E0117
:10015000C0E0D0E0FF24FA9449C01A2F0B2FCD0144
:1001600063E070E00E94B309FC01EC0FFD1FED5E3F
:10017000FE4F3081CD0163E070E00E94B309FC01C5
:10018000EC0FFD1FE559FE4F408120910F01CD017D
:1001900063E070E00E94B309FC01EC0FFD1FED5716
:1001A000FE4F6081822F0E94C509992391F4341774
:1001B00008F43F5F431708F43150812F902F63E01C
:1001C00070E00E94B309FC01EC0FFD1FED5EFE4FD5
:1001D0003083341711F0F0920E011196A830B1055A
:1001E00009F0BBCF2196C330D10519F0A0E0B0E0F3
:1001F000B4CF80910E01882331F080910F018F5F81
:1002000080930F0102C010920F01DF91CF911F91D7
:100210000F91FF900895809112018F5F80931201DA
:1002200090910001891780F01092120180911001C5
:10023000882351F080910E01882311F082DF04C0E1
:100240008CE897E00197F1F785B18D7D85B92E98FF
:100250002A9885B1826285B99091120120E030E040
:1002600085B18D7D85B9F901ED5EFE4F81859817C9
:1002700010F42E9A01C02E98F901ED5EFE4F85898B
:10028000981710F42A9A01C02A9885B1826285B91C
:100290002F5F3F4F2330310519F785B18D7D85B92B
:1002A0002E982A9885B1826285B920E030E085B128
:1002B0008D7D85B9F901ED5EFE4F8681981710F4AA
:1002C0002E9A01C02E98F901ED5EFE4F8289981793
:1002D00010F42A9A01C02A9885B1826285B92F5FED
:1002E0003F4F2330310519F785B18D7D85B92E98A3
:1002F0002A9885B1826285B920E030E085B18D7D94
:1003000085B9F901ED5EFE4F8381981710F42E9A9E
:1003100001C02E98F901ED5EFE4F8785981710F405
:100320002A9A01C02A9885B1826285B92F5F3F4F12
:100330002330310519F785B18D7D85B92E982A981E
:1003400085B1826285B920E030E085B18D7D85B9C7
:10035000F901ED5EFE4F8081981710F42E9A01C0CE
:100360002E98F901ED5EFE4F8485981710F42A9AB5
:1003700001C02A9885B1826285B92F5F3F4F233033
:10038000310519F785B1816185B9000085B18E7E8F
:1003900085B90895B82FA62F20E030E0C90163E0A9
:1003A00070E0E1D7FC01ED5EFE4FB283C90163E06E
:1003B00070E0D9D7FC01ED5EFE4FA183C90163E077
:1003C00070E0D1D7FC01ED5EFE4F40832F5F3F4FC1
:1003D0002830310519F708951F920F920FB60F922A
:1003E00011242F933F934F935F936F937F938F933A
:1003F0009F93AF93BF93EF93FF930DDF1092850010
:1004000010928400FF91EF91BF91AF919F918F91D6
:100410007F916F915F914F913F912F910F900FBE00
:100420000F901F90189584B7877F84BF88E10FB61F
:10043000F89480936000109260000FBE80E090E01E
:1004400020E80FB6F89420936100809361000FBEFE
:1004500015B814B818B817B81BB81AB8539A5B98DF
:1004600008955B9A08955B98089580910C0190918E
:100470000D01009729F0019790930D0180930C01D5
:1004800008950F931F93D801F90194E0918383E0BD
:100490008283938382E0848380E490E08D939C93B5
:1004A00081E01F910F910895CF93DF93F90190811F
:1004B000933009F4C1C0943030F4913059F0923047
:1004C00009F0EFC08CC0943009F4E4C0953009F015
:1004D000E8C0E4C080911001882309F040C0E90120
:1004E000A0E0B0E02981CD0163E070E03CD7FC01E1
:1004F000ED5EFE4F22832A81CD0163E070E033D7A9
:10050000FC01ED5EFE4F21832B81CD0163E070E0A5
:100510002AD7FC01ED5EFE4F20832C81CD0163E0E4
:1005200070E021D7FC01ED57FE4F22832D81CD01D4
:1005300063E070E018D7FC01ED57FE4F21832E8158
:10054000CD0163E070E00FD7FC01ED57FE4F208333
:1005500011962696A830B10509F0C4CFA2C0E901D2
:10056000A0E0B0E02981CD0163E070E0FCD6FC01A1
:10057000E559FE4F22832A81CD0163E070E0F3D676
:10058000FC01E559FE4F21832B81CD0163E070E032
:10059000EAD6FC01E559FE4F20832C81CD0163E0B2
:1005A00070E0E1D6FC01ED57FE4F22832D81CD0195
:1005B00063E070E0D8D6FC01ED57FE4F21832E8119
:1005C000CD0163E070E0CFD6FC01ED57FE4F2083F4
:1005D00011962696A830B10509F0C4CF27C08091A6
:1005E0001001882321F460E040E0D4DE5AC020E00E
:1005F00030E0C90163E070E0B6D6FC01E559FE4F7A
:100600001282C90163E070E0AED6FC01E559FE4FED
:100610001182C90163E070E0A6D6FC01E559FE4FE6
:1006200010822F5F3F4F2830310519F78FEF8093ED
:100630000E0110920F0135C080916F008D7F809365
:100640006F008181823081F0833028F4882341F06B
:10065000813091F407C0833051F0843069F409C0CF
:1006600081E008C082E006C09093810005C084E06C
:1006700001C086E080938100828190E090938900A0
:1006800080938800109285001092840082E080930D
:100690006F0007C081818093000103C08181809336
:1006A0001001DF91CF91089581E091E034C581E0A0
:1006B00091E0F9D4E2EEF0E08081846080830895D7
:1006C000B2DE85B18E7E85B985B18D7D85B915B8CF
:1006D0008FEF84B9109280001092820081E08093A5
:1006E000810084E690E090938900809388001092C6
:1006F00085001092840082E080936F00ECD07894A3
:100700008FEF8093100184E164E144E143DE81E0F6
:1007100091E00FD4FBD3FBCFDA019330B1F09430EA
:1007200028F4913041F0923079F50AC0913211F1FC
:10073000923251F524C0E4E9F0E022E130E028C033
:10074000E6EAF0E022E230E023C0813049F0813077
:1007500018F08230C9F40AC0E8ECF0E0849103C0DC
:10076000ECECF0E08491282F30E012C0E2EFF0E0F2
:100770008491F9CFE8EBF0E029E030E009C0E4E74C
:10078000F0E020E230E004C0E0E0F0E020E030E023
:10079000ED93FC93C90108958093E9008091EB00EB
:1007A00081608093EB001092ED006093EC00409329
:1007B000ED008091EE00881F8827881F08958091A2
:1007C000A00188239CF404C080919F018823B9F084
:1007D0008091E80082FFF8CF8091E8008B778093CA
:1007E000E800089580919F01882349F08091E800F6
:1007F00080FFF8CF8091E8008E778093E80008951D
:100800004091E4005091E50024E68091EC0080FFE7
:1008100005C08091E80080FF05C022C08091E800FB
:1008200082FD1EC080919F01882311F482E008950B
:10083000853011F483E008958091EB0085FF02C0BC
:1008400081E008958091E4009091E5008417950778
:10085000E1F2222311F484E008952150AC01D5CFB8
:1008600080E0089541D043D08091D800982F9F77A1
:100870009093D80080688093D80084E089BD89B5C2
:10088000826089BD09B400FEFDCF8091D8008F7DC4
:100890008093D80010929F0110929D0110929C01AC
:1008A00010929B0180E060E042E076DF8091E10001
:1008B0008E7F8093E1008091E20081608093E2006E
:1008C0008091E20088608093E2008091E0008E7F5A
:1008D0008093E0000895E3E6F0E080818E7F8083DE
:1008E00081E080939E01BECF1092E20008951092A5
:1008F000E10008951F920F920FB60F9211242F93CB
:100900003F934F935F936F937F938F939F93AF9397
:10091000BF93EF93FF938091E10080FF1CC0809113
:10092000E20080FF18C08091E1008E7F8093E1009B
:100930008091E2008E7F8093E2008091E2008061EE
:100940008093E2008091D80080628093D80019BC27
:1009500010929F0188DD8091E10084FF2EC080917C
:10096000E20084FF2AC084E089BD89B5826089BD28
:1009700009B400FEFDCF8091D8008F7D8093D80010
:100980008091E1008F7E8093E1008091E2008F7E74
:100990008093E2008091E20081608093E200809188
:1009A0009D01882331F48091E30087FD02C081E03E
:1009B00001C084E080939F0154DD8091E10083FFBA
:1009C00022C08091E20083FF1EC08091E100877FFA
:1009D0008093E10082E080939F0110929D018091BD
:1009E000E1008E7F8093E1008091E2008E7F809312
:1009F000E2008091E20080618093E20080E060E0AC
:100A000042E0CADE4BD18091E10082FF0AC08091B2
:100A1000E20082FF06C08091E1008B7F8093E100BD
:100A200024DDFF91EF91BF91AF919F918F917F91C5
:100A30006F915F914F913F912F910F900FBE0F904B
:100A40001F9018950F931F93DF93CF9300D0CDB7CE
:100A5000DEB7E0EAF1E08091F100819381E0E83ACD
:100A6000F807C9F721DE8091E80083FF02C1809179
:100A7000A0013091A101353009F487C0363040F42F
:100A80003130C9F1313070F0333009F0F2C033C089
:100A9000383009F4C0C0393009F4CFC0363009F01D
:100AA000E8C099C0803821F0823809F0E2C008C05F
:100AB00090919B0180919C01882399F0926011C0D4
:100AC0008091A40187708093E9008091EB0090E011
:100AD00025E0969587952A95E1F7982F91701092C9
:100AE000E9008091E800877F8093E8009093F1000F
:100AF0001092F1009BC0882319F0823009F0B9C030
:100B000090E08F719070009721F0029709F0B1C0CA
:100B10000CC08091A201813009F0ABC010929C0101
:100B2000333069F580939C012AC08091A20188230B
:100B300031F52091A401277009F49BC02093E900AE
:100B40008091EB0080FF1BC0333021F48091EB00DB
:100B5000806213C08091EB0080618093EB0081E0A4
:100B600090E002C0880F991F2A95E2F78093EA006F
:100B70001092EA008091EB0088608093EB00109265
:100B8000E9008091E800877F54C0882309F071C094
:100B90001091A2011F770FB7F8948091E800877F2A
:100BA0008093E8000CDE8091E80080FFFCCF1123E9
:100BB00011F482E001C083E080939F018091E30003
:100BC0008078182B1093E3008091E3008068809375
:100BD000E3000FBF4EC08058823008F04AC08091B9
:100BE000A2019091A3016091A401AE014F5F5F4FFC
:100BF00093DDBC01009709F43CC08091E800877F39
:100C00008093E80089819A81A8D08091E8008B7751
:100C10008093E8002EC0803861F58091E800877FDE
:100C20008093E80080919D018093F1008091E8001D
:100C30008E778093E800C3DD1CC08823D1F49091A7
:100C4000A2019230B0F48091E800877F8093E800A1
:100C500090939D01B4DD80919D01882331F48091B2
:100C6000E30087FD02C081E001C084E080939F0122
:100C70001EDD8091E80083FF0AC08091EB00806256
:100C80008093EB008091E800877F8093E8000F90CD
:100C90000F90CF91DF911F910F91089508959C01BE
:100CA0004091A6015091A7014617570718F4F90182
:100CB00090E03DC06115710511F0AB01F8CF809156
:100CC000E8008E778093E80040E050E0F0CF80911C
:100CD0009F018823F1F18530F1F18091E80083FFD5
:100CE00002C081E008958091E80082FD2CC08091CF
:100CF000E80080FF1CC08091F200282F30E007C080
:100D000081918093F100415050402F5F3F4F41153A
:100D1000510519F02830310598F390E0283031055D
:100D200009F491E08091E8008E778093E800411506
:100D3000510569F6992359F606C080919F018823D1
:100D400041F0853041F08091E80082FFF6CF80E0ED
:100D5000089582E0089583E008959C014091A601E2
:100D60005091A7014617570710F460E03FC0611586
:100D7000710511F0AB01F9CF8091E8008E77809377
:100D8000E80040E050E0F1CF80919F01882309F412
:100D90003FC0853009F43EC08091E80083FF02C067
:100DA00081E008958091E80082FD2CC08091E800E8
:100DB00080FF1CC08091F20090E009C0F9012F5F14
:100DC0003F4FE491E093F1004150504001964115AE
:100DD000510519F08830910588F360E0089709F40F
:100DE00061E08091E8008E778093E800411551051D
:100DF00059F6662349F606C080919F01882341F089
:100E0000853041F08091E80082FFF6CF80E00895C0
:100E100082E0089583E008959C016115710529F42D
:100E20008091E8008B778093E800F90120C08091E1
:100E30009F01882361F1853061F18091E80083FF93
:100E400002C081E008958091E80082FFF0CF06C0E3
:100E50008091F10081936150704021F08091F20007
:100E60008823B1F78091E8008B778093E8006115C3
:100E70007105E9F606C080919F01882341F0853015
:100E800041F08091E80080FFF6CF80E0089582E095
:100E9000089583E00895DF92EF92FF920F931F93DE
:100EA000CF93DF93182F092FEB017A01A9DCD82EFD
:100EB000882319F5812F902F9C0189011CC08091F6
:100EC000E80085FD12C08091E8008E778093E800ED
:100ED000E114F10431F0F7010995813011F485E056
:100EE0000DC08EDC882339F009C0F80181918F0193
:100EF0008093F1002197209711F78D2DDF91CF91ED
:100F00001F910F91FF90EF90DF9008951F938091B4
:100F10009F01882361F01091E9001092E90080910F
:100F2000E80083FF01C08EDD17701093E9001F9168
:100F300008954F925F926F927F928F929F92AF929D
:100F4000BF92CF92DF92EF92FF920F931F93DF93A6
:100F5000CF9300D00F92CDB7DEB77C016DB67EB6D1
:100F600080919F01843009F085C0F70181818093D1
:100F7000E9008091E80085FF7DC05DB64EB64781EF
:100F80008DB79EB7841B91090FB6F8949EBF0FBE14
:100F90008DBF0DB71EB70F5F1F4F19821B821A82BC
:100FA000C02E912EC80160E070E050E010D2C70161
:100FB000BE016F5F7F4F40E098018E010E5F1F4FB3
:100FC00060DA882EF70181859285892B19F4AA248D
:100FD000BB240BC020E0F70183859485892B09F0A1
:100FE00021E081E02827A22EBB24F701058116818C
:100FF0000115110511F4DD2412C04A815B818C2D8D
:10100000992DB801CED1DD24009711F0DD24D394C1
:10101000F7014781C8016C2D792D50E0CFD18A812D
:101020009B81892BF9F0882021F4DD2011F4AB2875
:10103000C9F0F701818592859487838781818093A8
:10104000E9008981882311F08093F1006A817B8116
:101050008C2D992D40E050E01EDF8091E8008E77C6
:101060008093E800852D942D9C010FB6F8943EBF27
:101070000FBE2DBF0FB6F8947EBE0FBE6DBE0F9093
:101080000F900F90CF91DF911F910F91FF90EF90F4
:10109000DF90CF90BF90AF909F908F907F906F9098
:1010A0005F904F900895CF93DF93DC010896FC0189
:1010B00085E0EF0119928A95E9F781E018968C9303
:1010C000189784EF91E01A969C938E931997119636
:1010D0003C91119712966D917C91139714968C9177
:1010E000882311F440E001C044E020E088E090E073
:1010F00003C02F5F880F991F86179707D0F34260B0
:101100002295207F422B832F61EC46DB811181E009
:10111000DF91CF9108956F927F928F929F92AF92BD
:10112000BF92CF92DF92EF92FF920F931F93DF93C4
:10113000CF9300D00F92CDB7DEB74C016DB67EB61F
:101140008091E80083FFF8C0F401808190E0209155
:10115000A4013091A5012817390709F0EDC080914D
:10116000A101833009F498C0843030F4813071F0EB
:10117000823009F0E1C0C8C08A3009F4ADC08B30BC
:1011800009F497C0893009F0D7C04FC08091A00101
:10119000813A09F0D1C0ADB6FEB61B821A828091A9
:1011A000A2011091A3018983F40147818DB79EB7F5
:1011B000841B91090FB6F8949EBF0FBE8DBFCDB6AC
:1011C000DEB60894C11CD11CEC2CBD2CC60160E01D
:1011D00070E050E0FCD01150C401BE016F5F7F4F42
:1011E000412F96018E010E5F1F4F4BD9F4012581CF
:1011F00036812115310529F04781C901B60150E03A
:10120000DDD01092E9008091E800877F8093E800AC
:101210006A817B818E2D9B2D42DD8091E8008B774A
:101220008093E8002A2D3F2D31C08091A0018132AA
:1012300009F082C0AEB60091A6011091A701C0903E
:10124000A201D090A3018DB79EB7801B910B0FB662
:10125000F8949EBF0FBE8DBFEDB6FEB60894E11C9C
:10126000F11C8091E800877F8093E800C701B801F6
:10127000D3DD8091E8008E778093E800DA94C40192
:101280006C2D4D2D970110D9262D3A2D0FB6F894BF
:101290003EBF0FBE2DBF50C08091A001813A09F022
:1012A0004BC08091E800877F8093E800F40180853F
:1012B0003BC08091A001813209F03EC08091E800DE
:1012C000877F8093E8007BDA90E08091A201811112
:1012D00091E0F401908730C08091A001813261F5E6
:1012E0008091E800877F8093E80069DA8091A2010D
:1012F0009091A301807076E0969587957A95E1F7B5
:10130000F4019287818718C08091A001813AA1F4ED
:101310008091E800877F8093E800F40181859285C1
:1013200096958795969587958093F1008091E80032
:101330008E778093E80043DA0FB6F8947EBE0FBE36
:101340006DBE0F900F900F90CF91DF911F910F9175
:10135000FF90EF90DF90CF90BF90AF909F908F90D5
:101360007F906F9008955527002480FF02C0060EDD
:10137000571F660F771F6115710521F096958795A8
:10138000009799F7952F802D0895991B79E004C057
:10139000991F961708F0961B881F7A95C9F78095B4
:1013A0000895FB01DC0104C08D910190801921F4A6
:1013B00041505040C8F7881B990B0895FB01DC0190
:1013C00002C001900D9241505040D8F70895DC01C1
:1013D00001C06D9341505040E0F70895F894FFCF5D
:0E13E0004000014000002B0140000000000012
:00000001FF
