:100000008AC00000A4C00000A2C00000A0C0000080
:100010009EC000009CC000009AC0000098C0000074
:1000200096C0000094C0000092C000003FC10000D4
:100030008EC000008CC000008AC00000A8C700006D
:1000400086C0000084C0000082C0000080C00000A4
:100050007EC000007CC000007AC0000078C00000B4
:1000600076C0000074C0000072C0000070C00000C4
:100070006EC00000069CFF0901A1010902750895E8
:10008000401580257F8102090375089540150025DC
:10009000FF9102C01201100100000008EB034F2085
:1000A00001000102000109022200010100C0FA0959
:1000B00004000001030000000921110100012220B9
:1000C00000070581034000010403090432036C00AA
:1000D00069006700680074007000610063006B00D5
:1000E0002E0067006F006F0067006C006500630002
:1000F0006F00640065002E0063006F006D0000005B
:1001000014034C006900670068007400700061000F
:1001100063006B00000011241FBECFEFD2E0DEBFF2
:10012000CDBF11E0A0E0B1E0E2EAF3E102C005904A
:100130000D92A431B107D9F711E0A4E1B1E001C0FB
:100140001D92A33BB107E1F788D60C94CF0958CF95
:100150008093E9008091EB0081608093EB00109226
:10016000ED006093EC004093ED008091EE00881F5D
:100170008827881F089580916B0188239CF404C010
:1001800080916A018823B9F08091E80082FFF8CF5E
:100190008091E8008B778093E800089580916A0150
:1001A000882349F08091E80080FFF8CF8091E80033
:1001B0008E778093E80008954091E4005091E50027
:1001C00024E68091EC0080FF05C08091E80080FF6C
:1001D00005C022C08091E80082FD1EC080916A01A6
:1001E000882311F482E00895853011F483E00895A6
:1001F0008091EB0085FF02C081E008958091E400CA
:100200009091E50084179507E1F2222311F484E030
:1002100008952150AC01D5CF80E0089541D043D05E
:100220008091D800982F9F779093D8008068809312
:10023000D80084E089BD89B5826089BD09B400FE1B
:10024000FDCF8091D8008F7D8093D80010926A01F5
:1002500010926801109267011092660180E060E0E0
:1002600042E076DF8091E1008E7F8093E100809113
:10027000E20081608093E2008091E20088608093D8
:10028000E2008091E0008E7F8093E0000895E3E635
:10029000F0E080818E7F808381E080936901BECF12
:1002A0001092E20008951092E10008951F920F92BB
:1002B0000FB60F9211242F933F934F935F936F9339
:1002C0007F938F939F93AF93BF93EF93FF9380910F
:1002D000E10080FF1CC08091E20080FF18C0809187
:1002E000E1008E7F8093E1008091E2008E7F809319
:1002F000E2008091E20080618093E2008091D8006A
:1003000080628093D80019BC10926A012CD780912A
:10031000E10084FF2EC08091E20084FF2AC084E0C7
:1003200089BD89B5826089BD09B400FEFDCF809189
:10033000D8008F7D8093D8008091E1008F7E8093DC
:10034000E1008091E2008F7E8093E2008091E200E4
:1003500081608093E20080916801882331F480916C
:10036000E30087FD02C081E001C084E080936A0160
:10037000F8D68091E10083FF22C08091E20083FFE4
:100380001EC08091E100877F8093E10082E080932E
:100390006A01109268018091E1008E7F8093E100F4
:1003A0008091E2008E7F8093E2008091E200806184
:1003B0008093E20080E060E042E0CADE4BD18091B1
:1003C000E10082FF0AC08091E20082FF06C08091B6
:1003D000E1008B7F8093E100C8D6FF91EF91BF9140
:1003E000AF919F918F917F916F915F914F913F91CD
:1003F0002F910F900FBE0F901F9018950F931F9382
:10040000DF93CF9300D0CDB7DEB7EBE6F1E080917C
:10041000F100819381E0E337F807C9F76DD7809148
:10042000E80083FF02C180916B0130916C0135308F
:1004300009F487C0363040F43130C9F1313070F002
:10044000333009F0F2C033C0383009F4C0C039305D
:1004500009F4CFC0363009F0E8C099C0803821F0E7
:10046000823809F0E2C008C090916601809167016E
:10047000882399F0926011C080916F0187708093FA
:10048000E9008091EB0090E025E0969587952A950C
:10049000E1F7982F91701092E9008091E800877F32
:1004A0008093E8009093F1001092F1009BC08823A4
:1004B00019F0823009F0B9C090E08F719070009708
:1004C00021F0029709F0B1C00CC080916D0181301C
:1004D00009F0ABC010926701333069F58093670172
:1004E0002AC080916D01882331F520916F0127701A
:1004F00009F49BC02093E9008091EB0080FF1BC0B2
:10050000333021F48091EB00806213C08091EB00C6
:1005100080618093EB0081E090E002C0880F991F1A
:100520002A95E2F78093EA001092EA008091EB00AE
:1005300088608093EB001092E9008091E800877F4B
:1005400054C0882309F071C010916D011F770FB757
:10055000F8948091E800877F8093E8000CDE80911A
:10056000E80080FFFCCF112311F482E001C083E09A
:1005700080936A018091E3008078182B1093E30048
:100580008091E30080688093E3000FBF4EC08058E5
:10059000823008F04AC080916D0190916E016091A7
:1005A0006F01AE014F5F5F4F17D5BC01009709F493
:1005B0003CC08091E800877F8093E80089819A8120
:1005C000A8D08091E8008B778093E8002EC0803817
:1005D00061F58091E800877F8093E8008091680151
:1005E0008093F1008091E8008E778093E800C3DD6E
:1005F0001CC08823D1F490916D019230B0F48091A9
:10060000E800877F8093E80090936801B4DD8091D3
:100610006801882331F48091E30087FD02C081E006
:1006200001C084E080936A016AD68091E80083FF6C
:100630000AC08091EB0080628093EB008091E8001B
:10064000877F8093E8000F900F90CF91DF911F91EB
:100650000F91089508959C0140917101509172018C
:100660004617570718F4F90190E03DC06115710570
:1006700011F0AB01F8CF8091E8008E778093E8000D
:1006800040E050E0F0CF80916A018823F1F185309D
:10069000F1F18091E80083FF02C081E0089580912C
:1006A000E80082FD2CC08091E80080FF1CC0809192
:1006B000F200282F30E007C081918093F100415073
:1006C00050402F5F3F4F4115510519F0283031053B
:1006D00098F390E02830310509F491E08091E8002A
:1006E0008E778093E8004115510569F6992359F6F4
:1006F00006C080916A01882341F0853041F08091E5
:10070000E80082FFF6CF80E0089582E0089583E05C
:1007100008959C014091710150917201461757074D
:1007200010F460E03FC06115710511F0AB01F9CF25
:100730008091E8008E778093E80040E050E0F1CFB0
:1007400080916A01882309F43FC0853009F43EC0D6
:100750008091E80083FF02C081E008958091E80065
:1007600082FD2CC08091E80080FF1CC08091F200C7
:1007700090E009C0F9012F5F3F4FE491E093F10051
:100780004150504001964115510519F088309105AE
:1007900088F360E0089709F461E08091E8008E77C3
:1007A0008093E8004115510559F6662349F606C0C5
:1007B00080916A01882341F0853041F08091E80002
:1007C00082FFF6CF80E0089582E0089583E00895E7
:1007D0009C016115710529F48091E8008B77809365
:1007E000E800F90120C080916A01882361F1853019
:1007F00061F18091E80083FF02C081E0089580915B
:10080000E80082FFF0CF06C08091F1008193615033
:10081000704021F08091F2008823B1F78091E800C8
:100820008B778093E80061157105E9F606C0809129
:100830006A01882341F0853041F08091E80080FF13
:10084000F6CF80E0089582E0089583E00895DF9276
:10085000EF92FF920F931F93CF93DF93182F092FDF
:10086000EB017A01A9DCD82E882319F5812F902F6E
:100870009C0189011CC08091E80085FD12C0809117
:10088000E8008E778093E800E114F10431F0F7017D
:100890000995813011F485E00DC08EDC882339F094
:1008A00009C0F80181918F018093F1002197209771
:1008B00011F78D2DDF91CF911F910F91FF90EF9048
:1008C000DF9008951F9380916A01882361F0109151
:1008D000E9001092E9008091E80083FF01C08EDDFD
:1008E00017701093E9001F9108954F925F926F92D5
:1008F0007F928F929F92AF92BF92CF92DF92EF92B0
:10090000FF920F931F93DF93CF9300D00F92CDB739
:10091000DEB77C016DB67EB680916A01843009F045
:1009200085C0F70181818093E9008091E80085FF0F
:100930007DC05DB64EB647818DB79EB7841B9109C9
:100940000FB6F8949EBF0FBE8DBF0DB71EB70F5FD9
:100950001F4F19821B821A82C02E912EC80160E09F
:1009600070E050E015D5C701BE016F5F7F4F40E0DA
:1009700098018E010E5F1F4F04D4882EF7018185E8
:100980009285892B19F4AA24BB240BC020E0F7011F
:1009900083859485892B09F021E081E02827A22E08
:1009A000BB24F701058116810115110511F4DD2421
:1009B00012C04A815B818C2D992DB801D3D4DD24DE
:1009C000009711F0DD24D394F7014781C8016C2D05
:1009D000792D50E0D4D48A819B81892BF9F088202D
:1009E00021F4DD2011F4AB28C9F0F701818592854F
:1009F0009487838781818093E9008981882311F01E
:100A00008093F1006A817B818C2D992D40E050E02C
:100A10001EDF8091E8008E778093E800852D942D6D
:100A20009C010FB6F8943EBF0FBE2DBF0FB6F894D1
:100A30007EBE0FBE6DBE0F900F900F90CF91DF91D5
:100A40001F910F91FF90EF90DF90CF90BF90AF90EC
:100A50009F908F907F906F905F904F900895CF936D
:100A6000DF93DC010896FC0185E0EF0119928A957D
:100A7000E9F781E018968C93189784EF91E01A9625
:100A80009C938E93199711963C91119712966D91A4
:100A90007C91139714968C91882311F440E001C047
:100AA00044E020E088E090E003C02F5F880F991FAA
:100AB00086179707D0F342602295207F422B832F21
:100AC00061EC46DB811181E0DF91CF9108956F9257
:100AD0007F928F929F92AF92BF92CF92DF92EF92CE
:100AE000FF920F931F93DF93CF9300D00F92CDB758
:100AF000DEB74C016DB67EB68091E80083FFF8C08A
:100B0000F401808190E020916F01309170012817ED
:100B1000390709F0EDC080916C01833009F498C069
:100B2000843030F4813071F0823009F0E1C0C8C007
:100B30008A3009F4ADC08B3009F497C0893009F0D0
:100B4000D7C04FC080916B01813A09F0D1C0ADB6DA
:100B5000FEB61B821A8280916D0110916E0189830D
:100B6000F40147818DB79EB7841B91090FB6F894A5
:100B70009EBF0FBE8DBFCDB6DEB60894C11CD11C82
:100B8000EC2CBD2CC60160E070E050E001D41150A7
:100B9000C401BE016F5F7F4F412F96018E010E5F32
:100BA0001F4FEFD2F401258136812115310529F03F
:100BB0004781C901B60150E0E2D31092E90080916B
:100BC000E800877F8093E8006A817B818E2D9B2DD2
:100BD00042DD8091E8008B778093E8002A2D3F2D3D
:100BE00031C080916B01813209F082C0AEB60091B4
:100BF000710110917201C0906D01D0906E018DB79E
:100C00009EB7801B910B0FB6F8949EBF0FBE8DBF91
:100C1000EDB6FEB60894E11CF11C8091E800877FD8
:100C20008093E800C701B801D3DD8091E8008E779A
:100C30008093E800DA94C4016C2D4D2D9701B1D258
:100C4000262D3A2D0FB6F8943EBF0FBE2DBF50C0D3
:100C500080916B01813A09F04BC08091E800877F59
:100C60008093E800F40180853BC080916B01813264
:100C700009F03EC08091E800877F8093E8007BDA2E
:100C800090E080916D01811191E0F401908730C076
:100C900080916B01813261F58091E800877F8093BC
:100CA000E80069DA80916D0190916E01807076E0C4
:100CB000969587957A95E1F7F4019287818718C018
:100CC00080916B01813AA1F48091E800877F809345
:100CD000E800F4018185928596958795969587958C
:100CE0008093F1008091E8008E778093E80043DAEA
:100CF0000FB6F8947EBE0FBE6DBE0F900F900F9092
:100D0000CF91DF911F910F91FF90EF90DF90CF90E7
:100D1000BF90AF909F908F907F906F9008959FB7F6
:100D2000F894409114019FBF3FB7F89420911401AB
:100D3000982F90959223909314013FBF8423089598
:100D40008F929F92AF92BF92CF92DF92EF92FF92DB
:100D50000F931F93CF93DF93A09001010DE511E056
:100D600098EEE92E9FEFF92EE00EF11EC5E1D1E0DD
:100D7000812C81E0982EF801D080F7014081C1805C
:100D8000B280DA1438F04883488FC982C98EBA829B
:100D9000BA8E30C080E09D2D6A2D70E0CFD2FB016D
:100DA000D401A61BB70B6881CD0170E0B5D29C01C0
:100DB000CF01642F70E0B0D2280F391F388F6981BE
:100DC000CD0170E0A9D29C01CF016C2D70E0A4D2BE
:100DD000280F391F398F6A81CD0170E09DD29C01A7
:100DE000CF016B2D70E098D2280F391F3A8FD39422
:100DF000F801D0820F5F1F4F83E090E0E80EF91EEC
:100E0000239691E00536190709F0B5CFDF91CF9110
:100E10001F910F91FF90EF90DF90CF90BF90AF9018
:100E20009F908F900895E5E1F1E0DF01589680836F
:100E3000618342838C93618F428F58968C9358972D
:100E400059966C9359975A964C935A973396139692
:100E500091E0ED32F90759F7089584B7877F84BF91
:100E600088E10FB6F89480936000109260000FBE86
:100E700080E090E020E80FB6F89420936100809322
:100E800061000FBE15B814B818B817B81BB81AB857
:100E9000529A539A32D1109280001092820010928E
:100EA00081008091040190910501909389008093C5
:100EB000880082E080936F0081E08093810010922F
:100EC000850010928400E3D9789422D282E027DF53
:100ED000882321F080E060E040E0A5DF84E01FDFB0
:100EE000882399F380916F008D7F80936F008091AC
:100EF00004019091050190938900809388001092DD
:100F000085001092840082E080936F00DECF909184
:100F1000650180910301981711F5109265015A9AA5
:100F2000109285001092840011D1809100018823D5
:100F300009F006DF8091020190E0A0E0B0E02227F6
:100F4000382F492F5A2F8091840090918500A0E07E
:100F5000B0E082179307A407B507A8F35A985B9AE5
:100F600080910001882319F08DE291E002C085E4B0
:100F700091E060916501CED05B98809165018F5FB3
:100F800080936501109285001092840008951F924D
:100F90000F920FB60F9211242F933F934F935F93AD
:100FA0006F937F938F939F93AF93BF93EF93FF9331
:100FB000AEDF82E086BBFF91EF91BF91AF919F9131
:100FC0008F917F916F915F914F913F912F910F90F2
:100FD0000FBE0F901F901895DA019330B1F0943046
:100FE00028F4913041F0923079F50AC0913211F134
:100FF000923251F524C0E4E9F0E022E130E028C06B
:10100000E6EAF0E022E230E023C0813049F08130AE
:1010100018F08230C9F40AC0E8ECF0E0849103C013
:10102000ECECF0E08491282F30E012C0E0E0F1E039
:101030008491F9CFE8EBF0E029E030E009C0E4E783
:10104000F0E020E230E004C0E0E0F0E020E030E05A
:10105000ED93FC93C90108952C9A289A2C9828980E
:101060000895FC01362F842F2D9829982E982A98C0
:101070002D9A299A2D98299890E063E070E04CD140
:10108000DF01A80FB91F12968C911297381710F430
:101090002E9A01C02E98822F90E063E070E03CD140
:1010A000E80FF91F8281381710F42A9A01C02A9894
:1010B0002D9A299A2D98299811968C911197381765
:1010C00010F42E9A01C02E988181381710F42A9AB4
:1010D00001C02A982D9A299A2D9829988C91381711
:1010E00010F42E9A01C02E988081381710F42A9A95
:1010F00001C02A982D9A299A08952D9829982C98FC
:1011000028982E982A98259A219A249A209A269AE5
:10111000229A0895FF920F931F938C01F62E43E0BD
:1011200027E09FDFC8016F2D42E026E09ADFC8016B
:101130006F2D41E025E095DFC8016F2D40E024E0F0
:1011400090DF8ADF1F910F91FF9008952E982A98C3
:1011500080E02D9829982D9A299A8F5F8031C9F7C0
:101160007BCF5A9A08955A980895809111019091D1
:101170001201009729F001979093120180931101B9
:1011800008950F931F93D801F90184E0818383E0D0
:10119000828380E490E08D939C9381E01F910F9176
:1011A0000895DF92EF92FF920F931F93CF93DF93F7
:1011B000F9018081833009F476C0843030F48130C5
:1011C00071F0823009F090C068C0853009F482C0A7
:1011D000853008F47BC0863009F086C082C05A9AF8
:1011E0009FB7F894809114018860809314019FBF89
:1011F000A5E1B1E08D01E901BD01605D7F4FAD0169
:101200004F5C5F4F20E030E058968C915897F80182
:10121000808359968C91599711968C9311975A9671
:10122000FC905A971296FC9212979981FB01908339
:10123000DA80FA01D082EB80D296EC92D297F80154
:101240008081891739F411968C9111978D1511F4BD
:10125000FE1421F0F901E35AFE4F10822F5F3F4F39
:1012600013960D5F1F4F26966D5F7F4F4D5F5F4F4B
:101270002830310549F69FB7F89480911401877F93
:10128000809314019FBF9FB7F894809114018160EF
:10129000809314019FBF5A9827C09FB7F8948091FC
:1012A000140182600FC0928180E0218130E0822BA6
:1012B000932B90930501809304019FB7F89480913C
:1012C00014018460809314019FBF0EC081818093BC
:1012D00003010AC081818093000181818093010113
:1012E00003C0818180930201DF91CF911F910F9103
:1012F000FF90EF90DF90089586E091E0E8CB86E0E4
:1013000091E0ADDBE2EEF0E08081846080830895BF
:1013100086E091E0EADAD6CA5527002480FF02C0B1
:10132000060E571F660F771F6115710521F0969500
:101330008795009799F7952F802D0895AA1BBB1BC1
:1013400051E107C0AA1FBB1FA617B70710F0A61BC5
:10135000B70B881F991F5A95A9F780959095BC01E6
:10136000CD010895FB01DC0104C08D91019080192D
:1013700021F441505040C8F7881B990B0895FB0198
:10138000DC0102C001900D9241505040D8F7089501
:10139000DC0101C06D9341505040E0F70895F8948E
:0213A000FFCF7D
:1013A20001643280640000014000007301400000CB
:0413B2000000000037
:00000001FF
