:100000008AC00000A4C00000A2C00000A0C0000080
:100010009EC000009CC000009AC0000098C0000074
:1000200096C0000094C0000092C000003FC10000D4
:100030008EC000008AC600008AC0000051C70000C0
:1000400086C0000084C0000082C0000080C00000A4
:100050007EC0000064C600007AC0000078C00000C6
:1000600076C0000074C0000072C0000070C00000C4
:100070006EC00000069CFF0901A1010902750895E8
:10008000401580257F8102090375089540150025DC
:10009000FF9102C01201100100000008EB034F2085
:1000A00001000102000109022200010100C0FA0959
:1000B00004000001030000000921110100012220B9
:1000C00000070581034000010403090432036C00AA
:1000D00069006700680074007000610063006B00D5
:1000E0002E0067006F006F0067006C006500630002
:1000F0006F00640065002E0063006F006D0000005B
:1001000014034C006900670068007400700061000F
:1001100063006B00000011241FBECFEFD2E0DEBFF2
:10012000CDBF11E0A0E0B1E0E2E4F4E102C005904F
:100130000D92A431B107D9F711E0A4E1B1E001C0FB
:100140001D92A53BB107E1F72DD60C941F0A58CF9D
:100150008093E9008091EB0081608093EB00109226
:10016000ED006093EC004093ED008091EE00881F5D
:100170008827881F089580916C0188239CF404C00F
:1001800080916B018823B9F08091E80082FFF8CF5D
:100190008091E8008B778093E800089580916B014F
:1001A000882349F08091E80080FFF8CF8091E80033
:1001B0008E778093E80008954091E4005091E50027
:1001C00024E68091EC0080FF05C08091E80080FF6C
:1001D00005C022C08091E80082FD1EC080916B01A5
:1001E000882311F482E00895853011F483E00895A6
:1001F0008091EB0085FF02C081E008958091E400CA
:100200009091E50084179507E1F2222311F484E030
:1002100008952150AC01D5CF80E0089541D043D05E
:100220008091D800982F9F779093D8008068809312
:10023000D80084E089BD89B5826089BD09B400FE1B
:10024000FDCF8091D8008F7D8093D80010926B01F4
:1002500010926901109268011092670180E060E0DD
:1002600042E076DF8091E1008E7F8093E100809113
:10027000E20081608093E2008091E20088608093D8
:10028000E2008091E0008E7F8093E0000895E3E635
:10029000F0E080818E7F808381E080936A01BECF11
:1002A0001092E20008951092E10008951F920F92BB
:1002B0000FB60F9211242F933F934F935F936F9339
:1002C0007F938F939F93AF93BF93EF93FF9380910F
:1002D000E10080FF1CC08091E20080FF18C0809187
:1002E000E1008E7F8093E1008091E2008E7F809319
:1002F000E2008091E20080618093E2008091D8006A
:1003000080628093D80019BC10926B019FD78091B6
:10031000E10084FF2EC08091E20084FF2AC084E0C7
:1003200089BD89B5826089BD09B400FEFDCF809189
:10033000D8008F7D8093D8008091E1008F7E8093DC
:10034000E1008091E2008F7E8093E2008091E200E4
:1003500081608093E20080916901882331F480916B
:10036000E30087FD02C081E001C084E080936B015F
:100370006CD78091E10083FF22C08091E20083FF6F
:100380001EC08091E100877F8093E10082E080932E
:100390006B01109269018091E1008E7F8093E100F2
:1003A0008091E2008E7F8093E2008091E200806184
:1003B0008093E20080E060E042E0CADE4BD18091B1
:1003C000E10082FF0AC08091E20082FF06C08091B6
:1003D000E1008B7F8093E1003AD7FF91EF91BF91CD
:1003E000AF919F918F917F916F915F914F913F91CD
:1003F0002F910F900FBE0F901F9018950F931F9382
:10040000DF93CF9300D0CDB7DEB7ECE6F1E080917B
:10041000F100819381E0E437F807C9F7BDD78091F7
:10042000E80083FF02C180916C0130916D0135308D
:1004300009F487C0363040F43130C9F1313070F002
:10044000333009F0F2C033C0383009F4C0C039305D
:1004500009F4CFC0363009F0E8C099C0803821F0E7
:10046000823809F0E2C008C090916701809168016C
:10047000882399F0926011C08091700187708093F9
:10048000E9008091EB0090E025E0969587952A950C
:10049000E1F7982F91701092E9008091E800877F32
:1004A0008093E8009093F1001092F1009BC08823A4
:1004B00019F0823009F0B9C090E08F719070009708
:1004C00021F0029709F0B1C00CC080916E0181301B
:1004D00009F0ABC010926801333069F58093680170
:1004E0002AC080916E01882331F520917001277018
:1004F00009F49BC02093E9008091EB0080FF1BC0B2
:10050000333021F48091EB00806213C08091EB00C6
:1005100080618093EB0081E090E002C0880F991F1A
:100520002A95E2F78093EA001092EA008091EB00AE
:1005300088608093EB001092E9008091E800877F4B
:1005400054C0882309F071C010916E011F770FB756
:10055000F8948091E800877F8093E8000CDE80911A
:10056000E80080FFFCCF112311F482E001C083E09A
:1005700080936B018091E3008078182B1093E30047
:100580008091E30080688093E3000FBF4EC08058E5
:10059000823008F04AC080916E0190916F016091A5
:1005A0007001AE014F5F5F4FC0D4BC01009709F4EA
:1005B0003CC08091E800877F8093E80089819A8120
:1005C000A8D08091E8008B778093E8002EC0803817
:1005D00061F58091E800877F8093E8008091690150
:1005E0008093F1008091E8008E778093E800C3DD6E
:1005F0001CC08823D1F490916E019230B0F48091A8
:10060000E800877F8093E80090936901B4DD8091D2
:100610006901882331F48091E30087FD02C081E005
:1006200001C084E080936B01BAD68091E80083FF1B
:100630000AC08091EB0080628093EB008091E8001B
:10064000877F8093E8000F900F90CF91DF911F91EB
:100650000F91089508959C0140917201509173018A
:100660004617570718F4F90190E03DC06115710570
:1006700011F0AB01F8CF8091E8008E778093E8000D
:1006800040E050E0F0CF80916B018823F1F185309C
:10069000F1F18091E80083FF02C081E0089580912C
:1006A000E80082FD2CC08091E80080FF1CC0809192
:1006B000F200282F30E007C081918093F100415073
:1006C00050402F5F3F4F4115510519F0283031053B
:1006D00098F390E02830310509F491E08091E8002A
:1006E0008E778093E8004115510569F6992359F6F4
:1006F00006C080916B01882341F0853041F08091E4
:10070000E80082FFF6CF80E0089582E0089583E05C
:1007100008959C014091720150917301461757074B
:1007200010F460E03FC06115710511F0AB01F9CF25
:100730008091E8008E778093E80040E050E0F1CFB0
:1007400080916B01882309F43FC0853009F43EC0D5
:100750008091E80083FF02C081E008958091E80065
:1007600082FD2CC08091E80080FF1CC08091F200C7
:1007700090E009C0F9012F5F3F4FE491E093F10051
:100780004150504001964115510519F088309105AE
:1007900088F360E0089709F461E08091E8008E77C3
:1007A0008093E8004115510559F6662349F606C0C5
:1007B00080916B01882341F0853041F08091E80001
:1007C00082FFF6CF80E0089582E0089583E00895E7
:1007D0009C016115710529F48091E8008B77809365
:1007E000E800F90120C080916B01882361F1853018
:1007F00061F18091E80083FF02C081E0089580915B
:10080000E80082FFF0CF06C08091F1008193615033
:10081000704021F08091F2008823B1F78091E800C8
:100820008B778093E80061157105E9F606C0809129
:100830006B01882341F0853041F08091E80080FF12
:10084000F6CF80E0089582E0089583E00895DF9276
:10085000EF92FF920F931F93CF93DF93182F092FDF
:10086000EB017A01A9DCD82E882319F5812F902F6E
:100870009C0189011CC08091E80085FD12C0809117
:10088000E8008E778093E800E114F10431F0F7017D
:100890000995813011F485E00DC08EDC882339F094
:1008A00009C0F80181918F018093F1002197209771
:1008B00011F78D2DDF91CF911F910F91FF90EF9048
:1008C000DF9008951F9380916B01882361F0109150
:1008D000E9001092E9008091E80083FF01C08EDDFD
:1008E00017701093E9001F9108954F925F926F92D5
:1008F0007F928F929F92AF92BF92CF92DF92EF92B0
:10090000FF920F931F93DF93CF9300D00F92CDB739
:10091000DEB77C016DB67EB680916B01843009F044
:1009200085C0F70181818093E9008091E80085FF0F
:100930007DC05DB64EB647818DB79EB7841B9109C9
:100940000FB6F8949EBF0FBE8DBF0DB71EB70F5FD9
:100950001F4F19821B821A82C02E912EC80160E09F
:1009600070E050E065D5C701BE016F5F7F4F40E08A
:1009700098018E010E5F1F4F76D4882EF701818576
:100980009285892B19F4AA24BB240BC020E0F7011F
:1009900083859485892B09F021E081E02827A22E08
:1009A000BB24F701058116810115110511F4DD2421
:1009B00012C04A815B818C2D992DB80123D5DD248D
:1009C000009711F0DD24D394F7014781C8016C2D05
:1009D000792D50E024D58A819B81892BF9F08820DC
:1009E00021F4DD2011F4AB28C9F0F701818592854F
:1009F0009487838781818093E9008981882311F01E
:100A00008093F1006A817B818C2D992D40E050E02C
:100A10001EDF8091E8008E778093E800852D942D6D
:100A20009C010FB6F8943EBF0FBE2DBF0FB6F894D1
:100A30007EBE0FBE6DBE0F900F900F90CF91DF91D5
:100A40001F910F91FF90EF90DF90CF90BF90AF90EC
:100A50009F908F907F906F905F904F900895CF936D
:100A6000DF93DC010896FC0185E0EF0119928A957D
:100A7000E9F781E018968C93189784EF91E01A9625
:100A80009C938E93199711963C91119712966D91A4
:100A90007C91139714968C91882311F440E001C047
:100AA00044E020E088E090E003C02F5F880F991FAA
:100AB00086179707D0F342602295207F422B832F21
:100AC00061EC46DB811181E0DF91CF9108956F9257
:100AD0007F928F929F92AF92BF92CF92DF92EF92CE
:100AE000FF920F931F93DF93CF9300D00F92CDB758
:100AF000DEB74C016DB67EB68091E80083FFF8C08A
:100B0000F401808190E020917001309171012817EB
:100B1000390709F0EDC080916D01833009F498C068
:100B2000843030F4813071F0823009F0E1C0C8C007
:100B30008A3009F4ADC08B3009F497C0893009F0D0
:100B4000D7C04FC080916C01813A09F0D1C0ADB6D9
:100B5000FEB61B821A8280916E0110916F0189830B
:100B6000F40147818DB79EB7841B91090FB6F894A5
:100B70009EBF0FBE8DBFCDB6DEB60894C11CD11C82
:100B8000EC2CBD2CC60160E070E050E051D4115057
:100B9000C401BE016F5F7F4F412F96018E010E5F32
:100BA0001F4F61D3F401258136812115310529F0CC
:100BB0004781C901B60150E032D41092E90080911A
:100BC000E800877F8093E8006A817B818E2D9B2DD2
:100BD00042DD8091E8008B778093E8002A2D3F2D3D
:100BE00031C080916C01813209F082C0AEB60091B3
:100BF000720110917301C0906E01D0906F018DB79A
:100C00009EB7801B910B0FB6F8949EBF0FBE8DBF91
:100C1000EDB6FEB60894E11CF11C8091E800877FD8
:100C20008093E800C701B801D3DD8091E8008E779A
:100C30008093E800DA94C4016C2D4D2D970122D3E6
:100C4000262D3A2D0FB6F8943EBF0FBE2DBF50C0D3
:100C500080916C01813A09F04BC08091E800877F58
:100C60008093E800F40180853BC080916C01813263
:100C700009F03EC08091E800877F8093E8007BDA2E
:100C800090E080916E01811191E0F401908730C075
:100C900080916C01813261F58091E800877F8093BB
:100CA000E80069DA80916E0190916F01807076E0C2
:100CB000969587957A95E1F7F4019287818718C018
:100CC00080916C01813AA1F48091E800877F809344
:100CD000E800F4018185928596958795969587958C
:100CE0008093F1008091E8008E778093E80043DAEA
:100CF0000FB6F8947EBE0FBE6DBE0F900F900F9092
:100D0000CF91DF911F910F91FF90EF90DF90CF90E7
:100D1000BF90AF909F908F907F906F9008951F929B
:100D20000F920FB60F9211248F93809115018F5F50
:100D3000809315018F3118F010921501459A8F910B
:100D40000F900FBE0F901F9018951F920F920FB625
:100D50000F9211242F933F934F935F938F939F9301
:100D600030E040EA5FE0459A20E0CA010197F1F7E0
:100D70002F5F2431D1F7459820E0CA010197F1F7A0
:100D80002F5F2431D1F73F5F3A3069F7459A9F9141
:100D90008F915F914F913F912F910F900FBE0F90C8
:100DA0001F9018951F932CE088E190E00FB6F894FF
:100DB000A895809360000FBE209360008091600032
:100DC00080648093600080E090E020E80FB6F894A3
:100DD00020936100809361000FBE15B814B818B855
:100DE00017B81BB81AB83D9A459A2BD130E040E4A9
:100DF00050E068EC70E0459A20E004C0CB01019718
:100E0000F1F72F5F2317D0F3459820E004C0CB0102
:100E10000197F1F72F5F822F90E084179507BCF3BD
:100E20003F5F41505040303431F7459A1092800076
:100E3000109282001092810014BC15BC80910501B3
:100E400090910601909389008093880082E08093BE
:100E50006F0081E080936E008093810084E085BD07
:100E6000109285001092840016BC11DA789412E07A
:100E7000A8959ED28FB7F894209114018FBF9FB789
:100E8000F894809114018D7F809314019FBF21FFFE
:100E900004C080E060E040E00FD18FB7F89420916B
:100EA00014018FBF9FB7F894809114018B7F8093BA
:100EB00014019FBF22FFDCCF80916F008D7F809354
:100EC0006F008091050190910601909389008093B5
:100ED0008800109285001092840010936F00C8CF94
:100EE0001F920F920FB60F9211242F933F934F939F
:100EF0005F936F937F938F939F93AF93BF93EF9382
:100F0000FF9367D182E086BBFF91EF91BF91AF91D4
:100F10009F918F917F916F915F914F913F912F9111
:100F20000F900FBE0F901F901895DA019330B1F01B
:100F3000943028F4913041F0923079F50AC0913222
:100F400011F1923251F524C0E4E9F0E022E130E001
:100F500028C0E6EAF0E022E230E023C0813049F028
:100F6000813018F08230C9F40AC0E8ECF0E08491D6
:100F700003C0ECECF0E08491282F30E012C0E0E0F8
:100F8000F1E08491F9CFE8EBF0E029E030E009C02E
:100F9000E4E7F0E020E230E004C0E0E0F0E020E050
:100FA00030E0ED93FC93C9010895FC01362F842FA6
:100FB0002D9829982E982A982D9A299A2D98299813
:100FC00090E063E070E0F8D1DF01A80FB91F12963E
:100FD0008C911297381710F42E9A01C02E98822FF8
:100FE00090E063E070E0E8D1E80FF91F82813817E4
:100FF00010F42A9A01C02A982D9A299A2D98299896
:1010000011968C911197381710F42E9A01C02E98D2
:101010008181381710F42A9A01C02A982D9A299AAA
:101020002D9829988C91381710F42E9A01C02E987B
:101030008081381710F42A9A01C02A982D9A299A8B
:1010400008952D9829982C9828982E982A98259AB2
:10105000219A249A209A269A229A0895FF920F9311
:101060001F938C01F62E43E027E09FDFC8016F2D10
:1010700042E026E09ADFC8016F2D41E025E095DFD0
:10108000C8016F2D40E024E090DF2C9A289A2C981C
:1010900028981F910F91FF9008952E982A9880E02C
:1010A0002D9829982D9A299A8F5F8031C9F72C9A0B
:1010B000289A2C9828980895E6E1F1E0DF015896E7
:1010C0008083618342838C93618F428F58968C9387
:1010D000589759966C9359975A964C935A973396BA
:1010E000139691E0EE32F90759F708958F929F9287
:1010F000AF92BF92CF92DF92EF92FF920F931F9326
:10110000CF93DF93A09002010EE511E098EEE92E57
:101110009FEFF92EE00EF11EC6E1D1E0812C81E0B7
:10112000982EF801D080F7014081C180B280DA1496
:1011300038F04883488FC982C98EBA82BA8E30C0CF
:1011400080E09D2D6A2D70E049D1FB01D401A61BE2
:10115000B70B6881CD0170E02FD19C01CF01642FC6
:1011600070E02AD1280F391F388F6981CD0170E0D6
:1011700023D19C01CF016C2D70E01ED1280F391FA7
:10118000398F6A81CD0170E017D19C01CF016B2DA1
:1011900070E012D1280F391F3A8FD394F801D08212
:1011A0000F5F1F4F83E090E0E80EF91E239691E059
:1011B0000636190709F0B5CFDF91CF911F910F9136
:1011C000FF90EF90DF90CF90BF90AF909F908F9067
:1011D00008959091660180910401981701F510928D
:1011E0006601109285001092840057DF8091010102
:1011F000882309F07BDF8091030190E0A0E0B0E05C
:101200002227382F492F5A2F8091840090918500F2
:10121000A0E0B0E082179307A407B507A8F3809178
:101220000101882319F08EE291E002C086E491E08A
:101230006091660113DF809166018F5F8093660184
:101240001092850010928400089508950895809169
:10125000120190911301009729F0019790931301C7
:101260008093120108950F931F93D801F90184E030
:101270008183828380E490E08D939C9381E01F9131
:101280000F9108950F931F93CF93DF93359AF90130
:101290008081833009F45DC0843030F4813071F096
:1012A000823009F074C04CC0853009F466C08530C6
:1012B00008F45FC0863009F06AC066C09FB7F89432
:1012C000809114018860809314019FBFE6E1F1E0F2
:1012D000E9018F01005D1F4F2EE531E0808D808395
:1012E000818D8183628D62839981D8019C935A811B
:1012F00011965C9311974B8112964C9380818917BC
:1013000029F48181851711F4641711F0D9011C9219
:10131000339626960D5F1F4F2F5F3F4FB1E0EE32A1
:10132000FB07E1F69FB7F89480911401877F8093C3
:1013300014019FBF9FB7F89480911401816005C08C
:101340009FB7F894809114018260809314019FBF2D
:101350001EC0928180E0218130E0822B932B9093FC
:101360000601809305019FB7F89480911401846071
:10137000ECCF8181809304010AC0818180930101B7
:1013800081818093020103C0818180930301DF91F9
:10139000CF911F910F91089587E091E098CB87E05E
:1013A00091E05DDBE2EEF0E080818460808308956F
:1013B00087E091E09ADA86CA5527002480FF02C0B0
:1013C000060E571F660F771F6115710521F0969560
:1013D0008795009799F7952F802D0895AA1BBB1B21
:1013E00051E107C0AA1FBB1FA617B70710F0A61B25
:1013F000B70B881F991F5A95A9F780959095BC0146
:10140000CD010895FB01DC0104C08D91019080198C
:1014100021F441505040C8F7881B990B0895FB01F7
:10142000DC0102C001900D9241505040D8F7089560
:10143000DC0101C06D9341505040E0F70895F894ED
:02144000FFCFDC
:101442001E0164328064000001400000750140000A
:041452000000000096
:00000001FF
