:100000008AC00000A4C00000A2C00000A0C0000080
:100010009EC000009CC000009AC0000098C0000074
:1000200096C0000094C0000092C000003FC10000D4
:100030008EC000008BC600008AC0000052C70000BE
:1000400086C0000084C0000082C0000080C00000A4
:100050007EC0000065C600007AC0000078C00000C5
:1000600076C0000074C0000072C0000070C00000C4
:100070006EC00000069CFF0901A1010902750895E8
:10008000401580257F8102090375089540150025DC
:10009000FF9102C01201100100000008EB034F2085
:1000A00001000102000109022200010100C0FA0959
:1000B00004000001030000000921110100012220B9
:1000C00000070581034000010403090432036C00AA
:1000D00069006700680074007000610063006B00D5
:1000E0002E0067006F006F0067006C006500630002
:1000F0006F00640065002E0063006F006D0000005B
:1001000014034C006900670068007400700061000F
:1001100063006B00000011241FBECFEFD2E0DEBFF2
:10012000CDBF11E0A0E0B1E0E4E0F6E102C005904F
:100130000D92A431B107D9F712E0A4E1B1E001C0FA
:100140001D92A232B107E1F72ED60C94000B58CFC6
:100150008093E9008091EB0081608093EB00109226
:10016000ED006093EC004093ED008091EE00881F5D
:100170008827881F08958091D90188239CF404C0A2
:100180008091D8018823B9F08091E80082FFF8CFF0
:100190008091E8008B778093E80008958091D801E2
:1001A000882349F08091E80080FFF8CF8091E80033
:1001B0008E778093E80008954091E4005091E50027
:1001C00024E68091EC0080FF05C08091E80080FF6C
:1001D00005C022C08091E80082FD1EC08091D80138
:1001E000882311F482E00895853011F483E00895A6
:1001F0008091EB0085FF02C081E008958091E400CA
:100200009091E50084179507E1F2222311F484E030
:1002100008952150AC01D5CF80E0089541D043D05E
:100220008091D800982F9F779093D8008068809312
:10023000D80084E089BD89B5826089BD09B400FE1B
:10024000FDCF8091D8008F7D8093D8001092D80187
:100250001092D6011092D5011092D40180E060E096
:1002600042E076DF8091E1008E7F8093E100809113
:10027000E20081608093E2008091E20088608093D8
:10028000E2008091E0008E7F8093E0000895E3E635
:10029000F0E080818E7F808381E08093D701BECFA4
:1002A0001092E20008951092E10008951F920F92BB
:1002B0000FB60F9211242F933F934F935F936F9339
:1002C0007F938F939F93AF93BF93EF93FF9380910F
:1002D000E10080FF1CC08091E20080FF18C0809187
:1002E000E1008E7F8093E1008091E2008E7F809319
:1002F000E2008091E20080618093E2008091D8006A
:1003000080628093D80019BC1092D801F0D78091F8
:10031000E10084FF2EC08091E20084FF2AC084E0C7
:1003200089BD89B5826089BD09B400FEFDCF809189
:10033000D8008F7D8093D8008091E1008F7E8093DC
:10034000E1008091E2008F7E8093E2008091E200E4
:1003500081608093E2008091D601882331F48091FE
:10036000E30087FD02C081E001C084E08093D801F2
:10037000BDD78091E10083FF22C08091E20083FF1E
:100380001EC08091E100877F8093E10082E080932E
:10039000D8011092D6018091E1008E7F8093E10018
:1003A0008091E2008E7F8093E2008091E200806184
:1003B0008093E20080E060E042E0CADE4CD18091B0
:1003C000E10082FF0AC08091E20082FF06C08091B6
:1003D000E1008B7F8093E1008BD7FF91EF91BF917C
:1003E000AF919F918F917F916F915F914F913F91CD
:1003F0002F910F900FBE0F901F9018950F931F9382
:10040000DF93CF9300D0CDB7DEB7E9EDF1E0809177
:10041000F100819381E0E13EF807C9F70E94980A54
:100420008091E80083FF02C18091D9013091DA0107
:10043000353009F487C0363040F43130C9F13130FD
:1004400070F0333009F0F2C033C0383009F4C0C066
:10045000393009F4CFC0363009F0E8C099C080388F
:1004600021F0823809F0E2C008C09091D401809157
:10047000D501882399F0926011C08091DD018770C9
:100480008093E9008091EB0090E025E096958795B8
:100490002A95E1F7982F91701092E9008091E80079
:1004A000877F8093E8009093F1001092F1009BC049
:1004B000882319F0823009F0B9C090E08F719070F4
:1004C000009721F0029709F0B1C00CC08091DB01C8
:1004D000813009F0ABC01092D501333069F58093BB
:1004E000D5012AC08091DB01882331F52091DD01FF
:1004F000277009F49BC02093E9008091EB0080FFF6
:100500001BC0333021F48091EB00806213C08091D6
:10051000EB0080618093EB0081E090E002C0880FE7
:10052000991F2A95E2F78093EA001092EA008091E1
:10053000EB0088608093EB001092E9008091E80066
:10054000877F54C0882309F071C01091DB011F77A9
:100550000FB7F8948091E800877F8093E8000BDE66
:100560008091E80080FFFCCF112311F482E001C0EC
:1005700083E08093D8018091E3008078182B10935A
:10058000E3008091E30080688093E3000FBF4EC0DA
:100590008058823008F04AC08091DB019091DC01E4
:1005A0006091DD01AE014F5F5F4FC0D4BC01009789
:1005B00009F43CC08091E800877F8093E80089813E
:1005C0009A81A8D08091E8008B778093E8002EC0B4
:1005D000803861F58091E800877F8093E800809102
:1005E000D6018093F1008091E8008E778093E80037
:1005F000C2DD1CC08823D1F49091DB019230B0F4AD
:100600008091E800877F8093E8009093D601B3DD66
:100610008091D601882331F48091E30087FD02C0E8
:1006200081E001C084E08093D80185D78091E80003
:1006300083FF0AC08091EB0080628093EB00809181
:10064000E800877F8093E8000F900F90CF91DF91B3
:100650001F910F91089508959C014091DF015091E1
:10066000E0014617570718F4F90190E03DC0611505
:10067000710511F0AB01F8CF8091E8008E7780937F
:10068000E80040E050E0F0CF8091D8018823F1F1FC
:100690008530F1F18091E80083FF02C081E0089588
:1006A0008091E80082FD2CC08091E80080FF1CC092
:1006B0008091F200282F30E007C081918093F100F3
:1006C000415050402F5F3F4F4115510519F02830E0
:1006D000310598F390E02830310509F491E08091DC
:1006E000E8008E778093E8004115510569F699235B
:1006F00059F606C08091D801882341F0853041F039
:100700008091E80082FFF6CF80E0089582E00895AE
:1007100083E008959C014091DF015091E00146176C
:10072000570710F460E03FC06115710511F0AB018F
:10073000F9CF8091E8008E778093E80040E050E0A8
:10074000F1CF8091D801882309F43FC0853009F4A6
:100750003EC08091E80083FF02C081E0089580914F
:10076000E80082FD2CC08091E80080FF1CC08091D1
:10077000F20090E009C0F9012F5F3F4FE491E09350
:10078000F1004150504001964115510519F0883053
:10079000910588F360E0089709F461E08091E80032
:1007A0008E778093E8004115510559F6662349F686
:1007B00006C08091D801882341F0853041F08091B6
:1007C000E80082FFF6CF80E0089582E0089583E09C
:1007D00008959C016115710529F48091E8008B77DB
:1007E0008093E800F90120C08091D801882361F14D
:1007F000853061F18091E80083FF02C081E00895B7
:100800008091E80082FFF0CF06C08091F1008193D3
:100810006150704021F08091F2008823B1F78091FF
:10082000E8008B778093E80061157105E9F606C052
:100830008091D801882341F0853041F08091E80013
:1008400080FFF6CF80E0089582E0089583E0089568
:10085000DF92EF92FF920F931F93CF93DF93182FA6
:10086000092FEB017A01A8DCD82E882319F5812FF6
:10087000902F9C0189011CC08091E80085FD12C069
:100880008091E8008E778093E800E114F10431F064
:10089000F7010995813011F485E00DC08DDC8823C6
:1008A00039F009C0F80181918F018093F1002197FF
:1008B000209711F78D2DDF91CF911F910F91FF9010
:1008C000EF90DF9008951F938091D801882361F005
:1008D0001091E9001092E9008091E80083FF01C0C7
:1008E0008DDD17701093E9001F9108954F925F926C
:1008F0006F927F928F929F92AF92BF92CF92DF9230
:10090000EF92FF920F931F93DF93CF9300D00F923C
:10091000CDB7DEB77C016DB67EB68091D80184304C
:1009200009F085C0F70181818093E9008091E8009A
:1009300085FF7DC05DB64EB647818DB79EB7841BDF
:1009400091090FB6F8949EBF0FBE8DBF0DB71EB7AD
:100950000F5F1F4F19821B821A82C02E912EC80171
:1009600060E070E050E045D6C701BE016F5F7F4F89
:1009700040E098018E010E5F1F4FC6D4882EF7010C
:1009800081859285892B19F4AA24BB240BC020E011
:10099000F70183859485892B09F021E081E02827E0
:1009A000A22EBB24F701058116810115110511F452
:1009B000DD2412C04A815B818C2D992DB80103D6AC
:1009C000DD24009711F0DD24D394F7014781C8019D
:1009D0006C2D792D50E004D68A819B81892BF9F00A
:1009E000882021F4DD2011F4AB28C9F0F7018185BE
:1009F00092859487838781818093E9008981882308
:100A000011F08093F1006A817B818C2D992D40E05B
:100A100050E01EDF8091E8008E778093E800852DFE
:100A2000942D9C010FB6F8943EBF0FBE2DBF0FB69C
:100A3000F8947EBE0FBE6DBE0F900F900F90CF91B9
:100A4000DF911F910F91FF90EF90DF90CF90BF90BB
:100A5000AF909F908F907F906F905F904F90089590
:100A6000CF93DF93DC010896FC0185E0EF0119923A
:100A70008A95E9F781E018968C93189784EF91E0B6
:100A80001A969C938E93199711963C9111971296F2
:100A90006D917C91139714968C91882311F440E00A
:100AA00001C044E020E088E090E003C02F5F880FA1
:100AB000991F86179707D0F342602295207F422B1B
:100AC000832F61EC45DB811181E0DF91CF910895A7
:100AD0006F927F928F929F92AF92BF92CF92DF924E
:100AE000EF92FF920F931F93DF93CF9300D00F925B
:100AF000CDB7DEB74C016DB67EB68091E80083FFBE
:100B0000F8C0F401808190E02091DD013091DE0198
:100B10002817390709F0EDC08091DA01833009F414
:100B200098C0843030F4813071F0823009F0E1C037
:100B3000C8C08A3009F4ADC08B3009F497C0893041
:100B400009F0D7C04FC08091D901813A09F0D1C0D6
:100B5000ADB6FEB61B821A828091DB011091DC01DA
:100B60008983F40147818DB79EB7841B91090FB625
:100B7000F8949EBF0FBE8DBFCDB6DEB60894C11CE3
:100B8000D11CEC2CBD2CC60160E070E050E031D5EA
:100B90001150C401BE016F5F7F4F412F96018E013E
:100BA0000E5F1F4FB1D3F401258136812115310528
:100BB00029F04781C901B60150E012D51092E90031
:100BC0008091E800877F8093E8006A817B818E2D89
:100BD0009B2D42DD8091E8008B778093E8002A2DE1
:100BE0003F2D31C08091D901813209F082C0AEB66B
:100BF0000091DF011091E001C090DB01D090DC0199
:100C00008DB79EB7801B910B0FB6F8949EBF0FBE99
:100C10008DBFEDB6FEB60894E11CF11C8091E80092
:100C2000877F8093E800C701B801D3DD8091E80099
:100C30008E778093E800DA94C4016C2D4D2D9701D6
:100C400073D3262D3A2D0FB6F8943EBF0FBE2DBF9D
:100C500050C08091D901813A09F04BC08091E800E1
:100C6000877F8093E800F40180853BC08091D901A3
:100C7000813209F03EC08091E800877F8093E800D0
:100C80007ADA90E08091DB01811191E0F4019087A4
:100C900030C08091D901813261F58091E800877F71
:100CA0008093E80068DA8091DB019091DC0180702C
:100CB00076E0969587957A95E1F7F401928781879A
:100CC00018C08091D901813AA1F48091E800877F12
:100CD0008093E800F4018185928596958795969595
:100CE00087958093F1008091E8008E778093E800EB
:100CF00042DA0FB6F8947EBE0FBE6DBE0F900F9015
:100D00000F90CF91DF911F910F91FF90EF90DF90A7
:100D1000CF90BF90AF909F908F907F906F900895ED
:100D20001F920F920FB60F9211248F93809115018D
:100D30008F5F809315018F3118F010921501459A3D
:100D40008F910F900FBE0F901F9018951F920F92CA
:100D50000FB60F9211242F933F934F935F938F936E
:100D60009F9330E040EA5FE0459A20E0CA01019796
:100D7000F1F72F5F2431D1F7459820E0CA010197A0
:100D8000F1F72F5F2431D1F73F5F3A3069F7459A89
:100D90009F918F915F914F913F912F910F900FBE37
:100DA0000F901F9018951F932CE088E190E00FB6EC
:100DB000F894A895809360000FBE20936000809106
:100DC000600080648093600080E090E020E80FB6CF
:100DD000F89420936100809361000FBE15B814B899
:100DE00018B817B81BB81AB83D9A459A36D130E0F2
:100DF00040E450E068EC70E0459A20E004C0CB018C
:100E00000197F1F72F5F2317D0F3459820E004C036
:100E1000CB010197F1F72F5F822F90E084179507A0
:100E2000BCF33F5F41505040303431F7459A109247
:100E30008000109282001092810014BC15BC809139
:100E4000050190910601909389008093880082E0CB
:100E500080936F0081E080936E008093810084E036
:100E600085BD109285001092840016BC10DA78942B
:100E700012E0A89569D38FB7F894209114018FBF21
:100E80009FB7F894809114018D7F809314019FBFC8
:100E900021FF04C080E060E040E0E6D08FB7F89426
:100EA000209114018FBF9FB7F894809114018B7F1C
:100EB000809314019FBF22FFDCCF80916F008D7F54
:100EC00080936F00809105019091060190938900B5
:100ED00080938800109285001092840010936F0018
:100EE000C8CF1F920F920FB60F9211242F933F93EA
:100EF0004F935F936F937F938F939F93AF93BF9322
:100F0000EF93FF93E8D182E086BBFF91EF91BF9111
:100F1000AF919F918F917F916F915F914F913F9191
:100F20002F910F900FBE0F901F901895DA019330FC
:100F3000B1F0943028F4913041F0923079F50AC044
:100F4000913211F1923251F524C0E4E9F0E022E14E
:100F500030E028C0E6EAF0E022E230E023C0813051
:100F600049F0813018F08230C9F40AC0E8ECF0E0B2
:100F7000849103C0ECECF0E08491282F30E012C0A3
:100F8000E0E0F1E08491F9CFE8EBF0E029E030E037
:100F900009C0E4E7F0E020E230E004C0E0E0F0E087
:100FA00020E030E0ED93FC93C9010895BC012A983C
:100FB00040E058E020E030E0CA0186239723892BE7
:100FC00011F02A9A01C02A98299A2998569547958E
:100FD0002F5F3F4F2C30310579F70895EF92FF9244
:100FE0001F93CF93DF937C0180E090E0DFDFE70188
:100FF0006E9615E08C819D81D9DF8A819B81D6DF39
:1010000088819981D3DF1F5F26961A3099F780E097
:1010100090E0CCDFE70110E08C819D81C7DF8A8101
:101020009B81C4DF88819981C1DF1F5F26961530BF
:1010300099F7289A2898DF91CF911F91FF90EF9010
:1010400008951F9310E080E090E0B0DF1F5F103143
:10105000D1F7289A28981F910895219A229A209AC8
:10106000289829982A98EDCFCF93DF93E6E1F1E015
:10107000EF01EC96AEE8B1E08083118262831382C7
:1010800044831582888319826A831B824C831D8264
:101090008C9311961C92119712966C93129713963B
:1010A0001C92139714964C93149715961C921597AF
:1010B00036962696169691E0E235F907E9F6DF9125
:1010C000CF9108952F923F924F925F926F92AF927D
:1010D000BF92CF92DF92EF92FF920F931F93DF9315
:1010E000CF93CDB7DEB763970FB6F894DEBF0FBED0
:1010F000CDBF209102012D87822F90E0A0E0B0E0CB
:1011000089879A87AB87BC87AAECB1E0BC83AB83A5
:10111000DC97BA83A983E6E1F1E0FB8BEA8B4CE331
:10112000442E512C4E0E5F1EAB81BC816C90E98128
:10113000FA8120803180828193819F878E87A4816C
:10114000B581B98BA88BBD856B16B8F0EA89FB8990
:1011500031822082D20111963C922E929383828317
:1011600013969C938E93129788899989958384838B
:1011700015969C938E9314977FC0662D70E080E047
:1011800090E0CB017727662729853A854B855C85DA
:10119000F8D159016A0180E090E0A1E0B0E08A193D
:1011A0009B09AC09BD098D839E83AF83B887AA894B
:1011B000BB892D913C9140E050E06D817E818F8113
:1011C0009885C6D17B018C01910140E050E0C601B9
:1011D000B501BED1E60EF71E081F191F78010027C2
:1011E0001127F201F182E082AA89BB8912962D9122
:1011F0003C91139740E050E06D817E818F8198850E
:10120000A7D17B018C01EE85FF859F0140E050E076
:10121000C601B5019DD1E60EF71E081F191F780102
:1012200000271127D2011396FC92EE921297EA89B9
:10123000FB892481358140E050E06D817E818F8182
:10124000988586D17B018C01888999899C0140E031
:1012500050E0C601B5017CD1E60EF71E081F191F2C
:10126000780100271127D2011596FC92EE9214976F
:101270006394EB81FC8160828B819C8101969C83CD
:101280008B83A981BA811696BA83A983EA89FB89DF
:101290003696FB8BEA8B86E090E0480E591EAB81B8
:1012A000BC81A45DB14009F03FCF63960FB6F894BE
:1012B000DEBF0FBECDBFCF91DF911F910F91FF9089
:1012C000EF90DF90CF90BF90AF906F905F904F9076
:1012D0003F902F900895F6DE80910101882319F048
:1012E00082E591E002C08EE891E078CE08950895FD
:1012F0008091120190911301009729F0019790932A
:1013000013018093120108950F931F93D801F901DF
:1013100086E0818381E0828380E490E08D939C93DA
:1013200081E01F910F9108954F925F926F927F928B
:101330008F929F92AF92BF92CF92DF92EF92FF92E5
:101340000F931F93CF93DF93359AF90180818330F8
:1013500009F4BFC0843030F4813071F0823009F07C
:10136000D6C0AEC0853009F4C8C0853008F4C1C00D
:10137000863009F0CCC0C8C09FB7F89480911401A2
:101380008860809314019FBFA6E1B1E04D01E9019F
:101390007EE8A72E71E0B72E60E9C62E61E0D62E5A
:1013A00052E9E52E51E0F52E00E010E0DC968D913B
:1013B0009C91DD97F40191838083DE968D919C91C1
:1013C000DF9713969C938E931297A05CBF4F6D90FE
:1013D0007C901197A054B04015967C926E92149711
:1013E000898190E044E0880F991F4A95E1F7F50163
:1013F000918380834A8150E034E0440F551F3A9531
:10140000E1F7F601518340836B8170E024E0660FC1
:10141000771F2A95E1F7F701718360832C8130E013
:101420002F703070282B392BF501318320838D816B
:10143000482E5524FFE04F225524442A552AF60110
:10144000518240828E81482F50E04F705070462B61
:10145000572BF70151834083F401808191818217DA
:10146000930751F412968D919C91139784159505CD
:1014700019F46416750621F0F801E653FE4F108248
:101480000F5F1F4F169686E090E0880E991E2696F5
:10149000A80EB91EC80ED91EE80EF91E0A30110595
:1014A00009F084CF9FB7F89480911401877F8093CF
:1014B00014019FBF9FB7F89480911401816005C00B
:1014C0009FB7F894809114018260809314019FBFAC
:1014D0001EC0928180E0218130E0822B932B90937B
:1014E0000601809305019FB7F894809114018460F0
:1014F000ECCF8181809304010AC081818093010136
:1015000081818093020103C0818180930301DF9177
:10151000CF911F910F91FF90EF90DF90CF90BF90F0
:10152000AF909F908F907F906F905F904F900895B5
:1015300087E091E0CDCA87E091E092DAE2EEF0E058
:10154000808184608083089587E091E0CFD9BBC912
:10155000FF27EE27BB27AA2760FF04C0A20FB31FF7
:10156000E41FF51F220F331F441F551F96958795C3
:101570007795679589F70097760771F7CF01BD01D9
:101580000895A1E21A2EAA1BBB1BFD010DC0AA1FC4
:10159000BB1FEE1FFF1FA217B307E407F50720F0DC
:1015A000A21BB30BE40BF50B661F771F881F991F57
:1015B0001A9469F760957095809590959B01AC01A0
:1015C000BD01CF010895FB01DC0104C08D910190A4
:1015D000801921F441505040C8F7881B990B089599
:1015E000FB01DC0102C001900D9241505040D8F740
:1015F0000895DC0101C06D9341505040E0F708951B
:04160000F894FFCF8C
:101604001E0164328064000001400000E2014000D9
:0416140000000000D2
:00000001FF
