:1000000094C00000AEC00000ACC00000AAC0000058
:10001000A8C00000A6C00000A4C00000A2C000004C
:10002000A0C000009EC000009CC0000048C10000AD
:1000300098C0000070C6000094C0000030C60000E8
:1000400090C000008EC000008CC000008AC000007C
:1000500088C0000049C6000084C0000082C00000C3
:1000600080C000007EC000007CC000007AC000009C
:1000700078C000002B024D0202034D0202038F02E2
:10008000B4020203D402E60214034C0069006700C4
:10009000680074007000610063006B0000003203B0
:1000A0006C00690067006800740070006100630004
:1000B0006B002E0067006F006F0067006C0065002A
:1000C00063006F00640065002E0063006F006D0028
:1000D00000000403090409022200010100C0FA091A
:1000E0000400000103000000092111010001222089
:1000F0000007058103400001120110010000000803
:10010000501D2260010001020001069CFF0901A1AF
:10011000010902750895401580257F810209037544
:10012000089540150025FF9102C011241FBECFEF96
:10013000D2E0DEBFCDBF11E0A0E0B1E0E4E6F6E141
:1001400002C005900D92A431B107D9F712E0A4E1E5
:10015000B1E001C01D92A232B107E1F7FAD50C94CB
:10016000300B4ECF8093E900EBEEF0E080818160B0
:100170008083EDEEF0E010826093EC00408380918C
:10018000EE00881F8827881F08958091D90187FD78
:1001900005C08091E80080FF0EC012C08091E80089
:1001A00082FD05C08091D8018111F8CF089580911A
:1001B000E8008B7708C08091D8018111EACF0895BB
:1001C0008091E8008E778093E80008958091E400A4
:1001D0009091E50045E62091EC0020FF05C02091BC
:1001E000E80020FF05C019C02091E80022FD15C0DD
:1001F0002091D801222399F0253099F02091EB002D
:1002000025FD11C02091E4003091E5002817390741
:1002100011F3415051F0C901DECF80E0089582E032
:10022000089583E0089581E0089584E0089541D021
:1002300043D08091D800982F9F779093D800806802
:100240008093D80084E089BD89B5826089BD09B4F6
:1002500000FEFDCF8091D8008F7D8093D800109252
:10026000D8011092D6011092D5011092D40142E02B
:1002700060E080E077DF8091E1008E7F8093E10095
:100280008091E20081608093E2008091E2008860CA
:100290008093E2008091E0008E7F8093E0000895DB
:1002A000E3E6F0E080818E7F808381E08093D70158
:1002B000BECF1092E20008951092E10008951F92BF
:1002C0000F920FB60F9211242F933F934F935F938A
:1002D0006F937F938F939F93AF93BF93EF93FF930E
:1002E0008091E10080FF1CC08091E20080FF18C077
:1002F0008091E1008E7F8093E1008091E2008E7F0B
:100300008093E2008091E20080618093E20080911E
:10031000D80080628093D80019BC1092D801C0D751
:100320008091E10084FF2EC08091E20084FF2AC00A
:1003300084E089BD89B5826089BD09B400FEFDCF26
:100340008091D8008F7D8093D8008091E1008F7ECE
:100350008093E1008091E2008F7E8093E2008091A3
:10036000E20081608093E2008091D601811104C097
:100370008091E30087FF02C084E001C081E08093A8
:10038000D8018DD78091E10083FF22C08091E200E7
:1003900083FF1EC08091E100877F8093E10082E0AF
:1003A0008093D8011092D6018091E1008E7F8093D6
:1003B000E1008091E2008E7F8093E2008091E20074
:1003C00080618093E20042E060E080E0CBDE2FD1EC
:1003D0008091E10082FF0AC08091E20082FF06C0A6
:1003E0008091E1008B7F8093E10067D7FF91EF91CF
:1003F000BF91AF919F918F917F916F915F914F913D
:100400003F912F910F900FBE0F901F9018950F9353
:100410001F93CF93DF9300D0CDB7DEB7E9EDF1E0C6
:100420008091F100819381E0E13EF807C9F742D75E
:100430008091E80083FFE6C02091D9013091DA0174
:10044000832F90E08A30910508F0DCC0FC01E65C67
:10045000FF4F0C94DF0A203881F0223809F0D2C017
:100460008091DD0187708093E9008091EB0085FB2E
:10047000882780F91092E90006C08091D4019091FC
:10048000D501911182609091E800977F9093E800E8
:100490008093F1001092F10092C0822F8D7F09F0BD
:1004A000B1C0222319F0223061F0ACC08091DB0191
:1004B000813009F0A7C0333009F080E08093D50186
:1004C00028C08091DB01811124C02091DD012770BB
:1004D00009F498C02093E9008091EB0080FF19C0D7
:1004E0008091EB00333011F4806211C08061809301
:1004F000EB0081E090E0022E01C0880F0A94EAF739
:100500008093EA001092EA008091EB00886080936B
:10051000EB001092E9008091E800877F53C0211121
:1005200071C01091DB011F770FB7F8948091E8003C
:10053000877F8093E80029DE8091E80080FFFCCF70
:10054000112311F083E001C082E08093D8018091F3
:10055000E3008078812B8093E3008091E300806842
:100560008093E3000FBF4EC02058223008F04AC0ED
:10057000AE014F5F5F4F6091DD018091DB01909193
:10058000DC0187D4009709F43DC02091E800277F63
:100590002093E800BC0189819A81DAD08091E8003B
:1005A0008B778093E8002EC0203861F58091E800B9
:1005B000877F8093E8008091D6018093F10080913D
:1005C000E8008E778093E800E0DD1CC021111AC09E
:1005D0009091DB019230B0F48091E800877F8093A6
:1005E000E8009093D601D1DD8091D601811104C03D
:1005F0008091E30087FF02C084E001C081E0809326
:10060000D8014FD68091E80083FF0AC08091EB00AB
:1006100080628093EB008091E800877F8093E80000
:100620000F900F90DF91CF911F910F910895089532
:10063000EF92FF920F931F93CF93DF93EC018B0107
:100640007A01C4DD81111DC001151105C9F0809129
:10065000E80085FD0EC08091E8008E778093E80069
:10066000E114F10471F3F7010995813051F785E048
:1006700008C088818093F100015011092196E4CFD0
:1006800080E0DF91CF911F910F91FF90EF9008953F
:100690002091DF013091E0012617370748F06115FE
:1006A000710539F42091E8002E772093E80001C00D
:1006B000B90120E061157105D9F13091D8013323DA
:1006C00009F442C0353009F441C03091E80033FDEF
:1006D00039C03091E80032FF06C08091E80082FF07
:1006E0002AC080E008953091E80030FFE3CF2091E8
:1006F000F20030E0FC01281B390BA9014E0F5F1FEF
:10070000CF016115710549F04830510530F48191F0
:100710008093F10061507109F0CF21E0483051051C
:1007200009F020E03091E8003E773093E800C2CF36
:100730002111C3CFD2CF8091D801882329F08530F1
:1007400061F604C081E0089582E0089583E0089591
:100750002091DF013091E0012617370748F061153D
:10076000710539F42091E8002E772093E80001C04C
:10077000B90120E06115710509F43CC03091D80140
:10078000332309F443C0353009F442C03091E80006
:1007900033FD3AC03091E80032FF06C08091E80096
:1007A00082FF2BC080E008953091E80030FFE2CF57
:1007B0002091F20030E0FC01281B390BA9014E0FFB
:1007C0005F1FCF016115710551F04830510538F4B4
:1007D00084918093F100615071093196EFCF21E04F
:1007E0004830510509F020E03091E8003E77309321
:1007F000E800C0CF2111C2CFD1CF8091D80188238A
:1008000029F0853059F604C081E0089582E008950A
:1008100083E008956115710529F42091E8002B7794
:100820002093E8006115710549F12091D801222338
:1008300071F1253071F12091E80023FD24C0209151
:10084000E80022FFF2CFFC018091F200882371F0D2
:100850009F012F5F3F4FC9014091F10040836150DC
:10086000710961157105C9F2F901EECFCF01D5CF3C
:100870008091D801882359F0853059F08091E800A3
:1008800080FFF6CF02C081E0089580E0089582E005
:10089000089583E00895CF938091D801882359F07B
:1008A000C091E900C7701092E9008091E80083FDD3
:1008B000AEDDC093E900CF9108958F929F92AF92E1
:1008C000BF92CF92DF92EF92FF920F931F93CF933D
:1008D000DF9300D01F92CDB7DEB77C01ADB6BEB6B8
:1008E0008091E80083FFF1C0F701808190E02091C2
:1008F000DD013091DE012817390709F0E6C080914B
:10090000DA01833009F490C030F4813071F0823024
:1009100009F4C3C0DAC08A3009F4A7C08B3009F4E7
:1009200090C0893009F0D1C04CC08091D901813A82
:1009300009F0CBC08DB69EB61A8219828091DB0178
:100940001091DC018B83F701478150E08DB79EB792
:10095000841B950B0FB6F8949EBF0FBE8DBFEDB7ED
:10096000FEB731966F0160E070E0CF0172D64FEFB5
:10097000410F8E010F5F1F4F9601BE016D5F7F4FCC
:10098000C701A7D4F70185819681009721F047819F
:1009900050E0B60155D61092E9008091E800877FBB
:1009A0008093E80069817A81C60172DE8091E80057
:1009B0008B778093E8000FB6F8949EBE0FBE8DBE75
:1009C00084C08091D901813209F07FC00091DF019C
:1009D0001091E0019090DB018090DC018DB79EB713
:1009E000801B910B0FB6F8949EBF0FBE8DBFEDB765
:1009F000FEB731966F018091E800877F8093E80011
:100A0000B801CF0107DF8091E8008E778093E8007E
:100A10004FEF480D9601692DC7016BD40FB6F894BE
:100A2000BEBE0FBEADBE51C08091D901813A09F062
:100A30004CC08091E800877F8093E800F7018085B3
:100A40003CC08091D901813209F03FC08091E8001B
:100A5000877F8093E80099DB9091DB0181E0911121
:100A600001C080E0F701808730C08091D9018132D8
:100A700061F58091E800877F8093E80086DB8091B4
:100A8000DB019091DC01882736E0969587953A95B1
:100A9000E1F7F7019287818718C08091D901813AE7
:100AA000A1F48091E800877F8093E800F7018185B9
:100AB000928596958795969587958093F10080917C
:100AC000E8008E778093E80060DB0FB6F894BEBE36
:100AD0000FBEADBE0F900F900F90DF91CF911F9181
:100AE0000F91FF90EF90DF90CF90BF90AF909F90CD
:100AF0008F900895CF93DF93FC01DC01189685E079
:100B0000ED0119928A95E9F781E0808784EF91E001
:100B1000928781878481882311F044E001C040E0FE
:100B200062817381818128E030E090E026173707E9
:100B300020F49F5F220F331FF9CF42609295907F80
:100B4000492B61ECDF91CF910DCB5F926F927F9239
:100B50008F929F92AF92BF92CF92DF92EF92FF92CD
:100B60000F931F93CF93DF9300D01F92CDB7DEB7C3
:100B70007C01ADB6BEB68091D801843009F077C053
:100B8000F70181818093E9008091E80085FF6FC0C3
:100B90008DB69EB6478150E08DB79EB7841B950BEE
:100BA0000FB6F8949EBF0FBE8DBFEDB7FEB731965E
:100BB0006F011B821A82198260E070E0CF0149D573
:100BC0008E010F5F1F4F960140E0BE016D5F7F4FAA
:100BD000C7017FD3682EF70181859285892B41F06B
:100BE00021E083859485892B09F020E0722E01C0D5
:100BF000712CF701058116810115110589F04981D4
:100C00005A81B801C6010FD555245394892B09F494
:100C1000512CF701478150E0B601C80111D501C040
:100C2000512C29813A81232BE9F0611004C0511025
:100C300002C070FE17C0F701818592859487838773
:100C400081818093E9008B8181118093F10069811A
:100C50007A8140E050E0C601EBDC8091E8008E77BD
:100C60008093E8000FB6F8949EBE0FBE8DBE0FB6FF
:100C7000F894BEBE0FBEADBE0F900F900F90DF91E7
:100C8000CF911F910F91FF90EF90DF90CF90BF9089
:100C9000AF909F908F907F906F905F9008951F927C
:100CA0000F920FB60F9211242F933F934F935F93A0
:100CB0006F937F938F939F93AF93BF93EF93FF9324
:100CC000D6D282E086BBFF91EF91BF91AF919F9109
:100CD0008F917F916F915F914F913F912F910F90E5
:100CE0000FBE0F901F9018951F920F920FB60F9284
:100CF00011248F938091D2018F5F8F3118F48093EC
:100D0000D20103C01092D201459A8F910F900FBE6D
:100D10000F901F9018951F920F920FB60F921124EB
:100D200083E0459A98E2EFE9FFE03197F1F700C0E0
:100D300000009150C1F7459898E2EFE9FFE0319744
:100D4000F1F700C000009150C1F7815051F7459A6A
:100D5000FFCF2CE088E190E00FB6F894A89580933F
:100D600060000FBE209360008091600080648093DB
:100D7000600090E080E80FB6F89480936100909353
:100D800061000FBE15B814B818B817B81BB81AB858
:100D90003D9A459A17D180E490E050E4352F381BF6
:100DA000459A20E0231741F0E7ECF0E03197F1F7A6
:100DB00000C000002F5FF6CF459840E0242F30E0C0
:100DC0002817390744F4E7ECF0E03197F1F700C059
:100DD00000004F5FF3CF0197009701F7459A1092FB
:100DE0008000109282001092810014BC15BC80918A
:100DF000040190910501909389008093880082E01E
:100E000080936F0081E080936E008093810084E086
:100E100085BD109285001092840016BC41DA78944A
:100E2000C2E0A89538D28FB7F8949091D3018FBFC4
:100E30002FB7F8948091D3018D7F8093D3012FBF7A
:100E400091FF04C040E060E080E0C3D08FB7F89429
:100E50009091D3018FBF2FB7F8948091D3018B7FEE
:100E60008093D3012FBF92FFDCCF80916F008D7FE5
:100E700080936F0080910401909105019093890007
:100E8000809388001092850010928400C0936F00B8
:100E9000C8CF292F332723303105B9F05CF4213036
:100EA000310569F12230310579F582E290E026EDD5
:100EB00030E02EC021323105E9F02232310521F532
:100EC00080E290E02AE031E023C09927813091054B
:100ED00041F08230910541F0892BB1F4E2EDF0E070
:100EE00005C0EEE9F0E002C0E8E8F0E0849190E0AF
:100EF0009F010EC089E090E028EE30E009C082E159
:100F000090E028EF30E004C080E090E020E030E0A6
:100F1000FA013183208308952A982CE030E040E0E4
:100F200058E0BA0168237923672B11F02A9A01C08F
:100F30002A98299A299856954795215031092115C3
:100F4000310579F70895289A28980895FF920F930C
:100F50001F93CF93DF93F82E092F80E090E0DCDF22
:100F6000CF2DD02F15E08AA19BA1D6DF88A199A112
:100F7000D3DF8E8D9F8DD0DF115026961111F3CFC8
:100F800080E090E0C9DFCF2DD02F15E08C819D81CE
:100F9000C3DF8A819B81C0DF88819981BDDF1150C9
:100FA00026961111F3CFDF91CF911F910F91FF90F2
:100FB000CACFCF93C0E180E090E0AEDFC150D9F757
:100FC000CF91C1CF219A229A209A289829982A98BD
:100FD000F0CFCF93DF93E4E1F1E0C0E5D1E0ACE8FE
:100FE000B1E090E070E050E091838083738362838E
:100FF00055834483998388837B836A835D834C8391
:1010000011969C938E9313967C936E9312971596DC
:101010005C934E93149736962696169621E0E0350B
:10102000F20711F7DF91CF9108952F923F924F92DF
:101030005F926F927F928F929F92AF92BF92CF9268
:10104000DF92EF92FF920F931F93CF93DF93CDB771
:10105000DEB766970FB6F894DEBF0FBECDBF209106
:101060000101288B822F90E0A0E0B0E0898B9A8B61
:10107000AB8BBC8BA8ECB1E0BA87A987ECE8F1E0B8
:10108000FE8BED8B04E111E030E5232E31E0332EB1
:10109000A985BA85BC91BB87E889BE1728F1AD89BF
:1010A000BE898D919C91F80191838083D1018D93AC
:1010B0009C93ED89FE8982819381D80113969C933C
:1010C0008E931297F10193838283AD89BE89149622
:1010D0008D919C911597F80195838483D101159684
:1010E0009C938E93149797C0EB858E2F90E0A0E091
:1010F000B0E07727662729893A894B895C89E9D14D
:1011000029013A0180E090E0A1E0B0E0821B930B5E
:10111000A40BB50B8C879D87AE87BF87D8012D9117
:101120003C9140E050E06C857D858E859F85F5D1B2
:1011300049015A01ED89FE892081318140E050E06A
:10114000C301B201EAD129833A834B835C8389814D
:101150009A81AB81BC81880E991EAA1EBB1ED1014B
:10116000AD92BC92F8012281338140E050E06C8561
:101170007D858E859F85D1D149015A01AD89BE8972
:1011800012962D913C91139740E050E0C301B201BB
:10119000C4D129833A834B835C8389819A81AB8153
:1011A000BC81880E991EAA1EBB1ED1011396BC924B
:1011B000AE921297F8012481358140E050E06C85B1
:1011C0007D858E859F85A9D149015A01AD89BE894A
:1011D00014962D913C91159740E050E0C301B20167
:1011E0009CD129833A834B835C836D837E838F8379
:1011F000988789819A81AB81BC81880E991EAA1E2D
:10120000BB1ED1011596BC92AE9214978B858F5F51
:10121000E985FA85808389859A8501969A878987E9
:10122000AD89BE891696BE8BAD8B0A5F1F4FB6E0A7
:101230002B0E311C825D914009F02ACF66960FB6C5
:10124000F894DEBF0FBECDBFDF91CF911F910F91FC
:10125000FF90EF90DF90CF90BF90AF909F908F90D6
:101260007F906F905F904F903F902F900895DDDEBC
:1012700080910001882319F080E591E002C08CE89C
:1012800091E064CE9FB7F8942091D301822B809394
:10129000D3019FBF089586E091E057DCFCCA089512
:1012A000089586E091E026DCE2EEF0E08081846043
:1012B0008083089586E091E000CB809111019091A8
:1012C0001201009729F00197909312018093110168
:1012D00008950F931F9386E0F901818382E0828352
:1012E00080E490E0F8019183808381E01F910F9169
:1012F00008958F929F92AF92BF92CF92DF92EF921A
:10130000FF920F931F93CF93DF93E901359A888162
:10131000833009F4B0C038F4813089F0823009F0AC
:10132000CBC082E0B3C0853009F4C1C008F4BBC0B3
:10133000863009F0C1C0898180930201BDC088E078
:10134000A1DFE4E1F1E08CE891E0BEE88B2EB1E0B2
:101350009B2E20E931E008EC11E040E050E064AD64
:1013600075AD7183608366AD77AD73836283BF01B2
:10137000605C7F4FDB01AD90BC90B582A482BE0162
:10138000640F751FDB011196EC90F12CA4E0EE0CBC
:10139000FF1CAA95E1F7DC01ED92FC92DB011296AD
:1013A000EC90F12CB4E0EE0CFF1CBA95E1F7D401FF
:1013B000ED92FC92DB011396EC90F12CA4E0EE0C84
:1013C000FF1CAA95E1F7D901ED92FC92DB0114967E
:1013D000DC90BD2DBF70DB2EDC01ED90FC901197F1
:1013E000ED28ED92FC92DB011596DC90BD2DBF70CF
:1013F000DB2ED401ED90FC901197ED28ED92FC923C
:10140000DB011696FC90BF2DBF70FB2ED9016D91AC
:101410007C9111976F296D937C93C080D180DC0102
:10142000ED90FC90CE14DF0459F4C280D380D40137
:10143000ED90FC90CE14DF0419F4A616B70611F057
:10144000D8011C924A5F5F4F36960696B6E08B0E27
:10145000911C2A5F3F4F0F5F1F4F4C33510509F01E
:101460007ECF9FB7F8948091D301877F8093D3017B
:101470009FBF81E00BC08A8190E0982F8827298147
:10148000822B909305018093040184E0DF91CF913A
:101490001F910F91FF90EF90DF90CF90BF90AF9092
:1014A0009F908F90EFCE89818093030105C0898141
:1014B0008093000180930101DF91CF911F910F91E3
:1014C000FF90EF90DF90CF90BF90AF909F908F9064
:1014D0000895A1E21A2EAA1BBB1BFD010DC0AA1F75
:1014E000BB1FEE1FFF1FA217B307E407F50720F08D
:1014F000A21BB30BE40BF50B661F771F881F991F08
:101500001A9469F760957095809590959B01AC0150
:10151000BD01CF01089568940010E894A0E0B0E008
:10152000E3E9FAE01DC0EFEFE7F959016A015E2334
:10153000550FEE08FE2C87019B01AC019E23990FED
:10154000660B762FCB0141D0CDB7DEB7EAE024C0E1
:101550002F923F924F925F926F927F928F929F92C3
:10156000AF92BF92CF92DF92EF92FF920F931F93B1
:10157000CF93DF93CDB7DEB7CA1BDB0B0FB6F89462
:10158000DEBF0FBECDBF09942A88398848885F84A2
:101590006E847D848C849B84AA84B984C884DF8013
:1015A000EE80FD800C811B81AA81B981CE0FD11DF7
:1015B0000FB6F894DEBF0FBECDBFED010895EE0F5C
:1015C000FF1F0590F491E02D0994DF93CF939F9234
:1015D000A0E49A2E0024D001E001F00116950795B1
:1015E000F794E794D794C794B794A79448F41068F5
:1015F000A20FB31FC41FD51FE61FF71F081E191E19
:10160000220F331F441F551F661F771F881F991F06
:101610009A9421F79D01AE01BF01C00111249F9052
:10162000CF91DF910895FB01DC0104C08D91019001
:10163000801921F441505040C8F7881B990B089538
:10164000FB01DC0102C001900D9241505040D8F7DF
:101650000895DC0101C06D9341505040E0F70895BA
:04166000F894FFCF2C
:101664000164328064000001400000E20140000097
:041674000000000072
:00000001FF
