:1000000081C000009BC0000099C0000097C00000A4
:1000100095C0000093C0000091C000008FC0000098
:100020008DC000008BC0000089C00000E5C2000048
:1000300085C0000044C7000081C00000ECC700007C
:100040007DC000007BC0000079C0000077C00000C8
:1000500075C0000073C0000071C000006FC00000D8
:100060006DC000006BC0000069C0000067C00000E8
:1000700065C000000600FF0901A101090215002565
:10008000FF7508954081020903150025FF75089545
:10009000409102C01201100100000040501D22607A
:1000A00001000102DC0109022200010100C0FA097D
:1000B00004000001030000000921110100012220B9
:1000C00000070581030800050403090432035700F3
:1000D0006F006F00640065006E00730068006100CF
:1000E00072006B0020004C004C0043000000140321
:1000F0004C006900670068007400700061006300D4
:100100006B00000011241FBECFEFD2E0DEBFCDBFD9
:1001100011E0A0E0B1E0E8E7F5E102C005900D9242
:10012000A631B107D9F711E0A6E1B1E001C01D92F7
:10013000A53BB107E1F7E6D60C94BA0A61CF9C0162
:1001400040917201509173014617570718F4F90155
:1001500090E03DC06115710511F0AB01F8CF8091C1
:10016000E8008E778093E80040E050E0F0CF809187
:100170006B018823F1F18530F1F18091E80083FF74
:1001800002C081E008958091E80082FD2CC080913A
:10019000E80080FF1CC08091F200282F30E007C0EB
:1001A00081918093F100415050402F5F3F4F4115A6
:1001B000510519F02034310598F390E020343105D1
:1001C00009F491E08091E8008E778093E800411572
:1001D000510569F6992359F606C080916B01882371
:1001E00041F0853041F08091E80082FFF6CF80E059
:1001F000089582E0089583E008959C0161157105DA
:1002000029F48091E8008B778093E800F90120C001
:1002100080916B01882361F1853061F18091E80064
:1002200083FF02C081E008958091E80082FFF0CF53
:1002300006C08091F10081936150704021F080915F
:10024000F2008823B1F78091E8008B778093E80073
:1002500061157105E9F606C080916B01882341F0B4
:10026000853041F08091E80080FFF6CF80E008956E
:1002700082E0089583E008959C01409172015091BD
:1002800073014617570718F4F90190E040C0611553
:10029000710511F0AB01F8CF8091E8008E77809363
:1002A000E80040E050E0F0CF80916B01882309F432
:1002B00040C0853009F43FC08091E80083FF02C050
:1002C00081E008958091E80082FD2DC08091E800D2
:1002D00080FF1DC08091F200282F30E008C084917B
:1002E0008093F1003196415050402F5F3F4F4115B0
:1002F000510519F02034310590F390E02034310598
:1003000009F491E08091E8008E778093E800411530
:10031000510551F6992341F606C080916B0188235F
:1003200041F0853041F08091E80082FFF6CF80E017
:10033000089582E0089583E00895BF92CF92DF92FE
:10034000EF92FF920F931F93CF93DF93182F092FF4
:100350007B016A01D9D0B82E8823B1F5812F902F67
:100360009C01E901C114D10439F0F6018081918129
:10037000E81AF90AC80FD91F00E010E022C08091E6
:10038000E80085FD16C08091E8008E778093E80034
:100390003ED3C114D10449F0F60180819181800FD0
:1003A000911F9183808385E010C0AED0882349F0EF
:1003B0000CC089918093F1000894E108F1080F5F67
:1003C0001F4FE114F104D9F68B2DDF91CF911F91CE
:1003D0000F91FF90EF90DF90CF90BF900895382F4E
:1003E000282F2EC0822F8F708093E900231721F4CD
:1003F000762F942F50E006C07091EC009091ED00A4
:100400005091F00091FF1BC08091EB008E7F809394
:10041000EB008091ED008D7F8093ED008091EB00EB
:1004200081608093EB007093EC009093ED0050930B
:10043000F0008091EE0087FD02C080E008952F5FFC
:10044000253080F23F703093E90081E008950F93EA
:100450001F93CF93DF93062FEC0110E02AC0988101
:10046000992329F16B81E981FA812C81892F8F7081
:10047000853018F5223010F452E001C056E040E01B
:1004800028E030E003C04F5F220F331F2E173F07D5
:10049000D0F36295660F660F607C991F9927991FAC
:1004A000692B4295407F452B9ADF882331F01F5FEF
:1004B00025961017A0F281E001C080E0DF91CF9176
:1004C0001F910F91089580916C0188239CF404C0C2
:1004D00080916B018823B9F08091E80082FFF8CF0A
:1004E0008091E8008B778093E800089580916B01FC
:1004F000882349F08091E80080FFF8CF8091E800E0
:100500008E778093E80008954091E4005091E500D3
:1005100024E68091EC0080FF24C08091E80080FDFB
:100520001EC080916B01882311F482E0089585300C
:1005300011F483E008958091EB0085FF02C081E013
:1005400008958091E4009091E5008417950709F3E0
:10055000222311F484E008952150AC01DACF80E029
:1005600008958091E80082FFDCCFF9CF3FD041D0E1
:100570008091D8008F778093D8008091D8008068D0
:100580008093D8008091D8008F7D8093D80084E03C
:1005900089BD86E089BD09B400FEFDCF10926B01D4
:1005A000109268011092690180E060E042E317DF79
:1005B0008091E1008E7F8093E1008091E200816074
:1005C0008093E2008091E20088608093E200809155
:1005D000E0008E7F8093E0000895E3E6F0E0808104
:1005E0008E7F808381E080936A01C0CF1092E20009
:1005F00008951092E10008951F920F920FB60F9286
:1006000011242F933F934F935F936F937F938F9317
:100610009F93AF93BF93EF93FF938091E10082FF8D
:100620000AC08091E20082FF06C08091E1008B7FCA
:100630008093E100A7D68091E10080FF17C08091F0
:10064000E20080FF13C08091E2008E7F8093E20081
:100650008091E20080618093E2008091D800806206
:100660008093D80019BC10926B018BD68091E10069
:1006700084FF2DC08091E20084FF29C084E089BD01
:1006800086E089BD09B400FEFDCF8091D8008F7D42
:100690008093D8008091E1008F7E8093E10080916B
:1006A000E2008F7E8093E2008091E200816080937F
:1006B000E20080916801882331F48091E30087FD96
:1006C00002C081E001C084E080936B0159D6809123
:1006D000E10083FF22C08091E20083FF1EC0809171
:1006E000E100877F8093E10082E080936B011092AC
:1006F00068018091E1008E7F8093E1008091E200AB
:100700008E7F8093E2008091E20080618093E2001E
:1007100080E060E042E363DE79D1FF91EF91BF9129
:10072000AF919F918F917F916F915F914F913F9189
:100730002F910F900FBE0F901F9018951F93DF936E
:10074000CF93CDB7DEB7AC970FB6F894DEBF0FBE30
:10075000CDBFECE6F1E08091F100819321E0E43738
:10076000F207C9F7B4D68091E80083FF37C18091C2
:100770006C0130916D01353009F487C0363040F49A
:100780003130C9F1313070F0333009F027C133C056
:10079000383009F4F5C0393009F404C1363009F0B5
:1007A0001DC196C0803821F0823809F017C108C0F9
:1007B00080916901882311F092E013C090E011C08C
:1007C000809170018F708093E9008091EB0090E040
:1007D00025E0969587952A95E1F7982F91701092CC
:1007E000E9008091E800877F8093E8009093F10012
:1007F0001092F100D0C0882319F0823009F0EEC0C9
:1008000090E08F719070009721F0029709F0E6C098
:100810000CC080916E01813009F0E0C01092690136
:10082000333069F5809369012AC080916E01882375
:1008300031F5209170012F7009F4D0C02093E900A8
:100840008091EB0080FF1BC0333021F48091EB00DE
:10085000806213C08091EB0080618093EB0081E0A7
:1008600090E002C0880F991F2A95E2F78093EA0072
:100870001092EA008091EB0088608093EB00109268
:10088000E9008091E800877F89C0882309F0A6C02D
:1008900010916E011F778091E3008078812B809307
:1008A000E3008091E800877F8093E8000CDE809170
:1008B000E80080FFFCCF8091E30080688093E30034
:1008C000112311F482E001C083E080936B0186C0A4
:1008D0008058823008F082C080916E0190916F0143
:1008E00023E08C3D920709F033C083E08C838AE2D9
:1008F0008B837FB7F894DE0115966EE040E050E000
:1009000011E2E62FF0E010935700849140FF03C0FE
:1009100082958F706F5F8F70282F30E08A3018F0CB
:10092000C901C79602C0C901C0968D939D934F5FC0
:100930005F4F4431510529F77FBF8091E800877FE1
:100940008093E800CE0103966AE270E0F8DB12C003
:1009500060917001AE014F5F5F4F82D3BC01009781
:1009600009F43CC08091E800877F8093E80089818A
:100970009A8182DC8091E8008B778093E8002EC01A
:10098000803861F58091E800877F8093E80080914E
:1009900068018093F1008091E8008E778093E800F1
:1009A00092DD1CC08823D1F490916E019230B0F496
:1009B0008091E800877F8093E8009093680183DD51
:1009C00080916801882331F48091E30087FD02C0A3
:1009D00081E001C084E080936B017CD58091E800C8
:1009E00083FF0AC08091E800877F8093E8008091B0
:1009F000EB0080628093EB00AC960FB6F894DEBFFC
:100A00000FBECDBFCF91DF911F91089508951F9321
:100A100080916B01882371F01091E9008091EC00C6
:100A20001092E9008091E80083FF01C087DE1F700B
:100A30001093E9001F9108954F925F926F927F92F9
:100A40008F929F92AF92BF92CF92DF92EF92FF92DE
:100A50000F931F93DF93CF9300D00F92CDB7DEB7E4
:100A60007C016DB67EB680916B01843009F099C02F
:100A70002091E4003091E500F7018285938582178B
:100A8000930709F48EC081818F708093E900809173
:100A9000E80085FF86C05DB64EB6408550E08DB754
:100AA0009EB7841B950B0FB6F8949EBF0FBE8DBFEB
:100AB0000DB71EB70F5F1F4F19821B821A82C02EFF
:100AC000912EC80160E070E050E04DD5C701BE0135
:100AD0006F5F7F4F40E098018E010E5F1F4F5ED425
:100AE000882EF70184859585892B19F4AA24BB24C7
:100AF0000BC020E0F70186859785892B09F021E05E
:100B000081E02827A22EBB24F70106811781011559
:100B1000110511F4DD2412C04A815B818C2D992DC1
:100B2000B8010BD5DD24009711F0DD24D394F70133
:100B30004085C8016C2D792D50E00CD58A819B81B0
:100B4000892B01F1882021F4DD2011F4AB28D1F0AC
:100B5000F701848595859787868781818F7080933B
:100B6000E9008981882311F08093F1006A817B81FB
:100B70008C2D992D40E050E0E0DB8091E8008E77ED
:100B80008093E8008091E4009091E500F70193875D
:100B90008287252D342DC9010FB6F8949EBF0FBE54
:100BA0008DBF0FB6F8947EBE0FBE6DBE0F900F9036
:100BB0000F90CF91DF911F910F91FF90EF90DF90F9
:100BC000CF90BF90AF909F908F907F906F905F90ED
:100BD0004F900895CF93DF93DC010996FC0187E0E5
:100BE000EF0119928A95E9F781E019968C9319978C
:100BF00084EF91E01D969C938E931C9783E014964E
:100C00008C931497CD01019661E021DC811181E084
:100C1000DF91CF9108956F927F928F929F92AF92C2
:100C2000BF92CF92DF92EF92FF920F931F93DF93C9
:100C3000CF9300D00F92CDB7DEB76C016DB67EB604
:100C40008091E80083FF13C1F601808190E020913C
:100C50007001309171012817390709F008C180919E
:100C60006D01833009F4ABC0843030F4813071F011
:100C7000823009F0FCC0DFC08A3009F4C4C08B3078
:100C800009F4AEC0893009F0F2C056C080916C0101
:100C9000813A09F0ECC09DB68EB61B821A82809113
:100CA0006E0110916F018983F601408550E08DB788
:100CB0009EB7841B950B0FB6F8949EBF0FBE8DBFD9
:100CC000EDB6FEB60894E11CF11CBE2CAF2CC7019A
:100CD00060E070E050E047D41150C601BE016F5F84
:100CE0007F4F412F97018E010E5F1F4F57D3F601A3
:100CF000268137812115310529F04085C901B701C9
:100D000050E028D41092E9008091E800877F80931A
:100D1000E8006A817B818B2D9A2D11DA8091E800A1
:100D20008B778093E800292D382DC9010FB6F894F0
:100D30009EBF0FBE8DBF9BC080916C01813209F0B8
:100D400096C09DB68EB60091720110917301A0906D
:100D50006E01B0906F018DB79EB7801B910B0FB6DF
:100D6000F8949EBF0FBE8DBFEDB6FEB60894E11C91
:100D7000F11C8091E800877F8093E800C701B801EB
:100D80003CDA8091E8008E778093E80080E090E084
:100D9000AA2011F081E090E0BA94E80EF91E081B39
:100DA000190BC6016A2D4B2D970108D3892D982D5B
:100DB0009C010FB6F8943EBF0FBE2DBF58C0809166
:100DC0006C01813A09F053C08091E800877F8093DD
:100DD000E8008091E80080FFFCCFF60181853FC0EC
:100DE00080916C01813209F042C08091E800877FD8
:100DF0008093E80068DB90E080916E01811191E0C2
:100E0000F601918734C080916C01813281F5809127
:100E1000E800877F8093E80056DB80916E01909117
:100E20006F01807036E0969587953A95E1F7F60167
:100E3000958784871CC080916C01813AC1F48091B0
:100E4000E800877F8093E8008091E80080FFFCCF76
:100E5000F6018485958596958795969587958093D7
:100E6000F1008091E8008E778093E8002CDB0FB6CC
:100E7000F8947EBE0FBE6DBE0F900F900F90CF9175
:100E8000DF911F910F91FF90EF90DF90CF90BF9077
:100E9000AF909F908F907F906F9008959FB7F89438
:100EA000409116019FBF3FB7F89420911601982FEB
:100EB00090959223909316013FBF842308951F922B
:100EC0000F920FB60F9211242F933F934F935F937E
:100ED0008F939F9330E040EA5FE0459A20E0CA019B
:100EE0000197F1F72F5F2832D1F7459820E0CA012A
:100EF0000197F1F72F5F2832D1F73F5F333069F761
:100F0000459AFFCFA8952CE088E190E00FB6F894C1
:100F1000A895809360000FBE2093600080916000D0
:100F200080648093600080E090E020E80FB6F89441
:100F300020936100809361000FBE88EF84B915B8DB
:100F40008CEF87B918B88FEF8AB91BB83D9A4598CE
:100F500030E044E650E068EC70E0459820E005C0E1
:100F6000CB010197F1F7A8952F5F822F90E08417AE
:100F70009507B4F3459A20E005C0CB010197F1F73E
:100F8000A8952F5F2317C8F33F5F41505040343678
:100F900021F7F2D01092800010928200109281000E
:100FA00080910401909105019093890080938800BD
:100FB00082E080936F0081E0809381001092850031
:100FC000109284000ADB7894A8958DD280916B01F1
:100FD000843021F482E062DF882321F080E060E049
:100FE00040E005D184E05ADF882371F380916F00DF
:100FF0008D7F80936F008091040190910501909303
:10100000890080938800109285001092840082E00D
:1010100080936F00D9CF1F920F920FB60F921124B9
:101020002F933F934F935F936F937F938F939F93F0
:10103000AF93BF93EF93FF9367D182E086BBFF919D
:10104000EF91BF91AF919F918F917F916F915F9140
:101050004F913F912F910F900FBE0F901F901895B9
:10106000DA019330B1F0943028F4913041F09230AD
:1010700079F50AC0913211F1923251F524C0E4E9B8
:10108000F0E022E130E028C0E6EAF0E022E230E0E1
:1010900023C0813049F0813018F08230C9F40AC091
:1010A000E8ECF0E0849103C0ECECF0E08491282FB0
:1010B00030E012C0EEEEF0E08491F9CFE8EBF0E022
:1010C00029E030E009C0E4E7F0E020E230E004C0CD
:1010D000E0E0F0E020E030E0ED93FC93C9010895FA
:1010E000FC01362F842F2D9829982E982A982D9A16
:1010F000299A2D98299890E063E070E0F8D1DF01FB
:10110000A80FB91F12968C911297381710F42E9AC7
:1011100001C02E98822F90E063E070E0E8D1E80FE4
:10112000F91F8281381710F42A9A01C02A982D9A43
:10113000299A2D98299811968C911197381710F4A7
:101140002E9A01C02E988181381710F42A9A01C076
:101150002A982D9A299A2D9829988C91381710F44D
:101160002E9A01C02E988081381710F42A9A01C057
:101170002A982D9A299A08952D9829982C9828987C
:101180002E982A98259A219A249A209A269A229A69
:101190000895FF920F931F938C01F62E43E027E0F2
:1011A0009FDFC8016F2D42E026E09ADFC8016F2D56
:1011B00041E025E095DFC8016F2D40E024E090DF9D
:1011C0002C9A289A2C9828981F910F91FF90089597
:1011D0002E982A9880E02D9829982D9A299A8F5F29
:1011E0008031C9F72C9A289A2C9828980895E7E11D
:1011F000F1E0DF0158968083618342838C93618F95
:10120000428F58968C93589759966C9359975A9643
:101210004C935A973396139691E0EF32F90759F7AA
:1012200008958F929F92AF92BF92CF92DF92EF92EA
:10123000FF920F931F93CF93DF93A09001010FE5CF
:1012400011E098EEE92E9FEFF92EE00EF11EC7E1B6
:10125000D1E0812C81E0982EF801D080F701408107
:10126000C180B280DA1438F04883488FC982C98EB1
:10127000BA82BA8E30C080E09D2D6A2D70E049D1CF
:10128000FB01D401A61BB70B6881CD0170E02FD103
:101290009C01CF01642F70E02AD1280F391F388FAD
:1012A0006981CD0170E023D19C01CF016C2D70E0EC
:1012B0001ED1280F391F398F6A81CD0170E017D1F7
:1012C0009C01CF016B2D70E012D1280F391F3A8F8E
:1012D000D394F801D0820F5F1F4F83E090E0E80EB7
:1012E000F91E239691E00736190709F0B5CFDF9173
:1012F000CF911F910F91FF90EF90DF90CF90BF9013
:10130000AF909F908F900895909167018091030115
:10131000981701F5109267011092850010928400D1
:1013200057DF80910001882309F07BDF8091020163
:1013300090E0A0E0B0E02227382F492F5A2F80916B
:10134000840090918500A0E0B0E082179307A40785
:10135000B507A8F380910001882319F08FE291E08E
:1013600002C087E491E06091670113DF809167011B
:101370008F5F80936701109285001092840008951A
:10138000089508958091140190911501009729F016
:101390000197909315018093140108950F931F9363
:1013A000D801F90188E090E08D939C9384E08183DB
:1013B00086E0828381E01F910F9108950F931F9320
:1013C000CF93DF93F9018081833009F45DC08430CD
:1013D00030F4813071F0823009F074C04CC0853037
:1013E00009F466C0853008F45FC0863009F06AC031
:1013F00066C09FB7F89480911601886080931601AB
:101400009FBFE7E1F1E0E9018F01005D1F4F2FE58C
:1014100031E0808D8083818D8183628D62839981AB
:10142000D8019C935A8111965C9311974B81129627
:101430004C938081891729F48181851711F46417F1
:1014400011F0D9011C92339626960D5F1F4F2F5F26
:101450003F4FB1E0EF32FB07E1F69FB7F894809180
:101460001601877F809316019FBF9FB7F8948091E4
:101470001601816005C09FB7F894809116018260C3
:10148000809316019FBF1EC0928180E0218130E0D1
:10149000822B932B90930501809304019FB7F894BE
:1014A000809116018460ECCF8181809303010AC092
:1014B00081818093000181818093010103C081813A
:1014C00080930201DF91CF911F910F91089586E0E3
:1014D00091E0A1CB86E091E07DDBE2EEF0E080815F
:1014E00084608083089586E091E0A6DA90CA55274B
:1014F000002480FF02C0060E571F660F771F61157C
:10150000710521F096958795009799F7952F802D75
:101510000895AA1BBB1B51E107C0AA1FBB1FA6173A
:10152000B70710F0A61BB70B881F991F5A95A9F78C
:1015300080959095BC01CD010895FB01DC0104C0AC
:101540008D910190801921F441505040C8F7881BBB
:10155000990B0895FB01DC0102C001900D924150EE
:101560005040D8F70895DC0101C06D9341505040C0
:08157000E0F70895F894FFCFA5
:1015780001643280640000810800000175014000A8
:061588000000000000005D
:00000001FF
