:100000008AC00000A4C00000A2C00000A0C0000080
:100010009EC000009CC000009AC0000098C0000074
:1000200096C0000094C0000092C000003FC10000D4
:100030008EC000008CC000008AC0000072C70000A3
:1000400086C0000084C0000082C0000080C00000A4
:100050007EC000007CC000007AC0000078C00000B4
:1000600076C0000074C0000072C0000070C00000C4
:100070006EC00000069CFF0901A1010902750895E8
:10008000401580257F8102090375089540150025DC
:10009000FF9102C01201100100000008EB034F2085
:1000A00001000102000109022200010100C0FA0959
:1000B00004000001030000000921110100012220B9
:1000C00000070581034000010403090432036C00AA
:1000D00069006700680074007000610063006B00D5
:1000E0002E0067006F006F0067006C006500630002
:1000F0006F00640065002E0063006F006D0000005B
:1001000014034C006900670068007400700061000F
:1001100063006B00000011241FBECFEFD2E0DEBFF2
:10012000CDBF11E0A0E0B1E0EEECF2E102C005903D
:100130000D92A231B107D9F711E0A2E1B1E001C0FF
:100140001D92AA3AB107E1F753D60C94650958CF2E
:100150008093E9008091EB0081608093EB00109226
:10016000ED006093EC004093ED008091EE00881F5D
:100170008827881F08958091620188239CF404C019
:10018000809161018823B9F08091E80082FFF8CF67
:100190008091E8008B778093E80008958091610159
:1001A000882349F08091E80080FFF8CF8091E80033
:1001B0008E778093E80008954091E4005091E50027
:1001C00024E68091EC0080FF05C08091E80080FF6C
:1001D00005C022C08091E80082FD1EC080916101AF
:1001E000882311F482E00895853011F483E00895A6
:1001F0008091EB0085FF02C081E008958091E400CA
:100200009091E50084179507E1F2222311F484E030
:1002100008952150AC01D5CF80E0089541D043D05E
:100220008091D800982F9F779093D8008068809312
:10023000D80084E089BD89B5826089BD09B400FE1B
:10024000FDCF8091D8008F7D8093D80010926101FE
:1002500010925F0110925E0110925D0180E060E0FB
:1002600042E076DF8091E1008E7F8093E100809113
:10027000E20081608093E2008091E20088608093D8
:10028000E2008091E0008E7F8093E0000895E3E635
:10029000F0E080818E7F808381E080936001BECF1B
:1002A0001092E20008951092E10008951F920F92BB
:1002B0000FB60F9211242F933F934F935F936F9339
:1002C0007F938F939F93AF93BF93EF93FF9380910F
:1002D000E10080FF1CC08091E20080FF18C0809187
:1002E000E1008E7F8093E1008091E2008E7F809319
:1002F000E2008091E20080618093E2008091D8006A
:1003000080628093D80019BC10926101FCD6809164
:10031000E10084FF2EC08091E20084FF2AC084E0C7
:1003200089BD89B5826089BD09B400FEFDCF809189
:10033000D8008F7D8093D8008091E1008F7E8093DC
:10034000E1008091E2008F7E8093E2008091E200E4
:1003500081608093E20080915F01882331F4809175
:10036000E30087FD02C081E001C084E08093610169
:10037000C8D68091E10083FF22C08091E20083FF14
:100380001EC08091E100877F8093E10082E080932E
:10039000610110925F018091E1008E7F8093E10006
:1003A0008091E2008E7F8093E2008091E200806184
:1003B0008093E20080E060E042E0CADE4BD18091B1
:1003C000E10082FF0AC08091E20082FF06C08091B6
:1003D000E1008B7F8093E10098D6FF91EF91BF9170
:1003E000AF919F918F917F916F915F914F913F91CD
:1003F0002F910F900FBE0F901F9018950F931F9382
:10040000DF93CF9300D0CDB7DEB7E2E6F1E0809185
:10041000F100819381E0EA36F807C9F7F0D68091C0
:10042000E80083FF02C180916201309163013530A1
:1004300009F487C0363040F43130C9F1313070F002
:10044000333009F0F2C033C0383009F4C0C039305D
:1004500009F4CFC0363009F0E8C099C0803821F0E7
:10046000823809F0E2C008C090915D0180915E0180
:10047000882399F0926011C0809166018770809303
:10048000E9008091EB0090E025E0969587952A950C
:10049000E1F7982F91701092E9008091E800877F32
:1004A0008093E8009093F1001092F1009BC08823A4
:1004B00019F0823009F0B9C090E08F719070009708
:1004C00021F0029709F0B1C00CC080916401813025
:1004D00009F0ABC010925E01333069F580935E0184
:1004E0002AC080916401882331F52091660127702C
:1004F00009F49BC02093E9008091EB0080FF1BC0B2
:10050000333021F48091EB00806213C08091EB00C6
:1005100080618093EB0081E090E002C0880F991F1A
:100520002A95E2F78093EA001092EA008091EB00AE
:1005300088608093EB001092E9008091E800877F4B
:1005400054C0882309F071C0109164011F770FB760
:10055000F8948091E800877F8093E8000CDE80911A
:10056000E80080FFFCCF112311F482E001C083E09A
:10057000809361018091E3008078182B1093E30051
:100580008091E30080688093E3000FBF4EC08058E5
:10059000823008F04AC080916401909165016091B9
:1005A0006601AE014F5F5F4FE5D4BC01009709F4CF
:1005B0003CC08091E800877F8093E80089819A8120
:1005C000A8D08091E8008B778093E8002EC0803817
:1005D00061F58091E800877F8093E80080915F015A
:1005E0008093F1008091E8008E778093E800C3DD6E
:1005F0001CC08823D1F4909164019230B0F48091B2
:10060000E800877F8093E80090935F01B4DD8091DC
:100610005F01882331F48091E30087FD02C081E00F
:1006200001C084E080936101EDD58091E80083FFF3
:100630000AC08091EB0080628093EB008091E8001B
:10064000877F8093E8000F900F90CF91DF911F91EB
:100650000F91089508959C0140916801509169019E
:100660004617570718F4F90190E03DC06115710570
:1006700011F0AB01F8CF8091E8008E778093E8000D
:1006800040E050E0F0CF809161018823F1F18530A6
:10069000F1F18091E80083FF02C081E0089580912C
:1006A000E80082FD2CC08091E80080FF1CC0809192
:1006B000F200282F30E007C081918093F100415073
:1006C00050402F5F3F4F4115510519F0283031053B
:1006D00098F390E02830310509F491E08091E8002A
:1006E0008E778093E8004115510569F6992359F6F4
:1006F00006C080916101882341F0853041F08091EE
:10070000E80082FFF6CF80E0089582E0089583E05C
:1007100008959C014091680150916901461757075F
:1007200010F460E03FC06115710511F0AB01F9CF25
:100730008091E8008E778093E80040E050E0F1CFB0
:1007400080916101882309F43FC0853009F43EC0DF
:100750008091E80083FF02C081E008958091E80065
:1007600082FD2CC08091E80080FF1CC08091F200C7
:1007700090E009C0F9012F5F3F4FE491E093F10051
:100780004150504001964115510519F088309105AE
:1007900088F360E0089709F461E08091E8008E77C3
:1007A0008093E8004115510559F6662349F606C0C5
:1007B00080916101882341F0853041F08091E8000B
:1007C00082FFF6CF80E0089582E0089583E00895E7
:1007D0009C016115710529F48091E8008B77809365
:1007E000E800F90120C080916101882361F1853022
:1007F00061F18091E80083FF02C081E0089580915B
:10080000E80082FFF0CF06C08091F1008193615033
:10081000704021F08091F2008823B1F78091E800C8
:100820008B778093E80061157105E9F606C0809129
:100830006101882341F0853041F08091E80080FF1C
:10084000F6CF80E0089582E0089583E00895DF9276
:10085000EF92FF920F931F93CF93DF93182F092FDF
:10086000EB017A01A9DCD82E882319F5812F902F6E
:100870009C0189011CC08091E80085FD12C0809117
:10088000E8008E778093E800E114F10431F0F7017D
:100890000995813011F485E00DC08EDC882339F094
:1008A00009C0F80181918F018093F1002197209771
:1008B00011F78D2DDF91CF911F910F91FF90EF9048
:1008C000DF9008951F9380916101882361F010915A
:1008D000E9001092E9008091E80083FF01C08EDDFD
:1008E00017701093E9001F9108954F925F926F92D5
:1008F0007F928F929F92AF92BF92CF92DF92EF92B0
:10090000FF920F931F93DF93CF9300D00F92CDB739
:10091000DEB77C016DB67EB680916101843009F04E
:1009200085C0F70181818093E9008091E80085FF0F
:100930007DC05DB64EB647818DB79EB7841B9109C9
:100940000FB6F8949EBF0FBE8DBF0DB71EB70F5FD9
:100950001F4F19821B821A82C02E912EC80160E09F
:1009600070E050E0ABD4C701BE016F5F7F4F40E045
:1009700098018E010E5F1F4FD4D3882EF701818519
:100980009285892B19F4AA24BB240BC020E0F7011F
:1009900083859485892B09F021E081E02827A22E08
:1009A000BB24F701058116810115110511F4DD2421
:1009B00012C04A815B818C2D992DB80169D4DD2448
:1009C000009711F0DD24D394F7014781C8016C2D05
:1009D000792D50E06AD48A819B81892BF9F0882097
:1009E00021F4DD2011F4AB28C9F0F701818592854F
:1009F0009487838781818093E9008981882311F01E
:100A00008093F1006A817B818C2D992D40E050E02C
:100A10001EDF8091E8008E778093E800852D942D6D
:100A20009C010FB6F8943EBF0FBE2DBF0FB6F894D1
:100A30007EBE0FBE6DBE0F900F900F90CF91DF91D5
:100A40001F910F91FF90EF90DF90CF90BF90AF90EC
:100A50009F908F907F906F905F904F900895CF936D
:100A6000DF93DC010896FC0185E0EF0119928A957D
:100A7000E9F781E018968C93189784EF91E01A9625
:100A80009C938E93199711963C91119712966D91A4
:100A90007C91139714968C91882311F440E001C047
:100AA00044E020E088E090E003C02F5F880F991FAA
:100AB00086179707D0F342602295207F422B832F21
:100AC00061EC46DB811181E0DF91CF9108956F9257
:100AD0007F928F929F92AF92BF92CF92DF92EF92CE
:100AE000FF920F931F93DF93CF9300D00F92CDB758
:100AF000DEB74C016DB67EB68091E80083FFF8C08A
:100B0000F401808190E020916601309167012817FF
:100B1000390709F0EDC080916301833009F498C072
:100B2000843030F4813071F0823009F0E1C0C8C007
:100B30008A3009F4ADC08B3009F497C0893009F0D0
:100B4000D7C04FC080916201813A09F0D1C0ADB6E3
:100B5000FEB61B821A82809164011091650189831F
:100B6000F40147818DB79EB7841B91090FB6F894A5
:100B70009EBF0FBE8DBFCDB6DEB60894C11CD11C82
:100B8000EC2CBD2CC60160E070E050E097D3115012
:100B9000C401BE016F5F7F4F412F96018E010E5F32
:100BA0001F4FBFD2F401258136812115310529F06F
:100BB0004781C901B60150E078D31092E9008091D5
:100BC000E800877F8093E8006A817B818E2D9B2DD2
:100BD00042DD8091E8008B778093E8002A2D3F2D3D
:100BE00031C080916201813209F082C0AEB60091BD
:100BF000680110916901C0906401D09065018DB7C2
:100C00009EB7801B910B0FB6F8949EBF0FBE8DBF91
:100C1000EDB6FEB60894E11CF11C8091E800877FD8
:100C20008093E800C701B801D3DD8091E8008E779A
:100C30008093E800DA94C4016C2D4D2D970181D288
:100C4000262D3A2D0FB6F8943EBF0FBE2DBF50C0D3
:100C500080916201813A09F04BC08091E800877F62
:100C60008093E800F40180853BC08091620181326D
:100C700009F03EC08091E800877F8093E8007BDA2E
:100C800090E080916401811191E0F401908730C07F
:100C900080916201813261F58091E800877F8093C5
:100CA000E80069DA8091640190916501807076E0D6
:100CB000969587957A95E1F7F4019287818718C018
:100CC00080916201813AA1F48091E800877F80934E
:100CD000E800F4018185928596958795969587958C
:100CE0008093F1008091E8008E778093E80043DAEA
:100CF0000FB6F8947EBE0FBE6DBE0F900F900F9092
:100D0000CF91DF911F910F91FF90EF90DF90CF90E7
:100D1000BF90AF909F908F907F906F9008950F93AA
:100D20001F93CF93DF9390915B014091010180E08D
:100D3000642F70E086D2DB0100E011E0061B170B88
:100D4000E3E1F1E0EF01E0966081C80170E067D275
:100D50009C016881CD0170E062D2280F391F308F6D
:100D60006181C80170E05BD29C016981CD0170E0B6
:100D700056D2280F391F318F6281C80170E04FD2DF
:100D80009C016A81CD0170E04AD2280F391F328F51
:100D90003396239681E0EB32F807B1F680915B0140
:100DA0008F5F80935B0180915B01481710F4409343
:100DB0005B01DF91CF911F910F910895E3E1F1E085
:100DC000DF0158968083618342838C93618F428FC9
:100DD00058968C93589759966C9359975A964C936A
:100DE0005A973396139691E0EB32F90759F7089525
:100DF0001F9384B7877F84BF88E10FB6F8948093F0
:100E00006000109260000FBE80E090E020E80FB616
:100E1000F89420936100809361000FBE15B814B858
:100E200018B817B81BB81AB8529A539A2FD1109203
:100E300080001092820081E08093810084E690E03F
:100E4000909389008093880010928500109284000E
:100E500082E080936F001BDA789412E0DCD18FB7C8
:100E6000F894209112018FBF9FB7F89480911201DE
:100E70008D7F809312019FBF21FF04C080E060E05E
:100E800040E09CDF8FB7F894209112018FBF9FB78D
:100E9000F894809112018B7F809312019FBF22FFF3
:100EA000DDCF80916F008D7F80936F008091030173
:100EB0009091040190709093890080938800109223
:100EC00085001092840010936F00C8CF90915C0150
:100ED00080910201981789F410925C015A9A02D10C
:100EE00016BC85E085BD80910001882309F017DFDD
:100EF00086B58A30E8F315BC5A985B9A8091000158
:100F0000882319F08BE291E002C083E491E06091C4
:100F10005C01C9D05B9880915C018F5F80935C011C
:100F200008951F920F920FB60F9211242F933F93A3
:100F30004F935F936F937F938F939F93AF93BF93E1
:100F4000EF93FF93C3DF82E086BB1092850010927F
:100F50008400FF91EF91BF91AF919F918F917F910D
:100F60006F915F914F913F912F910F900FBE0F9016
:100F70001F901895DA019330B1F0943028F4913035
:100F800041F0923079F50AC0913211F1923251F567
:100F900024C0E4E9F0E022E130E028C0E6EAF0E035
:100FA00022E230E023C0813049F0813018F08230F5
:100FB000C9F40AC0E8ECF0E0849103C0ECECF0E086
:100FC0008491282F30E012C0E0E0F1E08491F9CF65
:100FD000E8EBF0E029E030E009C0E4E7F0E020E2EF
:100FE00030E004C0E0E0F0E020E030E0ED93FC937E
:100FF000C9010895FC01362F842F2D9829982E9829
:101000002A982D9A299A2D98299890E063E070E00B
:1010100006D1DF01A80FB91F12968C9112973817CD
:1010200010F42E9A01C02E98822F90E063E070E0B9
:10103000F6D0E80FF91F8281381710F42A9A01C000
:101040002A982D9A299A2D98299811968C91119762
:10105000381710F42E9A01C02E988181381710F499
:101060002A9A01C02A982D9A299A2D9829988C910C
:10107000381710F42E9A01C02E988081381710F47A
:101080002A9A01C02A982D9A299A08952D9829986C
:101090002C9828982E982A98259A219A249A209A52
:1010A000269A229A0895FF920F931F938C01F62E91
:1010B00043E027E09FDFC8016F2D42E026E09ADF82
:1010C000C8016F2D41E025E095DFC8016F2D40E09C
:1010D00024E090DF2C9A289A2C9828981F910F9141
:1010E000FF9008952E982A9880E02D9829982D9A9F
:1010F000299A8F5F8031C9F72C9A289A2C982898C2
:1011000008955A9A08955A980895809110019091DF
:101110001101009729F0019790931101809310011C
:1011200008950F931F93D801F90184E0818383E030
:10113000828380E490E08D939C9381E01F910F91D6
:101140000895CF93DF93F90180818330D9F1843002
:1011500030F4813059F0823009F04EC02DC0843017
:1011600009F443C0853009F047C043C0EBE2F1E029
:10117000EF016897D9018081888381818983828189
:101180008A8311968C911197808F12968C91129769
:10119000818F13968C911397828F33962396169690
:1011A00081E0E334F80739F710925B019FB7F894B8
:1011B00080911201816015C09FB7F894809112014F
:1011C00082600FC0938180E0228130E0822B932BDC
:1011D00090930401809303019FB7F89480911201CA
:1011E0008460809312019FBF07C0818180930201B8
:1011F00003C0818180930001DF91CF91089585E044
:1012000091E065CC85E091E02ADCE2EEF0E08081BF
:1012100084608083089585E091E067DB53CB552798
:10122000002480FF02C0060E571F660F771F61154E
:10123000710521F096958795009799F7952F802D48
:10124000089597FB092E07260AD077FD04D00CD00D
:1012500006D000201AF4709561957F4F0895F6F737
:10126000909581959F4F0895AA1BBB1B51E107C024
:10127000AA1FBB1FA617B70710F0A61BB70B881F26
:10128000991F5A95A9F780959095BC01CD010895B5
:10129000FB01DC0104C08D910190801921F44150C3
:1012A0005040C8F7881B990B0895FB01DC0102C070
:1012B00001900D9241505040D8F70895DC0101C0D3
:0E12C0006D9341505040E0F70895F894FFCF31
:1012CE00016480640000014000006A0140000000DB
:0212DE0000000E
:00000001FF
