:1000000094C00000AEC00000ACC00000AAC0000058
:10001000A8C00000A6C00000A4C00000A2C000004C
:10002000A0C000009EC000009CC00000E9C200000B
:1000300098C000000AC7000094C00000E1C600009C
:1000400090C000008EC000008CC000008AC000007C
:1000500088C0000086C0000084C0000082C000008C
:1000600080C000007EC000007CC000007AC000009C
:1000700078C00000C903E903CD04E903CD042B04D3
:100080004D04CD049F04B10414034C0069006700C3
:10009000680074007000610063006B0000003203B0
:1000A0006C00690067006800740070006100630004
:1000B0006B002E0067006F006F0067006C0065002A
:1000C00063006F00640065002E0063006F006D0028
:1000D00000000403090409022200010100C0FA091A
:1000E0000400000103000000092111010001222089
:1000F00000070581030800051201100100000040FF
:10010000501D226001000102DC010600FF0901A16F
:10011000010902150025FF750895408102090315A4
:100120000025FF750895409102C011241FBECFEF36
:10013000D2E0DEBFCDBF11E0A0E0B1E0E6E9F7E13B
:1001400002C005900D92A631B107D9F712E0A6E1E1
:10015000B1E001C01D92A232B107E1F794D60C9430
:10016000C90B4ECFCF92DF92EF92FF920F931F9366
:10017000CF93DF937C018B01EA01CCD1811131C097
:10018000209731F088819981081B190BE80EF91E20
:10019000C12CD12C0115110519F18091E80085FDC4
:1001A00014C08091E8008E778093E8000FD42097E8
:1001B00041F0888199818C0D9D1D9983888385E00C
:1001C00010C0A8D1882331F30CC0F70181917F01C1
:1001D0008093F10001501109FFEFCF1ADF0ADACF47
:1001E00080E0DF91CF911F910F91FF90EF90DF9012
:1001F000CF9008952091DF013091E0012617370755
:1002000048F06115710539F42091E8002E772093AC
:10021000E80001C0B90120E061157105D9F1309104
:10022000D801332309F442C0353009F441C030917C
:10023000E80033FD39C03091E80032FF06C08091FC
:10024000E80082FF2AC080E008953091E80030FF86
:10025000E3CF2091F20030E0FC01281B390BCF01E5
:10026000820F931F6115710549F08034910530F4B8
:1002700081918093F10061507109F1CF21E08034C8
:10028000910509F020E08091E8008E778093E800E6
:10029000CF01C2CF2111C3CFD2CF8091D801882303
:1002A00029F0853061F604C081E0089582E0089568
:1002B00083E008956115710529F42091E8002B77FA
:1002C0002093E8006115710521F12091D8012223C6
:1002D00049F1253049F12091E80023FD1FC020910C
:1002E000E80022FFF2CFFC01CF012091F20022238F
:1002F00021F38091F1008193CF0161507109611563
:10030000710591F7DACF8091D801882359F08530B3
:1003100059F08091E80080FFF6CF02C081E0089597
:1003200080E0089582E0089583E008952091DF0140
:100330003091E0012617370748F06115710539F44F
:100340002091E8002E772093E80001C0B90120E059
:100350006115710509F43CC03091D801332309F4CB
:1003600043C0353009F442C03091E80033FD3AC053
:100370003091E80032FF06C08091E80082FF2BC078
:1003800080E008953091E80030FFE2CF2091F20044
:1003900030E0FC01281B390BC9018E0F9F1F61152E
:1003A000710551F08034910538F484918093F10007
:1003B000319661507109F0CF21E08034910509F048
:1003C00020E08091E8008E778093E800CF01C0CFD5
:1003D0002111C2CFD1CF8091D801882329F0853057
:1003E00059F604C081E0089582E0089583E00895FD
:1003F000982F953058F59093E900981739F070913F
:10040000EC002091ED005091F00003C0242F762FD6
:1004100050E021FF19C03091EB003E7F3093EB009C
:100420003091ED003D7F3093ED003091EB00316075
:100430003093EB007093EC002093ED005093F000AC
:100440002091EE0027FF07C09F5FD3CF8F7080936E
:10045000E90081E0089580E008950F931F93CF9302
:10046000DF93062FEC0110E0101769F198819923B2
:1004700039F12C81E981FA816B81892F8F70853068
:1004800010F080E021C0223010F056E001C052E0B0
:1004900028E030E040E02E173F0720F44F5F220FA6
:1004A000331FF9CF4295407F452B991F9927991FFC
:1004B0006295660F660F607C692B9ADF882309F3CB
:1004C0001F5F2596D1CF81E0DF91CF911F910F91D2
:1004D00008958091D90187FD05C08091E80080FFD3
:1004E0000EC012C08091E80082FD05C08091D80145
:1004F0008111F8CF08958091E8008B7708C0809132
:10050000D8018111EACF08958091E8008E77809319
:10051000E80008958091E4009091E50045E620917F
:10052000EC0020FF21C02091E80020FD21C0209197
:10053000D801222389F0253089F02091EB0025FD98
:100540000FC02091E4003091E5002817390739F3F6
:10055000415041F0C901E3CF82E0089583E008955E
:1005600081E0089584E008952091E80022FFDFCF24
:1005700080E008953FD041D08091D8008F7780935C
:10058000D8008091D80080688093D8008091D800EE
:100590008F7D8093D80084E089BD86E089BD09B451
:1005A00000FEFDCF1092D8011092D5011092D60115
:1005B00042E360E080E01CDF8091E1008E7F809369
:1005C000E1008091E20081608093E2008091E2008E
:1005D00088608093E2008091E0008E7F8093E0004D
:1005E0000895E3E6F0E080818E7F808381E0809350
:1005F000D701C0CF1092E20008951092E100089553
:100600001F920F920FB60F9211242F933F934F9387
:100610005F936F937F938F939F93AF93BF93EF936A
:10062000FF938091E10082FF0AC08091E20082FF87
:1006300006C08091E1008B7F8093E100D5D6809148
:10064000E10080FF17C08091E20080FF13C080911D
:10065000E2008E7F8093E2008091E20080618093CF
:10066000E2008091D80080628093D80019BC10927B
:10067000D801B0D68091E10084FF2DC08091E200C6
:1006800084FF29C084E089BD86E089BD09B400FEED
:10069000FDCF8091D8008F7D8093D8008091E100BC
:1006A0008F7E8093E1008091E2008F7E8093E20054
:1006B0008091E20081608093E2008091D5018111F8
:1006C00004C08091E30087FF02C084E001C081E0A4
:1006D0008093D8017ED68091E10083FF22C0809173
:1006E000E20083FF1EC08091E100877F8093E100DC
:1006F00082E08093D8011092D5018091E1008E7F35
:100700008093E1008091E2008E7F8093E2008091EF
:10071000E20080618093E20042E360E080E068DE16
:1007200054D1FF91EF91BF91AF919F918F917F91A4
:100730006F915F914F913F912F910F900FBE0F904E
:100740001F9018951F93CF93DF93CDB7DEB7AA976D
:100750000FB6F894DEBF0FBECDBFE9EDF1E080919A
:10076000F100819321E0E13EF207C9F748D780917B
:10077000E80083FF12C12091D9013091DA01832F63
:1007800090E08A30910508F008C1FC01E65CFF4F5B
:10079000AFC7203881F0223809F0FFC08091DD0119
:1007A0008F708093E9008091EB0085FB882780F9AA
:1007B0001092E90004C08091D601811182E09091ED
:1007C000E800977F9093E8008093F1001092F10089
:1007D000C1C0822F8D7F09F0E0C0222319F02230A2
:1007E00061F0DBC08091DB01813009F0D6C033308D
:1007F00009F080E08093D60128C08091DB0181114F
:1008000024C02091DD012F7009F4C7C02093E900B6
:100810008091EB0080FF19C08091EB00333011F420
:10082000806211C080618093EB0081E090E0022E35
:1008300001C0880F0A94EAF78093EA001092EA0058
:100840008091EB0088608093EB001092E90080912A
:10085000E800877F82C02111A0C01091DB011F77C3
:100860008091E3008078812B8093E3008091E80001
:10087000877F8093E8002DDE8091E80080FFFCCF29
:100880008091E30080688093E300112311F083E0FE
:1008900001C082E08093D80180C02058223008F047
:1008A0007CC08091DB019091DC018C3D23E09207BC
:1008B00071F583E08A838AE289834FB7F894DE0179
:1008C000139620E03EE051E2E32FF0E05093570012
:1008D000E49120FF03C0E295EF703F5FEF708E2F31
:1008E00090E0EA3010F0C79601C0C0968D939D93BA
:1008F0002F5F243149F74FBF8091E800877F8093B5
:10090000E8006AE270E0CE01019674DC12C0AE012C
:100910004F5F5F4F6091DD0156D3009709F43DC0F2
:100920002091E800277F2093E800BC0189819A810B
:10093000FDDC8091E8008B778093E8002EC02038A2
:1009400061F58091E800877F8093E8008091D50170
:100950008093F1008091E8008E778093E800B9DD04
:100960001CC021111AC09091DB019230B0F480912B
:10097000E800877F8093E8009093D501AADD8091FD
:10098000D501811104C08091E30087FF02C084E09B
:1009900001C081E08093D8011ED58091E80083FFDB
:1009A0000AC08091E800877F8093E8008091EB0087
:1009B00080628093EB00AA960FB6F894DEBF0FBE5C
:1009C000CDBFDF91CF911F9108950895CF9380916E
:1009D000D8018823A9F08091E9008F709091EC00F4
:1009E00090FF02C090E801C090E0C92FC82B109280
:1009F000E9008091E80083FDA5DECF70C093E90097
:100A0000CF9108956F927F928F929F92AF92BF92F3
:100A1000CF92DF92EF92FF920F931F93CF93DF93CA
:100A200000D01F92CDB7DEB77C01ADB6BEB68091C7
:100A3000E80083FFFEC0F701808190E02091DD0196
:100A40003091DE012817390709F0F3C08091DA01EF
:100A5000833009F495C030F4813071F0823009F4AC
:100A6000CCC0E7C08A3009F4B0C08B3009F499C01B
:100A7000893009F0DEC047C08091D901813A09F080
:100A8000D8C08DB69EB61A8219828091DB01109172
:100A9000DC018B83F701408550E08DB79EB7841B46
:100AA000950B0FB6F8949EBF0FBE8DBFEDB7FEB786
:100AB00031966F0160E070E0CF0164D64FEF410FD7
:100AC0008E010F5F1F4F9601BE016D5F7F4FC70103
:100AD00097D4F70186819781009721F0408550E0F7
:100AE000B60147D61092E9008091E800877F809395
:100AF000E80069817A81C6017DDB8091E8008B770F
:100B00008093E80037C08091D901813209F091C00B
:100B10008DB69EB60091DF011091E0017090DB016F
:100B20006090DC018DB79EB7801B910B0FB6F894D7
:100B30009EBF0FBE8DBFEDB7FEB731966F0180919E
:100B4000E800877F8093E800B801CF01B3DB809194
:100B5000E8008E778093E80021E0711001C020E06A
:100B600030E0021B130B2C0D3D1D4FEF460D672D82
:100B7000C70156D40FB6F8949EBE0FBE8DBE59C0A5
:100B80008091D901813A09F054C08091E800877FB3
:100B90008093E8008091E80080FFFCCFF701818519
:100BA00040C08091D901813209F043C08091E800B2
:100BB000877F8093E8008DDC9091DB0181E09111CB
:100BC00001C080E0F701818734C08091D901813272
:100BD00081F58091E800877F8093E8007ADC80913E
:100BE000DB019091DC01882736E0969587953A9550
:100BF000E1F7F701958784871CC08091D901813A7C
:100C0000C1F48091E800877F8093E8008091E8003C
:100C100080FFFCCFF70184859585969587959695FD
:100C200087958093F1008091E8008E778093E800AB
:100C300050DC0FB6F894BEBE0FBEADBE0F900F9045
:100C40000F90DF91CF911F910F91FF90EF90DF9068
:100C5000CF90BF90AF909F908F907F906F900895AE
:100C6000FC01399627E0DF011D922A95E9F721E082
:100C7000FC01218724EF31E03587248723E024839A
:100C800061E00196EACB5F926F927F928F929F9282
:100C9000AF92BF92CF92DF92EF92FF920F931F938A
:100CA000CF93DF9300D01F92CDB7DEB77C01ADB6F6
:100CB000BEB68091D801843009F08AC08091E400EA
:100CC0009091E500F701228533852817390709F44B
:100CD0007FC081818F708093E9008091E80085FF5B
:100CE00077C08DB69EB6408550E08DB79EB7841B09
:100CF000950B0FB6F8949EBF0FBE8DBFEDB7FEB734
:100D000031966F011B821A82198260E070E0CF0178
:100D100039D58E010F5F1F4F960140E0BE016D5F18
:100D20007F4FC7016DD3682EF70184859585892B88
:100D300041F021E086859785892B09F020E0722E0D
:100D400001C0712CF701068117810115110589F089
:100D500049815A81B801C601FFD455245394892B87
:100D600009F4512CF701408550E0B601C80101D5C6
:100D700001C0512C29813A81232BF1F0611004C06C
:100D8000511002C070FE18C0F701848595859787C1
:100D9000868781818F708093E9008B818111809398
:100DA000F10069817A8140E050E0C601DBD9809191
:100DB000E8008E778093E8008091E4009091E50050
:100DC000F701938782870FB6F8949EBE0FBE8DBE43
:100DD0000FB6F894BEBE0FBEADBE0F900F900F9031
:100DE000DF91CF911F910F91FF90EF90DF90CF9007
:100DF000BF90AF909F908F907F906F905F9008957D
:100E00001F920F920FB60F9211242F933F934F937F
:100E10005F936F937F938F939F93AF93BF93EF9362
:100E2000FF93BFD282E086BBFF91EF91BF91AF915C
:100E30009F918F917F916F915F914F913F912F91F2
:100E40000F900FBE0F901F9018951F920F920FB624
:100E50000F92112483E0459A98E2EFE9FFE0319781
:100E6000F1F700C000009150C1F7459898E2EFE912
:100E7000FFE03197F1F700C000009150C1F78150B9
:100E800051F7459AFFCFA8952CE088E190E00FB686
:100E9000F894A895809360000FBE20936000809125
:100EA000600080648093600090E080E80FB6F89462
:100EB00080936100909361000FBE88EF84B987E052
:100EC00085B98CEF87B982E088B98FEF8AB91BB8F2
:100ED0003D9A459884E690E054E6652F681B459856
:100EE00040E0242F30E0281739074CF4E7ECF0E01D
:100EF0003197F1F700C00000A8954F5FF2CF459AF7
:100F000020E0261749F0E7ECF0E03197F1F700C058
:100F10000000A8952F5FF5CF01970097F1F6ECD070
:100F20001092800010928200109281008091040142
:100F300090910501909389008093880082E08093CE
:100F40006F0081E0809381001092850010928400F0
:100F500048DB7894C2E0A89538D28FB7F894909186
:100F6000D4018FBF2FB7F8948091D4018D7F8093E7
:100F7000D4012FBF91FF04C040E060E080E0C3D007
:100F80008FB7F8949091D4018FBF2FB7F8948091C8
:100F9000D4018B7F8093D4012FBF92FFDCCF80914F
:100FA0006F008D7F80936F00809104019091050107
:100FB000909389008093880010928500109284009D
:100FC000C0936F00C8CF292F332723303105B9F0E4
:100FD0005CF42130310569F12230310579F582E286
:100FE00090E026ED30E02EC021323105E9F02232CA
:100FF000310521F580E290E02AE031E023C0992715
:101000008130910541F08230910541F0892BB1F496
:10101000E2EDF0E005C0EEE9F0E002C0E8E8F0E063
:10102000849190E09F010EC089E090E028EE30E0CE
:1010300009C082E190E028EF30E004C080E090E059
:1010400020E030E0FA013183208308952A982CE0D3
:1010500030E040E058E0BA0168237923672B11F0B3
:101060002A9A01C02A98299A29985695479521507D
:1010700031092115310579F70895289A289808959E
:10108000FF920F931F93CF93DF93F82E092F80E0E9
:1010900090E0DCDFCF2DD02F15E08AA19BA1D6DF19
:1010A00088A199A1D3DF8E8D9F8DD0DF1150269618
:1010B0001111F3CF80E090E0C9DFCF2DD02F15E0E4
:1010C0008C819D81C3DF8A819B81C0DF888199816A
:1010D000BDDF115026961111F3CFDF91CF911F91F3
:1010E0000F91FF90CACFCF93C0E180E090E0AEDFD8
:1010F000C150D9F7CF91C1CF219A229A209A28982E
:1011000029982A98F0CFCF93DF93E6E1F1E0C2E58A
:10111000D1E0AEE8B1E090E070E050E091838083F0
:101120007383628355834483998388837B836A8333
:101130005D834C8311969C938E9313967C936E9350
:10114000129715965C934E9314973696269616969C
:1011500021E0E235F20711F7DF91CF9108952F9248
:101160003F924F925F926F927F928F929F92AF9237
:10117000BF92CF92DF92EF92FF920F931F93CF9384
:10118000DF93CDB7DEB766970FB6F894DEBF0FBE1C
:10119000CDBF20910101288B822F90E0A0E0B0E02C
:1011A000898B9A8BAB8BBC8BAAECB1E0BA87A987F1
:1011B000EEE8F1E0FE8BED8B06E111E032E5232E47
:1011C00031E0332EA985BA85BC91BB87E889BE176B
:1011D00028F1AD89BE898D919C91F801918380831E
:1011E000D1018D939C93ED89FE8982819381D801F1
:1011F00013969C938E931297F10193838283AD890A
:10120000BE8914968D919C911597F80195838483DE
:10121000D10115969C938E93149797C0EB858E2FD2
:1012200090E0A0E0B0E07727662729893A894B89CA
:101230005C89E8D129013A0180E090E0A1E0B0E0CA
:10124000821B930BA40BB50B8C879D87AE87BF8742
:10125000D8012D913C9140E050E06C857D858E85D4
:101260009F85F4D149015A01ED89FE8920813181A0
:1012700040E050E0C301B201E9D129833A834B83B6
:101280005C8389819A81AB81BC81880E991EAA1EDC
:10129000BB1ED101AD92BC92F8012281338140E0A6
:1012A00050E06C857D858E859F85D0D149015A019E
:1012B000AD89BE8912962D913C91139740E050E084
:1012C000C301B201C3D129833A834B835C838981F3
:1012D0009A81AB81BC81880E991EAA1EBB1ED101CA
:1012E0001396BC92AE921297F8012481358140E0AA
:1012F00050E06C857D858E859F85A8D149015A0176
:10130000AD89BE8914962D913C91159740E050E02F
:10131000C301B2019BD129833A834B835C836D83E4
:101320007E838F83988789819A81AB81BC81880E67
:10133000991EAA1EBB1ED1011596BC92AE9214979F
:101340008B858F5FE985FA85808389859A850196EB
:101350009A878987AD89BE891696BE8BAD8B0A5F49
:101360001F4FB6E02B0E311C845D914009F02ACF4F
:1013700066960FB6F894DEBF0FBECDBFDF91CF915A
:101380001F910F91FF90EF90DF90CF90BF90AF90A3
:101390009F908F907F906F905F904F903F902F9095
:1013A0000895DDDE80910001882319F082E591E047
:1013B00002C08EE891E064CE9FB7F8942091D401EA
:1013C000822B8093D4019FBF089586E091E05BDC7F
:1013D000FDCA0895089586E091E042DCE2EEF0E077
:1013E000808184608083089580911401909115011B
:1013F000009729F0019790931501809314010895A7
:101400000F931F9388E090E0F8019183808386E03A
:10141000F901818384E0828381E01F910F91089517
:101420008F929F92AF92BF92CF92DF92EF92FF92F4
:101430000F931F93CF93DF93E9018881833009F4E1
:10144000B0C038F4813089F0823009F0CBC082E03E
:10145000B3C0853009F4C1C008F4BBC0863009F0C0
:10146000C1C0898180930201BDC088E0A5DFE6E1AB
:10147000F1E08EE891E0B0E98B2EB1E09B2E22E9FD
:1014800031E00AEC11E040E050E064AD75AD7183ED
:10149000608366AD77AD73836283BF01605C7F4F0D
:1014A000DB01AD90BC90B582A482BE01640F751FB4
:1014B000DB011196EC90F12CA4E0EE0CFF1CAA9538
:1014C000E1F7DC01ED92FC92DB011296EC90F12C3D
:1014D000B4E0EE0CFF1CBA95E1F7D401ED92FC925A
:1014E000DB011396EC90F12CA4E0EE0CFF1CAA9506
:1014F000E1F7D901ED92FC92DB011496DC90BD2D51
:10150000BF70DB2EDC01ED90FC901197ED28ED9281
:10151000FC92DB011596DC90BD2DBF70DB2ED40153
:10152000ED90FC901197ED28ED92FC92DB01169660
:10153000FC90BF2DBF70FB2ED9016D917C9111974E
:101540006F296D937C93C080D180DC01ED90FC907D
:10155000CE14DF0459F4C280D380D401ED90FC9006
:10156000CE14DF0419F4A616B70611F0D8011C92A8
:101570004A5F5F4F36960696B6E08B0E911C2A5F47
:101580003F4F0F5F1F4F4C33510509F07ECF9FB780
:10159000F8948091D401877F8093D4019FBF81E02C
:1015A0000BC08A8190E0982F88272981822B909305
:1015B00005018093040184E0DF91CF911F910F9189
:1015C000FF90EF90DF90CF90BF90AF909F908F9063
:1015D000F3CE89818093030105C089818093000146
:1015E00080930101DF91CF911F910F91FF90EF90B8
:1015F000DF90CF90BF90AF909F908F90089586E03E
:1016000091E000CAA1E21A2EAA1BBB1BFD010DC06E
:10161000AA1FBB1FEE1FFF1FA217B307E407F507A2
:1016200020F0A21BB30BE40BF50B661F771F881F7E
:10163000991F1A9469F760957095809590959B0114
:10164000AC01BD01CF01089568940010E894A0E0BA
:10165000B0E0ECE2FBE01DC0EFEFE7F959016A01F1
:101660005E23550FEE08FE2C87019B01AC019E23E3
:10167000990F660B762FCB0141D0CDB7DEB7EAE0EC
:1016800024C02F923F924F925F926F927F928F92DF
:101690009F92AF92BF92CF92DF92EF92FF920F9301
:1016A0001F93CF93DF93CDB7DEB7CA1BDB0B0FB60B
:1016B000F894DEBF0FBECDBF09942A8839884888C8
:1016C0005F846E847D848C849B84AA84B984C8845E
:1016D000DF80EE80FD800C811B81AA81B981CE0F55
:1016E000D11D0FB6F894DEBF0FBECDBFED0108953A
:1016F000EE0FFF1F0590F491E02D0994DF93CF9337
:101700009F92A0E49A2E0024D001E001F0011695EA
:101710000795F794E794D794C794B794A79448F49F
:101720001068A20FB31FC41FD51FE61FF71F081EA6
:10173000191E220F331F441F551F661F771F881F56
:10174000991F9A9421F79D01AE01BF01C001112498
:101750009F90CF91DF910895FB01DC0104C08D9132
:101760000190801921F441505040C8F7881B990B13
:101770000895FB01DC0102C001900D9241505040E0
:10178000D8F70895DC0101C06D9341505040E0F757
:061790000895F894FFCF5C
:10179600016432806400008108000001E20140001B
:0617A6000000000000003D
:00000001FF
