:100000008AC00000A4C00000A2C00000A0C0000080
:100010009EC000009CC000009AC0000098C0000074
:1000200096C0000094C0000092C000003FC10000D4
:100030008EC000008CC000008AC00000B7C700005E
:1000400086C0000084C0000082C0000080C00000A4
:100050007EC000007CC000007AC0000078C00000B4
:1000600076C0000074C0000072C0000070C00000C4
:100070006EC00000069CFF0901A1010902750895E8
:10008000401580257F8102090375089540150025DC
:10009000FF9102C01201100100000008EB034F2085
:1000A00001000102000109022200010100C0FA0959
:1000B00004000001030000000921110100012220B9
:1000C00000070581034000010403090432036C00AA
:1000D00069006700680074007000610063006B00D5
:1000E0002E0067006F006F0067006C006500630002
:1000F0006F00640065002E0063006F006D0000005B
:1001000014034C006900670068007400700061000F
:1001100063006B00000011241FBECFEFD2E0DEBFF2
:10012000CDBF11E0A0E0B1E0ECE4F3E102C0059046
:100130000D92A431B107D9F711E0A4E1B1E001C0FB
:100140001D92AD3AB107E1F788D60C94A40958CFB7
:100150008093E9008091EB0081608093EB00109226
:10016000ED006093EC004093ED008091EE00881F5D
:100170008827881F08958091650188239CF404C016
:10018000809164018823B9F08091E80082FFF8CF64
:100190008091E8008B778093E80008958091640156
:1001A000882349F08091E80080FFF8CF8091E80033
:1001B0008E778093E80008954091E4005091E50027
:1001C00024E68091EC0080FF05C08091E80080FF6C
:1001D00005C022C08091E80082FD1EC080916401AC
:1001E000882311F482E00895853011F483E00895A6
:1001F0008091EB0085FF02C081E008958091E400CA
:100200009091E50084179507E1F2222311F484E030
:1002100008952150AC01D5CF80E0089541D043D05E
:100220008091D800982F9F779093D8008068809312
:10023000D80084E089BD89B5826089BD09B400FE1B
:10024000FDCF8091D8008F7D8093D80010926401FB
:1002500010926201109261011092600180E060E0F2
:1002600042E076DF8091E1008E7F8093E100809113
:10027000E20081608093E2008091E20088608093D8
:10028000E2008091E0008E7F8093E0000895E3E635
:10029000F0E080818E7F808381E080936301BECF18
:1002A0001092E20008951092E10008951F920F92BB
:1002B0000FB60F9211242F933F934F935F936F9339
:1002C0007F938F939F93AF93BF93EF93FF9380910F
:1002D000E10080FF1CC08091E20080FF18C0809187
:1002E000E1008E7F8093E1008091E2008E7F809319
:1002F000E2008091E20080618093E2008091D8006A
:1003000080628093D80019BC1092640141D780911B
:10031000E10084FF2EC08091E20084FF2AC084E0C7
:1003200089BD89B5826089BD09B400FEFDCF809189
:10033000D8008F7D8093D8008091E1008F7E8093DC
:10034000E1008091E2008F7E8093E2008091E200E4
:1003500081608093E20080916201882331F4809172
:10036000E30087FD02C081E001C084E08093640166
:100370000DD78091E10083FF22C08091E20083FFCE
:100380001EC08091E100877F8093E10082E080932E
:100390006401109262018091E1008E7F8093E10000
:1003A0008091E2008E7F8093E2008091E200806184
:1003B0008093E20080E060E042E0CADE4BD18091B1
:1003C000E10082FF0AC08091E20082FF06C08091B6
:1003D000E1008B7F8093E100DDD6FF91EF91BF912B
:1003E000AF919F918F917F916F915F914F913F91CD
:1003F0002F910F900FBE0F901F9018950F931F9382
:10040000DF93CF9300D0CDB7DEB7E5E6F1E0809182
:10041000F100819381E0ED36F807C9F742D780916A
:10042000E80083FF02C1809165013091660135309B
:1004300009F487C0363040F43130C9F1313070F002
:10044000333009F0F2C033C0383009F4C0C039305D
:1004500009F4CFC0363009F0E8C099C0803821F0E7
:10046000823809F0E2C008C090916001809161017A
:10047000882399F0926011C0809169018770809300
:10048000E9008091EB0090E025E0969587952A950C
:10049000E1F7982F91701092E9008091E800877F32
:1004A0008093E8009093F1001092F1009BC08823A4
:1004B00019F0823009F0B9C090E08F719070009708
:1004C00021F0029709F0B1C00CC080916701813022
:1004D00009F0ABC010926101333069F5809361017E
:1004E0002AC080916701882331F520916901277026
:1004F00009F49BC02093E9008091EB0080FF1BC0B2
:10050000333021F48091EB00806213C08091EB00C6
:1005100080618093EB0081E090E002C0880F991F1A
:100520002A95E2F78093EA001092EA008091EB00AE
:1005300088608093EB001092E9008091E800877F4B
:1005400054C0882309F071C0109167011F770FB75D
:10055000F8948091E800877F8093E8000CDE80911A
:10056000E80080FFFCCF112311F482E001C083E09A
:10057000809364018091E3008078182B1093E3004E
:100580008091E30080688093E3000FBF4EC08058E5
:10059000823008F04AC080916701909168016091B3
:1005A0006901AE014F5F5F4F2AD5BC01009709F486
:1005B0003CC08091E800877F8093E80089819A8120
:1005C000A8D08091E8008B778093E8002EC0803817
:1005D00061F58091E800877F8093E8008091620157
:1005E0008093F1008091E8008E778093E800C3DD6E
:1005F0001CC08823D1F4909167019230B0F48091AF
:10060000E800877F8093E80090936201B4DD8091D9
:100610006201882331F48091E30087FD02C081E00C
:1006200001C084E0809364013FD68091E80083FF9D
:100630000AC08091EB0080628093EB008091E8001B
:10064000877F8093E8000F900F90CF91DF911F91EB
:100650000F91089508959C0140916B0150916C0198
:100660004617570718F4F90190E03DC06115710570
:1006700011F0AB01F8CF8091E8008E778093E8000D
:1006800040E050E0F0CF809164018823F1F18530A3
:10069000F1F18091E80083FF02C081E0089580912C
:1006A000E80082FD2CC08091E80080FF1CC0809192
:1006B000F200282F30E007C081918093F100415073
:1006C00050402F5F3F4F4115510519F0283031053B
:1006D00098F390E02830310509F491E08091E8002A
:1006E0008E778093E8004115510569F6992359F6F4
:1006F00006C080916401882341F0853041F08091EB
:10070000E80082FFF6CF80E0089582E0089583E05C
:1007100008959C0140916B0150916C014617570759
:1007200010F460E03FC06115710511F0AB01F9CF25
:100730008091E8008E778093E80040E050E0F1CFB0
:1007400080916401882309F43FC0853009F43EC0DC
:100750008091E80083FF02C081E008958091E80065
:1007600082FD2CC08091E80080FF1CC08091F200C7
:1007700090E009C0F9012F5F3F4FE491E093F10051
:100780004150504001964115510519F088309105AE
:1007900088F360E0089709F461E08091E8008E77C3
:1007A0008093E8004115510559F6662349F606C0C5
:1007B00080916401882341F0853041F08091E80008
:1007C00082FFF6CF80E0089582E0089583E00895E7
:1007D0009C016115710529F48091E8008B77809365
:1007E000E800F90120C080916401882361F185301F
:1007F00061F18091E80083FF02C081E0089580915B
:10080000E80082FFF0CF06C08091F1008193615033
:10081000704021F08091F2008823B1F78091E800C8
:100820008B778093E80061157105E9F606C0809129
:100830006401882341F0853041F08091E80080FF19
:10084000F6CF80E0089582E0089583E00895DF9276
:10085000EF92FF920F931F93CF93DF93182F092FDF
:10086000EB017A01A9DCD82E882319F5812F902F6E
:100870009C0189011CC08091E80085FD12C0809117
:10088000E8008E778093E800E114F10431F0F7017D
:100890000995813011F485E00DC08EDC882339F094
:1008A00009C0F80181918F018093F1002197209771
:1008B00011F78D2DDF91CF911F910F91FF90EF9048
:1008C000DF9008951F9380916401882361F0109157
:1008D000E9001092E9008091E80083FF01C08EDDFD
:1008E00017701093E9001F9108954F925F926F92D5
:1008F0007F928F929F92AF92BF92CF92DF92EF92B0
:10090000FF920F931F93DF93CF9300D00F92CDB739
:10091000DEB77C016DB67EB680916401843009F04B
:1009200085C0F70181818093E9008091E80085FF0F
:100930007DC05DB64EB647818DB79EB7841B9109C9
:100940000FB6F8949EBF0FBE8DBF0DB71EB70F5FD9
:100950001F4F19821B821A82C02E912EC80160E09F
:1009600070E050E0EAD4C701BE016F5F7F4F40E006
:1009700098018E010E5F1F4F19D4882EF7018185D3
:100980009285892B19F4AA24BB240BC020E0F7011F
:1009900083859485892B09F021E081E02827A22E08
:1009A000BB24F701058116810115110511F4DD2421
:1009B00012C04A815B818C2D992DB801A8D4DD2409
:1009C000009711F0DD24D394F7014781C8016C2D05
:1009D000792D50E0A9D48A819B81892BF9F0882058
:1009E00021F4DD2011F4AB28C9F0F701818592854F
:1009F0009487838781818093E9008981882311F01E
:100A00008093F1006A817B818C2D992D40E050E02C
:100A10001EDF8091E8008E778093E800852D942D6D
:100A20009C010FB6F8943EBF0FBE2DBF0FB6F894D1
:100A30007EBE0FBE6DBE0F900F900F90CF91DF91D5
:100A40001F910F91FF90EF90DF90CF90BF90AF90EC
:100A50009F908F907F906F905F904F900895CF936D
:100A6000DF93DC010896FC0185E0EF0119928A957D
:100A7000E9F781E018968C93189784EF91E01A9625
:100A80009C938E93199711963C91119712966D91A4
:100A90007C91139714968C91882311F440E001C047
:100AA00044E020E088E090E003C02F5F880F991FAA
:100AB00086179707D0F342602295207F422B832F21
:100AC00061EC46DB811181E0DF91CF9108956F9257
:100AD0007F928F929F92AF92BF92CF92DF92EF92CE
:100AE000FF920F931F93DF93CF9300D00F92CDB758
:100AF000DEB74C016DB67EB68091E80083FFF8C08A
:100B0000F401808190E02091690130916A012817F9
:100B1000390709F0EDC080916601833009F498C06F
:100B2000843030F4813071F0823009F0E1C0C8C007
:100B30008A3009F4ADC08B3009F497C0893009F0D0
:100B4000D7C04FC080916501813A09F0D1C0ADB6E0
:100B5000FEB61B821A828091670110916801898319
:100B6000F40147818DB79EB7841B91090FB6F894A5
:100B70009EBF0FBE8DBFCDB6DEB60894C11CD11C82
:100B8000EC2CBD2CC60160E070E050E0D6D31150D3
:100B9000C401BE016F5F7F4F412F96018E010E5F32
:100BA0001F4F04D3F401258136812115310529F029
:100BB0004781C901B60150E0B7D31092E900809196
:100BC000E800877F8093E8006A817B818E2D9B2DD2
:100BD00042DD8091E8008B778093E8002A2D3F2D3D
:100BE00031C080916501813209F082C0AEB60091BA
:100BF0006B0110916C01C0906701D09068018DB7B6
:100C00009EB7801B910B0FB6F8949EBF0FBE8DBF91
:100C1000EDB6FEB60894E11CF11C8091E800877FD8
:100C20008093E800C701B801D3DD8091E8008E779A
:100C30008093E800DA94C4016C2D4D2D9701C6D243
:100C4000262D3A2D0FB6F8943EBF0FBE2DBF50C0D3
:100C500080916501813A09F04BC08091E800877F5F
:100C60008093E800F40180853BC08091650181326A
:100C700009F03EC08091E800877F8093E8007BDA2E
:100C800090E080916701811191E0F401908730C07C
:100C900080916501813261F58091E800877F8093C2
:100CA000E80069DA8091670190916801807076E0D0
:100CB000969587957A95E1F7F4019287818718C018
:100CC00080916501813AA1F48091E800877F80934B
:100CD000E800F4018185928596958795969587958C
:100CE0008093F1008091E8008E778093E80043DAEA
:100CF0000FB6F8947EBE0FBE6DBE0F900F900F9092
:100D0000CF91DF911F910F91FF90EF90DF90CF90E7
:100D1000BF90AF909F908F907F906F900895AF920B
:100D2000BF92CF92DF92EF92FF920F931F93CF93D8
:100D3000DF9320915D0130915E0180910101C82E09
:100D4000DD2480E0922FB601CED2DB01E12C91E0D0
:100D5000F92EE61AF70AE5E1F1E080E3A82EB12CBE
:100D6000AE0EBF1E85016081C70170E0AAD29C0152
:100D7000E8016881CD0170E0A4D2280F391F308FBF
:100D80006181C70170E09DD29C016981CD0170E055
:100D900098D2280F391F318F6281C70170E091D23C
:100DA0009C016A81CD0170E08CD2280F391F328FEF
:100DB00033960D5F1F4F81E0ED32F807A1F6809169
:100DC0005D0190915E01019690935E0180935D01BB
:100DD00080915D0190915E01C816D906C8F4D09249
:100DE0005E01C0925D017897D5018C918083119648
:100DF0008C911197818312968C918283C3E0D0E00D
:100E0000AC0EBD1E33968DE5A81681E0B80661F7DD
:100E1000DF91CF911F910F91FF90EF90DF90CF90D6
:100E2000BF90AF900895E5E1F1E0DF01589680832F
:100E3000618342838C93618F428F58968C9358972D
:100E400059966C9359975A964C935A973396139692
:100E500091E0ED32F90759F708951F9384B7877F22
:100E600084BF88E10FB6F894809360001092600010
:100E70000FBE80E090E020E80FB6F8942093610068
:100E8000809361000FBE15B814B818B817B81BB816
:100E90001AB8529A539A3FD1109280001092820051
:100EA00081E08093810084E690E0909389008093B4
:100EB0008800109285001092840082E080936F0079
:100EC000E6D9789412E0F9D18FB7F8942091140103
:100ED0008FBF9FB7F894809114018D7F8093140188
:100EE0009FBF21FF04C080E060E040E09CDF8FB73F
:100EF000F894209114018FBF9FB7F894809114014A
:100F00008B7F809314019FBF22FFDDCF80916F0004
:100F10008D7F80936F0080910401909105019093E3
:100F200089008093880010928500109284001093AD
:100F30006F00C9CF90915F0180910301981711F55F
:100F400010925F015A9A10928500109284000FD17E
:100F500080910001882309F0E2DE8091020190E097
:100F6000A0E0B0E02227382F492F5A2F809184002B
:100F700090918500A0E0B0E082179307A407B50721
:100F8000A8F35A985B9A80910001882319F08DE2AA
:100F900091E002C085E491E060915F01C9D05B9867
:100FA00080915F018F5F80935F0108951F920F9280
:100FB0000FB60F9211242F933F934F935F936F932C
:100FC0007F938F939F93AF93BF93EF93FF93B2DF82
:100FD00082E086BB1092850010928400FF91EF9111
:100FE000BF91AF919F918F917F916F915F914F9141
:100FF0003F912F910F900FBE0F901F901895DA011F
:101000009330B1F0943028F4913041F0923079F57A
:101010000AC0913211F1923251F524C0E4E9F0E0B6
:1010200022E130E028C0E6EAF0E022E230E023C02E
:10103000813049F0813018F08230C9F40AC0E8EC00
:10104000F0E0849103C0ECECF0E08491282F30E0D4
:1010500012C0E0E0F1E08491F9CFE8EBF0E029E0A4
:1010600030E009C0E4E7F0E020E230E004C0E0E076
:10107000F0E020E030E0ED93FC93C9010895FC011D
:10108000362F842F2D9829982E982A982D9A299AB0
:101090002D98299890E063E070E013D1DF01A80F4C
:1010A000B91F12968C911297381710F42E9A01C01E
:1010B0002E98822F90E063E070E003D1E80FF91FD3
:1010C0008281381710F42A9A01C02A982D9A299AF9
:1010D0002D98299811968C911197381710F42E9A03
:1010E00001C02E988181381710F42A9A01C02A98DD
:1010F0002D9A299A2D9829988C91381710F42E9AA8
:1011000001C02E988081381710F42A9A01C02A98BD
:101110002D9A299A08952D9829982C9828982E98D8
:101120002A98259A219A249A209A269A229A0895F2
:10113000FF920F931F938C01F62E43E027E09FDF71
:10114000C8016F2D42E026E09ADFC8016F2D41E013
:1011500025E095DFC8016F2D40E024E090DF2C9A58
:10116000289A2C9828981F910F91FF9008952E98F7
:101170002A9880E02D9829982D9A299A8F5F80319E
:10118000C9F72C9A289A2C98289808955A9A089565
:101190005A9808958091110190911201009729F0B9
:1011A0000197909312018093110108950F931F935B
:1011B000D801F90184E0818383E0828380E490E0B8
:1011C0008D939C9381E01F910F910895CF93DF93AE
:1011D000F9018081833009F443C0843030F48130D8
:1011E00071F0823009F05AC032C0853009F44CC029
:1011F000853008F445C0863009F050C04CC0EDE29F
:10120000F1E0EF016897D90180818883818189832A
:1012100082818A8311968C911197808F12968C917E
:101220001297818F13968C911397828F3396239602
:10123000169681E0E534F80739F710925E011092B6
:101240005D019FB7F89480911401816005C09FB73C
:10125000F894809114018260809314019FBF1EC096
:10126000928180E0218130E0822B932B90930501C5
:10127000809304019FB7F894809114018460ECCFAF
:101280008181809303010AC0818180930001818163
:101290008093010103C0818180930201DF91CF918E
:1012A000089586E091E013CC86E091E0D8DBE2EE91
:1012B000F0E0808184608083089586E091E015DB12
:1012C00001CB5527002480FF02C0060E571F660F72
:1012D000771F6115710521F096958795009799F70D
:1012E000952F802D0895AA1BBB1B51E107C0AA1F93
:1012F000BB1FA617B70710F0A61BB70B881F991FB7
:101300005A95A9F780959095BC01CD010895FB01F0
:10131000DC0104C08D910190801921F441505040AE
:10132000C8F7881B990B0895FB01DC0102C00190EE
:101330000D9241505040D8F70895DC0101C06D93E3
:0C13400041505040E0F70895F894FFCFB2
:10134C0001643280640000014000006D0140000027
:04135C00000000008D
:00000001FF
